:100000000C9476000C94FC050C94BA050C94FC0539
:100010000C94FC050C94FC050C94FC050C94FC055C
:100020000C9405050C94FC050C9481040C94AD040F
:100030000C94D9040C94A0000C94FC050C94FC05C1
:100040000C94FC050C94FC050C94FC050C94FC052C
:100050000C94FC050C94FC050C94FC050C94FC051C
:100060000C94FC050C94FC050C94FC050C94FC050C
:100070000C94FC050C94FC050C94FC05C500CE000A
:10008000D700EC00190146017301A001CD01D60192
:1000900003020C026C028502B602C902E5020203E9
:1000A0002F033E0338123814000C0438143816009D
:1000B0000C0638163818000C083818381A000C0AC4
:1000C000381A381C80381C381E80381E3820000C26
:1000D0000C38203822000C0E38223824803824387E
:1000E00026803826382880380038128011241FBE18
:1000F000CFEFCDBFDFE3DEBFE4EAF0E040E017C0C2
:10010000B591A59135912591059107FD0CC095916B
:100110008591EF01F92FE82F05900D92A217B307F3
:10012000D9F7FE0104C01D92A217B307E1F7EC3E18
:10013000F40731F70E947B030C949E00F894FFCFE4
:100140001F920F920FB60F9211242F933F934F934C
:100150005F936F937F938F939F93AF93BF93EF932F
:10016000FF93E9E0F8E391818081981310920C38B5
:10017000E09109388E2F90E08C30910508F060C135
:10018000FC01E25CFF4F0C94F205E5E4F4E081E051
:10019000808382E0808310920C3852C181E080938A
:1001A000450482E08093460410920C3849C1809146
:1001B0000B388F3130F4E9E0F8E382818F5F82837E
:1001C00008C010920B3881E08093450482E0809350
:1001D000470410920C3834C180910C38823010F5ED
:1001E00080910B388F3130F4E9E0F8E382818F5F42
:1001F000828306C0E9E0F8E3128283818F5F838304
:1002000080910C3880FD07C0E5E4F4E081E0808354
:1002100082E0808315C181E08093450482E0809371
:1002200046040EC1E5E4F4E081E0808382E080834F
:1002300007C180910C38843010F580910B388F31D4
:1002400030F4E9E0F8E382818F5F828306C0E9E061
:10025000F8E3128283818F5F838380910C3880FD65
:1002600007C0E5E4F4E081E0808382E08083E8C0B9
:1002700081E08093450482E080934604E1C0E5E498
:10028000F4E081E0808382E08083DAC080910C38E2
:10029000863010F580910B388F3130F4E9E0F8E3C7
:1002A00082818F5F828306C0E9E0F8E31282838156
:1002B0008F5F838380910C3880FD07C0E5E4F4E014
:1002C00081E0808382E08083BBC081E0809345042D
:1002D00082E080934604B4C0E5E4F4E081E08083EA
:1002E00082E08083ADC080910C38883010F5809119
:1002F0000B388F3130F4E9E0F8E382818F5F82833D
:1003000006C0E9E0F8E3128283818F5F83838091E6
:100310000C3880FD07C0E5E4F4E081E0808382E0F2
:1003200080838EC081E08093450482E08093460400
:1003300087C0E5E4F4E081E0808382E0808380C0D0
:1003400080910C388A3010F580910B388F3130F461
:10035000E9E0F8E382818F5F828306C0E9E0F8E399
:10036000128283818F5F838380910C3880FD07C068
:10037000E5E4F4E081E0808382E0808361C081E095
:100380008093450482E0809346045AC0E5E4F4E09B
:1003900081E0808382E0808353C0E6E4F4E081E082
:1003A000808382E0808310920C384AC080910C38A0
:1003B000823010F580910B388F3130F4E9E0F8E3AA
:1003C00082818F5F828306C0E9E0F8E31282838135
:1003D0008F5F838380910C3880FD07C0E5E4F4E0F3
:1003E00081E0808382E080832BC0E6E4F4E081E05A
:1003F000808382E0808324C0E5E4F4E081E08083B0
:1004000082E080831DC081E08093460482E0809377
:10041000450410920C3814C080910B388F3130F4A1
:10042000E9E0F8E382818F5F828308C010920B3885
:1004300081E08093470482E08093450410920C3859
:10044000E9E0F8E380818183529B0EC080910338FC
:10045000833130F4E3E0F8E380818F5F808310C064
:1004600081E0809306380CC0E3E0F8E310828381DA
:10047000882321F0928181E08927828310920638B7
:10048000539B0EC080910438833130F4E3E0F8E3ED
:1004900081818F5F81830FC081E0809308380BC01A
:1004A000E3E0F8E311828581882319F081E08093ED
:1004B00007381092083880910538882309F4F8C06D
:1004C000E0911E38F0911F38E830F10508F0F8C0CF
:1004D000E65BFF4F0C94F2051092243810922538F9
:1004E000809120389091213896958795969587959B
:1004F00096958795809322389093233881E090E0F9
:1005000080931E3890931F38DBC02091243830919F
:10051000253880912038909121388217930778F4FC
:1005200080912038909121388093243890932538F9
:1005300082E090E080931E3890931F380EC0209187
:100540002438309125388091223890912338820FB9
:10055000931F80932438909325388091243890916C
:10056000253880932A0A90932B0AAAC080912438B8
:100570009091253880932A0A90932B0A83E090E08B
:1005800080931E3890931F38109226381092273887
:1005900097C08091263890912738863C91055CF071
:1005A00084E090E080931E3890931F381092263894
:1005B0001092273885C0809126389091273801966F
:1005C00080932638909327387BC080912038909173
:1005D0002138809324389093253880912038909149
:1005E00021389695879596958795969587958093CA
:1005F00022389093233885E090E080931E389093C2
:100600001F385EC0209124383091253880912238DF
:10061000909123388217930778F480912438909131
:1006200025382091223830912338821B930B8093F8
:100630002438909325380AC0109224381092253817
:1006400086E090E080931E3890931F388091243884
:100650009091253880932A0A90932B0A31C01092EA
:100660002A0A10922B0A87E090E080931E3890931C
:100670001F38109226381092273822C080912638D1
:10068000909127388D3691054CF010921E381092BB
:100690001F38109226381092273812C080912638C1
:1006A000909127380196809326389093273808C078
:1006B00010922A0A10922B0A10921E3810921F389C
:1006C000E0911A38F0911B38309709F0099581E0D4
:1006D0008093460AFF91EF91BF91AF919F918F91C7
:1006E0007F916F915F914F913F912F910F900FBE2E
:0606F0000F901F90189509
:1006F6000E94A9051092093810920538EDE0F8E33A
:100706001082118284E0838324E090E080E0E9E0B7
:10071600F8E3A3E0B8E339E06894EE24E2F801E0F8
:1007260010E00F2EF5E0FF2EF02DC2E0D0E00F2EE8
:10073600F6E0DF2EF02D63E070E00F2EF7E0CF2E0F
:10074600F02D0F2EF3E0BF2EF02D02C090E082E0D8
:10075600813059F018F0823079F0FACF3083438136
:1007660081E04230A8F780E0F3CF108212964C91D8
:1007760012974111EBCFECCF923021F128F4992357
:1007860049F0913049F05FC0933091F1943009F40B
:1007960045C059C0C08257C0B08210921C38109212
:1007A6001D3840911C3850911D38440F551F440F79
:1007B600551F440F551F40565F4F409320385093A6
:1007C600213841C0E08200931C3810931D384091B7
:1007D6001C3850911D38440F551F440F551F440FA8
:1007E600551F40565F4F40932038509321382BC0F9
:1007F600F082C0931C38D0931D3840911C3850911C
:100806001D38440F551F440F551F440F551F4056A2
:100816005F4F409320385093213815C0D0826093A3
:100826001C3870931D3840911C3850911D38440F68
:10083600551F440F551F440F551F40565F4F409399
:1008460020385093213814964C911497442351F034
:1008560014961C921497243018F491E0920F01C05C
:1008660091E0292F12964C911297411171CF81E098
:020876006FCF42
:10087800CF93DF930E947B05C0E0D4E080E28883B9
:10088800A0E2B4E087E08C93E0E4F4E083E08083C6
:100898001C8214961C9214978483188A198A1A8ABF
:1008A8001B8A1C8A1D8A1E8A1F8A50961C92509782
:1008B80051961C92519752961C92529753961C929D
:1008C800539754961C92549755961C925597569642
:1008D8001C92569757961C92108A118A128A138A6C
:1008E800148A158A168A178AE0E0F2E010821182CB
:0A08F80012821382DF91CF91089560
:100902001F920F920FB60F9211242F933F934F9382
:100912005F936F937F938F939F93AF93BF93EF9365
:10092200FF93E0911838F0911938309709F0099542
:1009320080E180930B0AFF91EF91BF91AF919F915C
:100942008F917F916F915F914F913F912F910F9076
:080952000FBE0F901F901895D5
:10095A001F920F920FB60F9211242F933F934F932A
:10096A005F936F937F938F939F93AF93BF93EF930D
:10097A00FF93E0911638F0911738309709F00995EE
:10098A0080E280930B0AFF91EF91BF91AF919F9103
:10099A008F917F916F915F914F913F912F910F901E
:0809AA000FBE0F901F9018957D
:1009B2001F920F920FB60F9211242F933F934F93D2
:1009C2005F936F937F938F939F93AF93BF93EF93B5
:1009D200FF93E0911438F0911538309709F009959A
:1009E20080E480930B0AFF91EF91BF91AF919F91A9
:1009F2008F917F916F915F914F913F912F910F90C6
:080A02000FBE0F901F90189524
:100A0A001F920F920FB60F9211242F933F934F9379
:100A1A005F936F937F938F939F93AF93BF93EF935C
:100A2A00FF93E0911238F0911338309709F0099545
:100A3A0081E080930B0AFF91EF91BF91AF919F9153
:100A4A008F917F916F915F914F913F912F910F906D
:080A5A000FBE0F901F901895CC
:100A620040E068ED88E790E00E94F80540E068ED1C
:100A72008CE790E00E94F80540E068ED80E790E0A6
:100A82000E94F80540E168ED81E690E00E94F805D9
:100A920041E068ED80E690E00E94F80540E068EDF4
:0C0AA20082E690E00E94F80580E00895D4
:100AAE00E0E0FAE08FE190E080A791A72FE330E03D
:100ABE0022A733A784A795A710A211A283E2818350
:100ACE0087E082831382148215821682178216861D
:100ADE001186128613868FE391E086A397A317865D
:080AEE0081E0808380E008959F
:100AF600E0E1F4E0808188608193E83184E0F807E2
:100B0600C9F7E0E3F4E0808188608193E83384E00C
:100B1600F807C9F7E0E5F4E0808188608193E8355D
:080B260084E0F807C9F7089507
:100B2E00E0E4FAE08FEF91E08487958712861386D2
:100B3E0011821086148281E085831682118680834D
:040B4E0080E00895A6
:100B52000E943C040E94D6050E94EA050E94E2051A
:100B62000E9431050E9457050E94C9050E949705FF
:020B72000895E4
:100B74001F920F920FB60F9211248F9381E08093EE
:0E0B84008A008F910F900FBE0F901F90189552
:100B920040E068ED80E191E00E94F805E0E1F1E0DB
:0A0BA20012821382789480E0089517
:100BAC0040E068ED80E890E00E94F805E0E8F0E0B5
:080BBC001186108680E0089507
:100BC40040E068ED80E590E00E94F80580E008953B
:100BD40040E068ED80E091E00E94F80580E008952F
:0C0BE400EE0FFF1F0590F491E02D099426
:080BF000FC0164BF408308957D
:040BF8000C94000059
:020BFC0008955A
:020BFE00089558
:020C0000089555
:020C0200089553
:020C04000106E7
:020C06000006E6
:020C0800FF05E6
:020C0A00FE05E5
:020C0C000600E0
:020C0E00A00044
:02000004008278
:090000000000020000C40700002A
:00000001FF
