:100000000C948F000C94B7080C9459080C94B70802
:100010000C94B7080C94FE050C943E060C949504C1
:100020000C94FD060C94B7080C9479060C94A50664
:100030000C94D1060C94B9000C94B7080C94B70832
:100040000C94B7080C94B7080C94B7080C94B70834
:100050000C94B9070C9429070C94B7080C94B708B2
:100060000C94B7080C94B7080C94B7080C94B70814
:100070000C94B7080C94B7080C944A08DE00E20010
:10008000E600F400FA00000106010C012A0131012A
:1000900058015C01B104CB04FE04090513052E05CB
:1000A00062056F05383A383C80383C383E80383E2F
:1000B00038408038403842803800383A80384238FA
:1000C00044001180384438460011823846384800D0
:1000D00011843848384A001186384A384C803860D4
:1000E000386180384C384E80384E3850001188388E
:1000F00050385200118A385238548038543856805B
:1001000038563858803858385A80386138628038C4
:100110005A385C80385C385E80385E3860801124E4
:100120001FBECFEFCDBFDFE3DEBFE4EAF0E041E08A
:1001300017C0B591A59135912591059107FD0CC08A
:1001400095918591EF01F92FE82F05900D92A21757
:10015000B307D9F7FE0104C01D92A217B307E1F758
:10016000EE31F40731F70E94DE020C94B700F894E8
:02017000FFCFBF
:100172001F920F920FB60F9211242F933F934F931A
:100182005F936F937F938F939F93AF93BF93EF93FD
:10019200FF9390911E3880911D3898131092203849
:1001A200E0911D388E2F90E08C30910508F097C0B9
:1001B200FC01E25CFF4F0C94A00881E080934504AF
:1001C20089C081E08093450447C080911F38823303
:1001D20008F475C010921F3881E08093450482E0D4
:1001E200809347047AC080912038823008F058C04A
:1001F20017C080912038843008F052C011C080911D
:100202002038863008F04CC00BC0809120388830EE
:1002120008F046C005C0809120388A3008F040C0FE
:1002220080911F38823330F480911F388F5F809322
:100232001F3807C010921F38809120388F5F80933B
:1002420020388091203880FF2BC081E080934504C4
:1002520023C081E08093460482E0809346043DC03F
:10026200809120388230E0F480911F38823330F45C
:1002720080911F388F5F80931F3807C010921F38FC
:10028200809120388F5F809320388091203880FFC2
:1002920007C081E08093460482E0809346041FC039
:1002A20081E08093450482E08093450418C081E098
:1002B200809346040FC080911F38823330F48091BE
:1002C2001F388F5F80931F3808C010921F3881E05B
:1002D2008093470482E080934504109220388091F5
:1002E2001D3880931E3880912138539B3AC020914B
:1002F2000338309104382F30310558F420910338F7
:10030200309104382F5F3F4F2093033830930438E5
:1003120003C091E090930838109213381092143869
:100322001092173810921838833009F04FC020917C
:10033200193830911A382C32314058F4209119383A
:1003420030911A382F5F3F4F2093193830931A3863
:100352003DC01092193810921A3891E090931C38CF
:1003620035C01092033810920438909108389923BE
:1003720079F091E09093073820911638283030F4C4
:10038200909116389F5F9093163802C0909312385E
:10039200109208381092193810921A382091173892
:1003A20030911838283C310558F420911738309193
:1003B20018382F5F3F4F209317383093183806C0F4
:1003C200109216381092173810921838529B31C07A
:1003D20020910538309106382F30310558F420919C
:1003E2000538309106382F5F3F4F20930538309300
:1003F200063803C091E090930A388230A9F4209124
:100402000B3830910C38243F314058F420910B388E
:1004120030910C382F5F3F4F20930B3830930C38BC
:1004220003C091E090930D38109213381092143853
:100432001AC0109205381092063890910A38992302
:1004420019F091E09093093810920A3810920B3803
:1004520010920C3890910D38992319F091E09093F5
:100462000E3810920D388330A9F480911338909190
:100472001438883B9B4050F4809113389091143883
:100482000196809313389093143831C081E08093A1
:1004920015382DC010921338109214381092153856
:1004A200823029F580912C3890912D38A0912E38E8
:1004B200B0912F3880329F4BA240B105A0F48091B9
:1004C2002C3890912D38A0912E38B0912F3801966A
:1004D200A11DB11D80932C3890932D38A0932E38F6
:1004E200B0932F380EC081E0809330380AC010924A
:1004F2002C3810922D3810922E3810922F381092DC
:10050200303880912538882351F180912638909196
:10051200273885329940E0F480912B38843130F4C9
:1005220080912B388F5F80932B3803C081E08093BA
:10053200283880912838882369F080912638909154
:100542002738893B984030F481E08093293802C0F3
:1005520010922B3885E00E948E08109225388091E7
:100562002138813069F490913138943630F4809199
:1005720031388F5F8093313805C08093323802C0A2
:1005820010923138E0914A38F0914B38309709F0A7
:10059200099581E08093460AFF91EF91BF91AF9157
:1005A2009F918F917F916F915F914F913F912F9189
:0A05B2000F900FBE0F901F901895D8
:1005BC000E94210810921D38109207381092213891
:1005CC001092223884E080932438109228381092AC
:1005DC00293810922A38109232381092313880E033
:1005EC0090E00E94AF08809361388F3F19F484E14A
:1005FC0090E001C090E080934C3890934D38C1E06E
:10060C001EE384E1E82EF12C98E0D92EDBE029E002
:10061C00C22E04E032E0B32E46E0A42E57E0952E15
:10062C0080912138823009F444C028F4882351F099
:10063C00813089F0F7CF833009F4FCC0843009F4A1
:10064C0068C1F0CFC0921D3880912038823040F3C1
:10065C00C0932138E5CF80912838882319F0D093A6
:10066C001D3802C010921D3810922A3810920006C4
:10067C0080911238882331F01092123883E08093E5
:10068C0021380AC080910738882361F0109207380E
:10069C00B092213810922238C093000685E00E9457
:1006AC008E0805C08091323881110093213843E0C7
:1006BC002AC1C0932A3880912238823019F128F44B
:1006CC00882349F0813071F062C0833051F184305D
:1006DC0009F441C05CC080912838811140C09092CF
:1006EC001D3842C080912838882319F0D0931D38CA
:1006FC0003C083E080931D3880914C3890914D3825
:10070C0003971EC080912838882319F0D0931D3888
:10071C0002C000931D3880914C3890914D3802974F
:10072C000FC080912838882319F0D0931D3803C04E
:10073C0085E080931D3880914C3890914D3801970D
:10074C0080935A3890935B38189F9001199F300D05
:10075C001124C90116C080912838882319F0D09330
:10076C001D3802C0A0921D3820914C3830914D3864
:10077C0020935A3830935B38129FC001139F900D11
:10078C0011248F519B4F8093503890935138809106
:10079C000E38882349F010920E38109209380093C5
:1007AC002438009322381CC0809109388823C1F06A
:1007BC001092093880912438843020F48F5F809314
:1007CC00243802C0C0932438809124388093223876
:1007DC0010922C3810922D3810922E3810922F38EF
:1007EC0080910738882319F01092073804C0809143
:1007FC002938882319F0C093213884C0809130386F
:10080C00882369F0C09321381092303810922C381C
:10081C0010922D3810922E3810922F3873C0809170
:10082C001238882309F46EC01092123883E080933A
:10083C00213868C0C0932A3880912838882319F051
:10084C00D0931D3802C0D0921D3880910738882370
:10085C0099F01092073880914C3890914D3844970C
:10086C0030F480914C3890914D38019616C0E0923E
:10087C004C38F0924D3837C0809109388823B9F044
:10088C001092093880914C3890914D38892B51F049
:10089C0080914C3890914D38019780934C389093BF
:1008AC004D3821C010924C3810924D381CC080919C
:1008BC001C38882319F010921C380BC08091153805
:1008CC00882319F01092153804C080912938882398
:1008DC0051F0C093213860914C3870914D3880E0C4
:1008EC0090E00E940B0820914C3830914D38129FAB
:1008FC00C001139F900D11248F519B4F8093503842
:10090C009093513840E068ED80E590E00E94AB0890
:0E091C0087CE889580913238811182CE99CE97
:10092A001F920F920FB60F9211242F933F938F931A
:10093A009F93EF93FF9380912A38882309F4E3C0A9
:10094A00E0914E38F0914F38E830F10508F0E5C0F3
:10095A00E65BFF4F0C94A00887E791E080932A0A90
:10096A0090932B0A8BE28093010A109254381092CA
:10097A005538809150389091513896958795809343
:10098A0052389093533881E090E05CC0809160388F
:10099A00823020F5809160388F5F80936038209193
:1009AA0054383091553880915038909151382817E1
:1009BA00390758F42091543830915538809152387B
:1009CA0090915338820F931F04C0809150389091B0
:1009DA005138809354389093553866C08091503876
:1009EA0090915138809354389093553882E090E032
:1009FA0057C0809154389091553880932A0A909321
:100A0A002B0A83E090E061C0809156389091573864
:100A1A0047970CF46EC084E090E057C0809150383C
:100A2A00909151388093543890935538809150382A
:100A3A009091513896958795809352389093533870
:100A4A0085E090E080934E3890934F38109260384A
:100A5A0064C08091603881111BC0809160388F5FBB
:100A6A0080936038209154383091553880915238AB
:100A7A009091533882179307B8F480915438909123
:100A8A0055382091523830915338821B930BA1CF9D
:100A9A0087E791E0809354389093553886E090E048
:100AAA0080934E3890934F388091543890915538AE
:100ABA0080932A0A90932B0A30C010922A0A109225
:100ACA002B0A1092010A87E090E080934E389093A7
:100ADA004F380AC08091563890915738C3974CF0D6
:100AEA0010924E3810924F3810925638109257384A
:100AFA0014C0809156389091573801968093563891
:100B0A00909357380AC010922A0A10922B0A109210
:100B1A00010A10924E3810924F3881E080935301A7
:100B2A00FF91EF919F918F913F912F910F900FBE5F
:060B3A000F901F901895BA
:100B4000CF93DF930E94D807C0E0D4E08EED888376
:100B5000A0E2B4E08FE38C93E0E4F4E083E08083F0
:100B60001C8214961C9214978483188A198A1A8AF4
:100B70001B8A1C8A1D8A1E8A1F8A50961C925097B7
:100B800051961C92519752961C92529753961C92D2
:100B9000539754961C92549755961C925597569677
:100BA0001C92569757961C92108A118A128A81E0DD
:100BB000838B148A158A168A178AE0E0F2E0108285
:100BC00011821282138286EA98E0809340389093D3
:100BD00041388AEB98E080933E3890933F388BEB16
:100BE00098E080933C3890933D3889EB98E080936F
:0C0BF0003A3890933B38DF91CF91089584
:100BFC001F920F920FB60F9211242F933F934F9386
:100C0C005F936F937F938F939F93AF93BF93EF9368
:100C1C00FF935B9B05C0E0914038F09141380995FA
:100C2C00589B05C0E0913E38F0913F3809955A9B8E
:100C3C0005C0E0913C38F0913D380995599B05C0B1
:100C4C00E0913A38F0913B3809958FEF8BB9FF91D1
:100C5C00EF91BF91AF919F918F917F916F915F9128
:100C6C004F913F912F910F900FBE0F901F901895A1
:100C7C001F920F920FB60F9211242F933F934F9305
:100C8C005F936F937F938F939F93AF93BF93EF93E8
:100C9C00FF938091430180FF07C0E0915E38F09193
:100CAC005F38309709F009958091430181FF07C0A7
:100CBC00E0915C38F0915D38309709F0099583E04C
:100CCC0080934301FF91EF91BF91AF919F918F91D1
:100CDC007F916F915F914F913F912F910F900FBE2C
:060CEC000F901F90189507
:100CF2001F920F920FB60F9211242F933F934F938F
:100D02005F936F937F938F939F93AF93BF93EF9371
:100D1200FF93E0914838F0914938309709F00995EE
:100D220080E180930B0AFF91EF91BF91AF919F9168
:100D32008F917F916F915F914F913F912F910F9082
:080D42000FBE0F901F901895E1
:100D4A001F920F920FB60F9211242F933F934F9336
:100D5A005F936F937F938F939F93AF93BF93EF9319
:100D6A00FF93E0914638F0914738309709F009959A
:100D7A0080E280930B0AFF91EF91BF91AF919F910F
:100D8A008F917F916F915F914F913F912F910F902A
:080D9A000FBE0F901F90189589
:100DA2001F920F920FB60F9211242F933F934F93DE
:100DB2005F936F937F938F939F93AF93BF93EF93C1
:100DC200FF93E0914438F0914538309709F0099546
:100DD20080E480930B0AFF91EF91BF91AF919F91B5
:100DE2008F917F916F915F914F913F912F910F90D2
:080DF2000FBE0F901F90189531
:100DFA001F920F920FB60F9211242F933F934F9386
:100E0A005F936F937F938F939F93AF93BF93EF9368
:100E1A00FF93E0914238F0914338309709F00995F1
:100E2A0081E080930B0AFF91EF91BF91AF919F915F
:100E3A008F917F916F915F914F913F912F910F9079
:080E4A000FBE0F901F901895D8
:100E52001F920F920FB60F9211242F933F934F932D
:100E62005F936F937F938F939F93AF93BF93EF9310
:100E7200FF93E0915838F0915938309709F009956D
:100E820082E080930B06FF91EF91BF91AF919F910A
:100E92008F917F916F915F914F913F912F910F9021
:080EA2000FBE0F901F90189580
:100EAA00809141018111FCCF10924C0110924D01A9
:100EBA0010924801109249018FEF9FEF80934A01E7
:100ECA0090934B01109247011092450110924201F2
:100EDA0081E5809350011092550181E0809352017F
:080EEA008093400180E00895AF
:100EF200E0E0FAE010A611A612A613A614A615A603
:100F020010A211A28BE2818387E082831382148272
:100F1200158216821782168611861286138683EC34
:100F220099E086A397A3178681E0808380E00895E5
:100F320060E088E790E00E94B30860E08CE790E010
:100F42000E94B30860E080E790E00E94B3086BE083
:100F520081E690E00E94B30860E080E690E00E94A3
:100F6200B30860E082E690E00E94B30880E0089552
:100F72001F920F920FB60F9211242F933F938F93CC
:100F8200EF93FF93E0E0F6E081E0838720893189E7
:100F9200E1E2F8E3258336838483FF91EF918F9119
:0E0FA2003F912F910F900FBE0F901F9018954A
:100FB000E0E1F4E0808188608193E83184E0F80723
:100FC000C9F7E0E3F4E0808188608193E83384E04E
:100FD000F807C9F7E0E5F4E0808188608193E8359F
:080FE00084E0F807C9F7089549
:100FE800E0E0F6E0168A83E0818380E18283138261
:100FF80014821486118681E08287168288E08583B0
:0E100800148A158A128A138A108280E00895D5
:101016001F93CF93DF93EC01162F8091021081FD71
:10102600FCCF84E00E949408DC5E188383E00E9473
:0C103600940880E0DF91CF911F91089595
:101042000E94A0050E9475080E9487080E948008DD
:101052000E9499070E94F4070E949A080E94790749
:0C1062000E9455070E9468080C94370893
:10106E00E0E4FAE083EC99E0848795871286138694
:10107E0011821086148281E085831682118685E1A5
:06108E00808380E008955C
:101094001F920F920FB60F9211248F9381E08093C9
:0E10A40004108F910F900FBE0F901F901895A3
:1010B2001F920F920FB60F9211248F9381E08093AB
:0E10C2008A008F910F900FBE0F901F9018950F
:1010D00040E068ED80E191E00E94AB08E0E1F1E0E2
:0A10E00012821382789480E00895D4
:1010EA0060E080E890E00E94B308E0E8F0E0118652
:0610FA00108680E008955D
:0E11000060E080E590E00E94B30880E0089572
:0E110E0060E080E091E00E94B30880E0089568
:0C111C00E0E0F6E0868381E08087089523
:0C112800482F6DE980E090E10C94AB08CA
:0C113400E0E0F0E11182138280E00895F9
:0C114000EE0FFF1F0590F491E02D0994C4
:0A114C00E1E2F8E3118A108A089529
:08115600FC0164BF4083089511
:08115E009C5EFC0180810895F4
:08116600462F68ED0C94AB0864
:04116E000C940000DD
:021172000895DE
:021174000895DC
:021176000895DA
:021178000895D8
:02117A000895D6
:02117C000895D4
:02117E000895D2
:02118000BC08A9
:02118200BD08A6
:02118400BF08A2
:02118600BE08A1
:0211880006005F
:02118A00E1047E
:02000004008278
:090000000000010000C40700002B
:00000001FF
