:100000000C9453000C9447060C94CB050C944706B3
:100010000C9447060C94A3040C9447060C944706D2
:100020000C9447060C9447060C9447060C9447061C
:100030000C9447060C947D000C9447060C944706DC
:100040000C9447060C9447060C9447060C944706FC
:100050000C942F050C94E3040C9447060C9447066B
:100060000C9447060C9447060C9447060C944706DC
:100070000C9447060C9447060C94BC05B200B600DD
:10008000BA00C800CE00D400DA00E000FE0005018E
:100090002C013001380038408038403844000C983A
:1000A00038443849800011241FBECFEFCDBFDFE3B5
:1000B000DEBFE4E9F0E040E017C0B591A5913591CD
:1000C0002591059107FD0CC095918591EF01F92FC0
:1000D000E82F05900D92A217B307D9F7FE0104C0CF
:1000E0001D92A217B307E1F7E53AF40731F70E9432
:0A00F000B5020C947B00F894FFCFDA
:1000FA001F920F920FB60F9211242F933F934F9393
:10010A005F936F937F938F939F93AF93BF93EF9375
:10011A00FF9380E28093250480912A38882329F06E
:10012A00809140389091413804C010924038109222
:10013A00413890911E3880911D38981310922038BA
:10014A00E0911D388E2F90E08C30910508F097C011
:10015A00FC01E25CFF4F0C94220681E08093450487
:10016A0089C081E08093450447C080911F3882335B
:10017A0008F475C010921F3881E08093450482E02C
:10018A00809347047AC080912038823008F058C0A2
:10019A0017C080912038843008F052C011C0809175
:1001AA002038863008F04CC00BC080912038883047
:1001BA0008F046C005C0809120388A3008F040C057
:1001CA0080911F38823330F480911F388F5F80937B
:1001DA001F3807C010921F38809120388F5F809394
:1001EA0020388091203880FF2BC081E0809345041D
:1001FA0023C081E08093460482E0809346043DC098
:10020A00809120388230E0F480911F38823330F4B4
:10021A0080911F388F5F80931F3807C010921F3854
:10022A00809120388F5F809320388091203880FF1A
:10023A0007C081E08093460482E0809346041FC091
:10024A0081E08093450482E08093450418C081E0F0
:10025A00809346040FC080911F38823330F4809116
:10026A001F388F5F80931F3808C010921F3881E0B3
:10027A008093470482E0809345041092203880914D
:10028A001D3880931E3880912138539B3AC02091A3
:10029A000338309104382F30310558F4209103384F
:1002AA00309104382F5F3F4F20930338309304383E
:1002BA0003C091E0909308381092133810921438C2
:1002CA001092173810921838833009F04FC02091D5
:1002DA00193830911A382C32314058F42091193893
:1002EA0030911A382F5F3F4F2093193830931A38BC
:1002FA003DC01092193810921A3891E090931C3828
:10030A0035C0109203381092043890910838992316
:10031A0079F091E09093073820911638283030F41C
:10032A00909116389F5F9093163802C090931238B6
:10033A00109208381092193810921A3820911738EA
:10034A0030911838283C310558F4209117383091EB
:10035A0018382F5F3F4F209317383093183806C04C
:10036A00109216381092173810921838529B31C0D2
:10037A0020910538309106382F30310558F42091F4
:10038A000538309106382F5F3F4F20930538309358
:10039A00063803C091E090930A388230A9F420917C
:1003AA000B3830910C38243F314058F420910B38E7
:1003BA0030910C382F5F3F4F20930B3830930C3815
:1003CA0003C091E090930D381092133810921438AC
:1003DA001AC0109205381092063890910A3899235B
:1003EA0019F091E09093093810920A3810920B385C
:1003FA0010920C3890910D38992319F091E090934E
:10040A000E3810920D388330A9F4809113389091E8
:10041A001438883B9B4050F48091133890911438DB
:10042A000196809313389093143831C081E08093F9
:10043A0015382DC0109213381092143810921538AE
:10044A00823029F580912C3890912D38A0912E3840
:10045A00B0912F3880329F4BA240B105A0F4809111
:10046A002C3890912D38A0912E38B0912F380196C2
:10047A00A11DB11D80932C3890932D38A0932E384E
:10048A00B0932F380EC081E0809330380AC01092A2
:10049A002C3810922D3810922E3810922F38109234
:1004AA00303880912538882351F1809126389091EF
:1004BA00273885329940E0F480912B38843130F422
:1004CA0080912B388F5F80932B3803C081E0809313
:1004DA00283880912838882369F0809126389091AD
:1004EA002738893B984030F481E08093293802C04C
:1004FA0010922B3885E00E941006109225388091C0
:10050A002138813069F490913138943630F48091F1
:10051A0031388F5F8093313805C08093323802C0FA
:10052A0010923138E0913C38F0913D38309709F01B
:10053A00099581E08093460A80E280932604FF9120
:10054A00EF91BF91AF919F918F917F916F915F9141
:10055A004F913F912F910F900FBE0F901F901895BA
:10056A000E94AA0510921D3810920738109221385D
:10057A001092223884E080932438109228381092FE
:10058A00293810922A38109232381092313880E085
:10059A0090E00E943B06809348388F3F19F484E12B
:1005AA0090E001C090E080933E3890933F38C1E0DC
:1005BA001EE384E1E82EF12C98E0D92EDBE029E055
:1005CA00C22E04E032E0B32E46E0A42E57E0952E68
:1005DA0080912138823009F443C028F4882351F0ED
:1005EA00813089F0F7CF833009F4E1C0843009F40F
:1005FA0040C1F0CFC0921D3880912038823040F33C
:10060A00C0932138E5CF0E94430619F0D0931D38D4
:10061A0002C010921D3810922A381092000680915A
:10062A001238882331F01092123883E080932138EF
:10063A000AC080910738882361F010920738B09277
:10064A00213810922238C093000685E00E941006D5
:10065A0005C08091323881110093213843E003C1EB
:10066A00C0932A3880912238823001F128F48823F5
:10067A0049F0813071F054C0833021F1843009F49B
:10068A0038C04EC080912838811136C090921D38EA
:10069A0038C00E94430619F0D0931D3803C083E086
:1006AA0080931D380E942D06039718C00E944306A6
:1006BA0019F0D0931D3802C000931D380E942D06F0
:1006CA0002970CC00E94430619F0D0931D3803C04C
:1006DA0085E080931D380E942D0601978093463845
:1006EA0090934738189F9001199F300D1124C90122
:1006FA0015C00E94430619F0D0931D3802C0A0927B
:10070A001D3820913E3830913F3820934638309337
:10071A004738129FC001139F900D11240E940906A9
:10072A0080910E38882349F010920E3810920938B9
:10073A00009324380093223816C080910938882300
:10074A0091F01092093880912438843020F48F5F18
:10075A008093243802C0C09324388091243880932F
:10076A0022380E94F20580910738882319F01092E6
:10077A00073804C080912938882319F0C09321389A
:10078A0071C080913038882339F0C0932138109293
:10079A0030380E94F20566C080911238882309F425
:1007AA0061C01092123883E0809321385BC0C093F5
:1007BA002A380E94430619F0D0931D3802C0D092FD
:1007CA001D3880910738882379F0109207380E94E3
:1007DA003206449720F40E943206019612C0E09233
:1007EA003E38F0923F3833C080910938882399F017
:1007FA00109209380E943206892B41F00E94320673
:10080A00019780933E3890933F3821C010923E382A
:10081A0010923F381CC080911C38882319F010921E
:10082A001C380BC080911538882319F0109215389E
:10083A0004C080912938882351F0C09321386091EF
:10084A003E3870913F3880E090E00E948105209107
:10085A003E3830913F38129FC001139F900D1124EA
:10086A000E94090640E068ED80E590E00E943706A4
:0E087A00AFCE8895809132388111AACEC1CEC2
:10088800CF93DF930E944E05C0E0D4E08EED8883BD
:10089800A0E2B4E08FE38C93E0E4F4E083E08083AB
:1008A8001C8214961C9214978483188A198A1A8AAF
:1008B8001B8A1C8A84E08D8B1E8A1F8A50961C9284
:1008C800509751961C92519752961C925297539654
:1008D8001C92539754961C92549755961C92559770
:1008E80056961C92569757961C92108A118A128A0D
:1008F80081E0838B148A158A168A178AE0E0F2E071
:10090800108211821282138288E296E080933A382C
:1009180090933B388AE496E080933838909339383E
:100928008BE496E0809336389093373889E496E0E4
:0E0938008093343890933538DF91CF91089535
:100946001F920F920FB60F9211242F933F934F933E
:100956005F936F937F938F939F93AF93BF93EF9321
:10096600FF935B9B05C0E0913A38F0913B380995BF
:10097600589B05C0E0913838F091393809955A9B53
:1009860005C0E0913638F09137380995599B05C076
:10099600E0913438F091353809958FEF8BB9FF9196
:1009A600EF91BF91AF919F918F917F916F915F91E1
:1009B6004F913F912F910F900FBE0F901F9018955A
:1009C6001F920F920FB60F9211242F933F934F93BE
:1009D6005F936F937F938F939F93AF93BF93EF93A1
:1009E600FF93E0914438F0914538309709F0099526
:1009F60082E080930B06FF91EF91BF91AF919F919B
:100A06008F917F916F915F914F913F912F910F90B1
:080A16000FBE0F901F90189510
:100A1E0060E088E790E00E943F0660E08CE790E09F
:100A2E000E943F0660E080E790E00E943F066AE089
:100A3E0081E690E00E943F0660E080E690E00E9432
:100A4E003F0660E082E690E00E943F0680E0089557
:100A5E001F920F920FB60F9211242F933F938F93E5
:100A6E00EF93FF93E0E0F6E081E083872089318900
:100A7E00E1E2F8E3258336838483FF91EF918F9132
:0E0A8E003F912F910F900FBE0F901F90189563
:100A9C00E0E1F4E0808188608193E83184E0F8073C
:100AAC00C9F7E0E3F4E0808188608193E83384E067
:100ABC00F807C9F7E0E5F4E0808188608193E835B8
:080ACC0084E0F807C9F7089562
:100AD400E0E0F6E0168A83E0818380E1828313827A
:100AE40014821486118681E08287168288E08583C9
:0E0AF400148A158A128A138A108280E00895EF
:100B02001F93CF93DF93EC01162F8091021081FD8A
:100B1200FCCF84E00E941606DC5E188383E00E940C
:0C0B2200160680E0DF91CF911F9108952E
:100B2E00E0E4FAE083EF91E08487958712861386DE
:100B3E0011821086148281E085831682118681E1EE
:060B4E00808380E00895A1
:100B54000E9444040E94E7050E9402060E940F05B9
:100B64000E94FB050E946A050E941C060E94DA0589
:040B74000C94970541
:100B78001F920F920FB60F9211248F9381E08093EA
:0E0B880004108F910F900FBE0F901F901895C4
:100B96001F920F920FB60F9211248F9381E08093CC
:0E0BA6008A008F910F900FBE0F901F90189530
:100BB40040E068ED80E191E00E943706E0E1F1E079
:0A0BC40012821382789480E00895F5
:100BCE0060E080E890E00E943F06E0E8F0E01186E9
:060BDE00108680E008957E
:100BE40010922C3810922D3810922E3810922F38E3
:020BF400089562
:0E0BF60060E080E590E00E943F0680E00895F8
:0E0C040060E080E091E00E943F0680E00895ED
:0E0C12008F519B4F8093423890934338089542
:0C0C2000E0E0F6E0868381E08087089524
:0C0C2C00482F6DE980E090E10C94370641
:0C0C3800E0E0F0E11182138280E00895FA
:0C0C4400EE0FFF1F0590F491E02D0994C5
:0A0C5000E1E2F8E3118A108A08952A
:0A0C5A0080913E3890913F380895D4
:0A0C640080913E3890913F380895CA
:080C6E00FC0164BF40830895FE
:080C76009C5EFC0180810895E1
:080C7E00462F68ED0C943706C7
:080C86008091283888230895AD
:040C8E000C940000C2
:020C92000895C3
:020C94000895C1
:020C96000895BF
:020C9800060054
:020C9A00E10473
:02000004008278
:090000000000010000C40700002B
:00000001FF
