:100000000C948F000C94E80B0C94240A0C94E80BCD
:100010000C94E80B0C94E80B0C94E80B0C94E80B94
:100020000C9426090C94E80B0C9472080C94AE08FE
:100030000C94EA080C94B9000C94E80B0C94E80BAF
:100040000C94E80B0C94E80B0C94E80B0C94E80B64
:100050000C94D0090C9462090C94E80B0C94E80BF6
:100060000C94E80B0C94E80B0C94E80B0C94E80B44
:100070000C94E80B0C94E80B0C94E80BEE00FB00DE
:10008000080121015F019D01DB0119025702640291
:10009000A202AF02B003C903FB030F042B04480400
:1000A0007804880438243826803826382880382870
:1000B000382A80382A382C80382C382E80382E3830
:1000C00030803830383280383238348038343836FE
:1000D0000017D4383638380017D63838383A001771
:1000E000D8383A383C0017DA383C383E80383E3849
:1000F00040803840384280384238440017DC384469
:1001000038460017DE38463848803848384A803844
:1001100000382480384A384C80384C384E801124BE
:100120001FBECFEFCDBFDFE3DEBFE4EAF0E041E08A
:1001300017C0B591A59135912591059107FD0CC08A
:1001400095918591EF01F92FE82F05900D92A21757
:10015000B307D9F7FE0104C01D92A217B307E1F758
:10016000EE31F40731F70E9401050C94B700F894C2
:02017000FFCFBF
:100172001F920F9200903F000F9211242F933F93F2
:100182004F935F936F937F938F939F93AF93BF939D
:10019200EF93FF93CF93DF93CDB7DEB790911538EE
:1001A20080911438981711F01092173880911438F2
:1001B200882F90E0092E000CAA0BBB0B40E050E008
:1001C2002BE030E0841B950B2817390708F4DFC1B8
:1001D200825C9F4FFC010C94DE0B85E494E021E0ED
:1001E200FC01208385E494E022E0FC01208310924C
:1001F2001738CEC185E494E021E0FC01208386E437
:1002020094E022E0FC01208310921738C1C1809152
:1002120016388F3130F4809116388F5F80931638FC
:100222000CC01092163885E494E021E0FC01208392
:1002320087E494E022E0FC01208310921738A8C1E1
:1002420080911738823078F5809116388F3130F4EA
:10025200809116388F5F8093163807C01092163837
:10026200809117388F5F8093173880911738882FC5
:1002720090E081709927892B59F485E494E021E07C
:10028200FC01208385E494E022E0FC01208380C10C
:1002920085E494E021E0FC01208386E494E022E0FE
:1002A200FC01208375C185E494E021E0FC012083F8
:1002B20085E494E022E0FC0120836AC18091173832
:1002C200843078F5809116388F3130F48091163869
:1002D2008F5F8093163807C01092163880911738B6
:1002E2008F5F8093173880911738882F90E0817044
:1002F2009927892B59F485E494E021E0FC012083BD
:1003020085E494E022E0FC01208342C185E494E08C
:1003120021E0FC01208386E494E022E0FC012083BA
:1003220037C185E494E021E0FC01208385E494E078
:1003320022E0FC0120832CC180911738863078F5A9
:10034200809116388F3130F4809116388F5F809308
:10035200163807C010921638809117388F5F809335
:10036200173880911738882F90E081709927892B50
:1003720059F485E494E021E0FC01208385E494E0D3
:1003820022E0FC01208304C185E494E021E0FC0129
:10039200208386E494E022E0FC012083F9C085E416
:1003A20094E021E0FC01208385E494E022E0FC015A
:1003B2002083EEC080911738883078F58091163806
:1003C2008F3130F4809116388F5F8093163807C0D2
:1003D20010921638809117388F5F8093173880916A
:1003E2001738882F90E081709927892B59F485E47A
:1003F20094E021E0FC01208385E494E022E0FC010A
:100402002083C6C085E494E021E0FC01208386E4D9
:1004120094E022E0FC012083BBC085E494E021E06B
:10042200FC01208385E494E022E0FC012083B0C03B
:10043200809117388A3078F5809116388F3130F4F0
:10044200809116388F5F8093163807C01092163845
:10045200809117388F5F8093173880911738882FD3
:1004620090E081709927892B59F485E494E021E08A
:10047200FC01208385E494E022E0FC01208388C013
:1004820085E494E021E0FC01208386E494E022E00C
:10049200FC0120837DC085E494E021E0FC012083FF
:1004A20085E494E022E0FC01208372C086E494E0BB
:1004B20021E0FC01208386E494E022E0FC01208319
:1004C2001092173865C080911738823078F5809184
:1004D20016388F3130F4809116388F5F809316383A
:1004E20007C010921638809117388F5F80931738A3
:1004F20080911738882F90E081709927892B59F4C1
:1005020085E494E021E0FC01208385E494E022E08C
:10051200FC0120833DC086E494E021E0FC012083BD
:1005220086E494E022E0FC01208332C085E494E07A
:1005320021E0FC01208385E494E022E0FC01208399
:1005420027C086E494E021E0FC01208385E494E066
:1005520022E0FC012083109217381AC080911638CD
:100562008F3130F4809116388F5F809316380CC02B
:100572001092163887E494E021E0FC01208385E4A0
:1005820094E022E0FC0120831092173801C00000A1
:10059200809114388093153888E090E0FC018281C4
:1005A200882F90E088709927892BF9F088E090E0F5
:1005B200FC018281882F90E084709927892BA9F011
:1005C20080910D3890910E388833914050F480918B
:1005D2000D3890910E38019680930D3890930E3815
:1005E20011C081E080930F380DC010920D38109227
:1005F2000E3880910F38882319F081E080931038EB
:1006020010920F3888E090E0FC018281882F90E000
:1006120088709927892B91F080910338833130F4C7
:10062200809103388F5F8093033803C081E0809309
:10063200063810921138109212380BC010920338FB
:1006420080910638882319F081E080930538109252
:10065200063888E090E0FC018281882F90E0847067
:100662009927892B51F180910438833130F480919C
:1006720004388F5F8093043803C081E08093083888
:10068200809118388230A1F48091093890910A380B
:100692008833914050F48091093890910A3801963C
:1006A2008093093890930A3803C081E080930B3815
:1006B200109211381092123818C01092043880919A
:1006C2000838882319F081E080930738109208389F
:1006D2001092093810920A3880910B38882319F049
:1006E20081E080930C3810920B3880911838833057
:1006F200A9F480911138909112388335974050F4C3
:10070200809111389091123801968093113890930C
:1007120012380AC081E08093133806C01092113853
:10072200109212381092133880912138882309F4DC
:1007320008C18091443890914538CC01A0E0B0E0E6
:1007420040E050E027E030E0841B950B2817390782
:1007520008F401C1865B9F4FFC010C94DE0B1092E2
:100762003E3810923F3880914238909143389695A6
:10077200879596958795969587958093403890931F
:10078200413881E090E08093443890934538E4C04A
:1007920020913E3830913F388091423890914338D1
:1007A2008217930778F4809142389091433880936E
:1007B2003E3890933F3882E090E0809344389093A3
:1007C20045380EC020913E3830913F3880914038F4
:1007D20090914138820F931F80933E3890933F3817
:1007E20080E09AE020913E3830913F38FC0122A708
:1007F20033A7B2C080E09AE020913E3830913F3872
:10080200FC0122A733A783E090E0809344389093C1
:10081200453810923C3810923D389EC080913C3849
:1008220090913D38863C91055CF084E090E08093A5
:1008320044389093453810923C3810923D388CC021
:1008420080913C3890913D38019680933C3890934A
:100852003D3882C0809142389091433880933E382F
:1008620090933F388091423890914338969587957E
:1008720096958795969587958093403890934138C1
:1008820085E090E0809344389093453865C020918C
:100892003E3830913F3880914038909141388217EC
:1008A200930788F420913E3830913F388091403848
:1008B20090914138A901481B590BCA0180933E38D7
:1008C20090933F380AC010923E3810923F3886E02B
:1008D20090E0809344389093453880E09AE02091EC
:1008E2003E3830913F38FC0122A733A735C080E063
:1008F2009AE0FC0112A613A687E090E080934438A8
:100902009093453810923C3810923D3825C0809122
:100912003C3890913D388D3691054CF01092443818
:100922001092453810923C3810923D3815C0809193
:100932003C3890913D38019680933C3890933D38F5
:100942000BC080E09AE0FC0112A613A61092443874
:100952001092453801C0000080911C38882351F163
:1009620080911D3890911E388B349A40E0F480912A
:1009720022388D3030F4809122388F5F8093223874
:1009820003C081E080931F3880911F38882369F06B
:1009920080911D3890911E38833D994030F481E05A
:1009A2008093203802C01092223885E00E94B70A54
:1009B20010921C388091483890914938892B31F037
:1009C2008091483890914938FC01099580E49AE079
:1009D20021E0FC0126830000DF91CF91FF91EF918E
:1009E200BF91AF919F918F917F916F915F914F9145
:1009F2003F912F910F9000923F000F901F901895FA
:100A0200CF93DF93CDB7DEB70E94460A1092143817
:100A120010920538109218381092193884E0809399
:100A22001B3810921F381092203810922138809172
:100A32001838882F90E08230910509F44BC083303A
:100A420091052CF4009759F00197A9F0A5C18330C4
:100A5200910509F445C1049709F497C19DC189E044
:100A62008093143880911738823008F490C181E065
:100A7200809318388CC1109214381092213880E07B
:100A820096E0FC01108280911038882371F0109258
:100A9200103883E08093183880E096E021E0FC0172
:100AA200208385E00E94B70A74C1809105388823AB
:100AB20009F46FC11092053882E0809318381092C1
:100AC200193880E096E021E0FC01208385E00E9455
:100AD200B70A5FC181E08093213880911938882F4D
:100AE20090E08230910509F457C0833091052CF4CF
:100AF200009759F0019761F1BAC08330910509F46A
:100B02006FC0049709F490C0B2C080911F38882347
:100B120021F08BE08093143803C087E0809314386F
:100B2200809146389091473880934A3890934B3859
:100B320080914A3890914B384496880F991F880FBC
:100B4200991F880F991F80934238909343388FC022
:100B520080911F38882321F08BE08093143803C0E2
:100B620083E08093143880914638909147380397F8
:100B720080934A3890934B3880914A3890914B3801
:100B82004496880F991F880F991F880F991F809389
:100B92004238909343386BC080911F38882321F0EC
:100BA2008BE08093143803C084E0809314388091E2
:100BB200463890914738029780934A3890934B3841
:100BC20080914A3890914B384496880F991F880F2C
:100BD200991F880F991F809342389093433847C0DA
:100BE20080911F38882321F08BE08093143803C052
:100BF20085E0809314388091463890914738019768
:100C020080934A3890934B3880914A3890914B3870
:100C12004496880F991F880F991F880F991F8093F8
:100C220042389093433823C080911F38882321F0A3
:100C32008BE08093143803C086E08093143880914F
:100C420046389091473880934A3890934B38809138
:100C52004A3890914B384496880F991F880F991FF4
:100C6200880F991F809342389093433800008091F7
:100C72000C38882359F010920C381092073884E00F
:100C820080931B3884E08093193817C0809107380D
:100C9200882399F01092073880911B38843030F401
:100CA20080911B388F5F80931B3803C081E0809353
:100CB2001B3880911B38809319388091053888231E
:100CC20031F01092053881E08093183864C0809129
:100CD2002038882309F45FC081E0809318385BC014
:100CE20081E08093213888E0809314388091053820
:100CF200882391F0109205388091463890914738B8
:100D0200449798F5809146389091473801968093A0
:100D120046389093473829C080910738882391F04C
:100D2200109207388091463890914738892BE9F024
:100D32008091463890914738019780934638909336
:100D4200473813C080911038882331F01092103840
:100D520081E08093183809C080911338882329F0E4
:100D62001092133881E08093183880914638909120
:100D720047384496880F991F880F991F880F991F2B
:100D8200809342389093433807C0000050CE000051
:0A0D92004ECE00004CCE00004ACE09
:100D9C00CF93DF93CDB7DEB70E94DE0780E094E0FF
:100DAC002EEDFC01208380E294E02FE3FC012083F4
:100DBC0080E494E023E0FC01208380E094E0FC01DB
:100DCC00148280E294E0FC01148280E494E023E03D
:100DDC00FC01248380E094E0FC01108A80E094E024
:100DEC00FC01118A80E094E0FC01128A80E094E01E
:100DFC00FC01138A80E094E0FC01148A80E094E00A
:100E0C00FC01158A80E094E0FC01168A80E094E0F5
:100E1C00FC01178A80E294E0FC01108A80E294E0E5
:100E2C00FC01118A80E294E0FC01128A80E294E0D9
:100E3C00FC01138A80E294E0FC01148A80E294E0C5
:100E4C00FC01158A80E294E0FC01168A80E294E0B1
:100E5C00FC01178A80E494E0FC01108A80E494E0A1
:100E6C00FC01118A80E494E0FC01128A80E494E095
:100E7C00FC01138A80E494E0FC01148A80E494E081
:100E8C00FC01158A80E494E0FC01168A80E494E06D
:100E9C00FC01178A80E092E0FC01108280E092E075
:100EAC00FC01118280E092E0FC01128280E092E071
:100EBC00FC0113828EE79BE00E94CC0A86E89BE043
:100ECC000E94DF0A8EE89BE00E94F20A86E99BE012
:100EDC000E94050B8EE99BE00E94180B86EA9BE0B2
:100EEC000E942B0B8EEA9BE00E943E0B86EB9BE054
:0C0EFC000E94510B0000DF91CF9108957F
:100F0800CF93DF93CDB7DEB780E09AE0FC0110A65F
:100F180011A680E09AE0FC0112A613A680E09AE0F0
:100F2800FC0114A615A680E09AE0FC0110A211A20B
:100F380080E09AE023E2FC01218380E09AE027E048
:100F4800FC01228380E09AE0FC01138280E09AE0B1
:100F5800FC01148280E09AE0FC01158280E09AE0AE
:100F6800FC01168280E09AE0FC01178280E09AE09A
:100F7800FC01168680E09AE0FC01118680E09AE088
:100F8800FC01128680E09AE0FC01138680E09AE07A
:100F98002FE331E0FC0126A337A380E09AE0FC01AF
:100FA800178680E09AE021E0FC01208380E0DF9151
:040FB800CF91089538
:100FBC00CF93DF9300D01F92CDB7DEB7198212C04A
:100FCC008981882F90E0805F9B4F2981222F30E010
:100FDC00205F3B4FF90120812860FC01208389812F
:100FEC008F5F89838981883058F31A8212C08A8175
:100FFC00882F90E0805D9B4F2A81222F30E0205D6E
:10100C003B4FF90120812860FC0120838A818F5F8E
:10101C008A838A81883058F31B8212C08B81882F77
:10102C0090E0805B9B4F2B81222F30E0205B3B4F6D
:10103C00F90120812860FC0120838B818F5F8B83D9
:10104C008B81883058F300002396CDBFDEBFDF9133
:04105C00CF91089593
:10106000CF93DF93CDB7DEB780E096E0FC01168A20
:1010700080E096E023E0FC01218380E096E020E11F
:10108000FC01228380E096E0FC01138280E096E080
:10109000FC01148280E096E0FC01148680E096E07A
:1010A000FC01118680E096E021E0FC01228780E0CF
:1010B00096E0FC01168280E096E028E0FC012583A2
:1010C00080E096E0FC01148A158A80E096E0FC013D
:1010D000128A138A80E096E0FC01108280E0DF91A2
:0410E000CF9108950F
:1010E4001F920F9200903F000F9211242F933F9371
:1010F4004F935F936F937F938F939F93AF93BF931C
:10110400EF93FF93CF93DF93CDB7DEB7809134385D
:1011140090913538892B31F080913438909135385D
:10112400FC01099580E09AE020E1FC01238700009E
:10113400DF91CF91FF91EF91BF91AF919F918F91EB
:101144007F916F915F914F913F912F910F900092FA
:081154003F000F901F90189559
:10115C001F920F9200903F000F9211242F933F93F8
:10116C004F935F936F937F938F939F93AF93BF93A3
:10117C00EF93FF93CF93DF93CDB7DEB780913638E3
:10118C0090913738892B31F08091363890913738DF
:10119C00FC01099580E09AE020E2FC012387000025
:1011AC00DF91CF91FF91EF91BF91AF919F918F9173
:1011BC007F916F915F914F913F912F910F90009282
:0811CC003F000F901F901895E1
:1011D4001F920F9200903F000F9211242F933F9380
:1011E4004F935F936F937F938F939F93AF93BF932B
:1011F400EF93FF93CF93DF93CDB7DEB78091383869
:1012040090913938892B31F0809138389091393860
:10121400FC01099580E09AE020E4FC0123870000AA
:10122400DF91CF91FF91EF91BF91AF919F918F91FA
:101234007F916F915F914F913F912F910F90009209
:081244003F000F901F90189568
:10124C001F920F9200903F000F9211242F933F9307
:10125C004F935F936F937F938F939F93AF93BF93B2
:10126C00EF93FF93CF93DF93CDB7DEB780913A38EE
:10127C0090913B38892B31F080913A3890913B38E2
:10128C00FC01099580E09AE021E0FC012387000035
:10129C00DF91CF91FF91EF91BF91AF919F918F9182
:1012AC007F916F915F914F913F912F910F90009291
:0812BC003F000F901F901895F0
:1012C4001F920F9200903F000F9211242F933F938F
:1012D4004F935F936F937F938F939F93AF93BF933A
:1012E400EF93FF93CF93DF93CDB7DEB780914C3864
:1012F40090914D38892B31F080914C3890914D3834
:10130400FC01099580E096E022E0FC0123870000BF
:10131400DF91CF91FF91EF91BF91AF919F918F9109
:101324007F916F915F914F913F912F910F90009218
:081334003F000F901F90189577
:10133C00CF93DF93CDB7DEB780E49AE02FEF31E0A7
:10134C00FC012487358780E49AE0FC011286138621
:10135C0080E49AE0FC01118280E49AE0FC011086A2
:10136C0080E49AE0FC01148280E49AE021E0FC0124
:10137C00258380E49AE0FC01168280E49AE0FC016B
:10138C00118680E49AE021E0FC01208380E0DF916B
:04139C00CF91089550
:1013A0001F920F9200903F000F9211242F938F9362
:1013B0009F93EF93FF93CF93DF93CDB7DEB780E09A
:1013C00096E021E0FC01238780E096E0FC01808923
:1013D000918980931D3890931E3881E080931C384A
:1013E0000000DF91CF91FF91EF919F918F912F910D
:0C13F0000F9000923F000F901F90189586
:1013FC00CF93DF93CDB7DEB760E088E790E00E9433
:10140C008C0A60E08CE790E00E948C0A60E080E738
:10141C0090E00E948C0A60E181E690E00E948C0AC8
:10142C0061E080E690E00E948C0A60E082E690E049
:0C143C000E948C0A80E0DF91CF9108959F
:101448001F920F9200903F000F9211242F938F93B9
:101458009F93EF93FF93CF93DF93CDB7DEB780E8E9
:1014680090E021E0FC0122870000DF91CF91FF91FD
:10147800EF919F918F912F910F9000923F000F90C5
:041488001F90189504
:10148C00CF93DF93CDB7DEB70E94CE060E94A20A9F
:10149C000E94710B0E94FE090E94640B0E9430088E
:1014AC000E9484070E94760A0E949E090000DF9128
:0414BC00CF9108952F
:1014C000CF93DF9300D01F92CDB7DEB789839A8385
:1014D0006B8389819A814B8168ED0E94E40B000047
:0C14E0002396CDBFDEBFDF91CF910895B1
:1014EC00CF93DF93CDB7DEB760E080E191E00E944F
:1014FC00600A80E191E0FC01128280E191E0FC0144
:0C150C001382789480E0DF91CF91089565
:10151800CF93DF9300D01F92CDB7DEB789839A832C
:101528006B8389819A814B8168ED0E94E40B0000EE
:0C1538002396CDBFDEBFDF91CF91089558
:10154400CF93DF93CDB7DEB760E080E890E00E94F0
:101554008C0A80E890E0FC01118680E890E0FC01B0
:0A156400108680E0DF91CF9108951A
:10156E00CF93DF931F92CDB7DEB7898380E096E0ED
:10157E002981FC01268380E096E021E0FC01208792
:0A158E0000000F90DF91CF91089547
:10159800CF93DF9300D0CDB7DEB789839A83898153
:1015A8009A81809324389093253800000F900F90EB
:0615B800DF91CF910895C0
:1015BE00CF93DF9300D0CDB7DEB789839A8389812D
:1015CE009A81809326389093273800000F900F90C1
:0615DE00DF91CF9108959A
:1015E400CF93DF9300D0CDB7DEB789839A83898107
:1015F4009A81809328389093293800000F900F9097
:06160400DF91CF91089573
:10160A00CF93DF9300D0CDB7DEB789839A838981E0
:10161A009A8180932A3890932B3800000F900F906C
:06162A00DF91CF9108954D
:10163000CF93DF9300D0CDB7DEB789839A838981BA
:101640009A8180932C3890932D3800000F900F9042
:06165000DF91CF91089527
:10165600CF93DF9300D0CDB7DEB789839A83898194
:101666009A8180932E3890932F3800000F900F9018
:06167600DF91CF91089501
:10167C00CF93DF9300D0CDB7DEB789839A8389816E
:10168C009A81809330389093313800000F900F90EE
:06169C00DF91CF910895DB
:1016A200CF93DF9300D0CDB7DEB789839A83898148
:1016B2009A81809332389093333800000F900F90C4
:0616C200DF91CF910895B5
:1016C800CF93DF93CDB7DEB760E080E590E00E946E
:0A16D8008C0A80E0DF91CF910895A5
:1016E200CF93DF93CDB7DEB760E080E091E00E9458
:0A16F2008C0A80E0DF91CF9108958B
:1016FC00CF93DF93CDB7DEB70000DF91CF91089584
:10170C00CF93DF93CDB7DEB70000DF91CF91089573
:10171C00CF93DF93CDB7DEB70000DF91CF91089563
:10172C00CF93DF93CDB7DEB70000DF91CF91089553
:10173C00CF93DF93CDB7DEB70000DF91CF91089543
:10174C00CF93DF93CDB7DEB70000DF91CF91089533
:10175C00CF93DF93CDB7DEB70000DF91CF91089523
:10176C00CF93DF93CDB7DEB70000DF91CF91089513
:10177C00CF93DF93CDB7DEB70000DF91CF91089503
:10178C00CF93DF93CDB7DEB70000DF91CF910895F3
:10179C00CF93DF93CDB7DEB70000DF91CF910895E3
:1017AC00CF93DF93CDB7DEB70000DF91CF910895D3
:0C17BC00EE0FFF1F0590F491E02D099442
:0817C800FC0164BF4083089599
:0417D0000C94000075
:0217D400BE0B4A
:0217D600C60B40
:0217D800CE0B36
:0217DA00D60B2C
:0217DC00A0006B
:0217DE00060003
:02000004008278
:090000000000020000C40700002A
:00000001FF
