:100000000C948F000C94A40B0C94E0090C94A40B9A
:100010000C94A40B0C94A40B0C94A40B0C94A40BA4
:100020000C94E2080C94A40B0C942E080C946A080F
:100030000C94A6080C94B9000C94A40B0C94A40B7B
:100040000C94A40B0C94A40B0C94A40B0C94A40B74
:100050000C948C090C941E090C94A40B0C94A40B06
:100060000C94A40B0C94A40B0C94A40B0C94A40B54
:100070000C94A40B0C94A40B0C94A40BEE00FB00AA
:10008000080121015F019D01DB0119025702640291
:10009000A202AF028903A203D403E80304042104EB
:1000A00051046104382038228038223824803824D2
:1000B00038268038263828803828382A80382A3848
:1000C0002C80382C382E80382E383080383038321A
:1000D00000174C3832383400174E38343836001791
:1000E00050383638380017523838383A80383A386D
:1000F0003C80383C383E80383E3840001754384009
:1001000038420017563842384480384438468038E0
:100110000038208038463848803848384A801124D2
:100120001FBECFEFCDBFDFE3DEBFE4EAF0E041E08A
:1001300017C0B591A59135912591059107FD0CC08A
:1001400095918591EF01F92FE82F05900D92A21757
:10015000B307D9F7FE0104C01D92A217B307E1F758
:10016000EE31F40731F70E94C9040C94B700F894FB
:02017000FFCFBF
:100172001F920F9200903F000F9211242F933F93F2
:100182004F935F936F937F938F939F93AF93BF939D
:10019200EF93FF93CF93DF93CDB7DEB790911238F1
:1001A20080911138981711F01092143880911138FB
:1001B200882F90E0092E000CAA0BBB0B40E050E008
:1001C2002BE030E0841B950B2817390708F4DFC1B8
:1001D200825C9F4FFC010C949A0B85E494E021E031
:1001E200FC01208385E494E022E0FC01208310924C
:1001F2001438CEC185E494E021E0FC01208386E43A
:1002020094E022E0FC01208310921438C1C1809155
:1002120013388F3130F4809113388F5F8093133805
:100222000CC01092133885E494E021E0FC01208395
:1002320087E494E022E0FC01208310921438A8C1E4
:1002420080911438823078F5809113388F3130F4F0
:10025200809113388F5F8093133807C01092133840
:10026200809114388F5F8093143880911438882FCE
:1002720090E081709927892B59F485E494E021E07C
:10028200FC01208385E494E022E0FC01208380C10C
:1002920085E494E021E0FC01208386E494E022E0FE
:1002A200FC01208375C185E494E021E0FC012083F8
:1002B20085E494E022E0FC0120836AC18091143835
:1002C200843078F5809113388F3130F4809113386F
:1002D2008F5F8093133807C01092133880911438BF
:1002E2008F5F8093143880911438882F90E081704A
:1002F2009927892B59F485E494E021E0FC012083BD
:1003020085E494E022E0FC01208342C185E494E08C
:1003120021E0FC01208386E494E022E0FC012083BA
:1003220037C185E494E021E0FC01208385E494E078
:1003320022E0FC0120832CC180911438863078F5AC
:10034200809113388F3130F4809113388F5F80930E
:10035200133807C010921338809114388F5F80933E
:10036200143880911438882F90E081709927892B56
:1003720059F485E494E021E0FC01208385E494E0D3
:1003820022E0FC01208304C185E494E021E0FC0129
:10039200208386E494E022E0FC012083F9C085E416
:1003A20094E021E0FC01208385E494E022E0FC015A
:1003B2002083EEC080911438883078F5809113380C
:1003C2008F3130F4809113388F5F8093133807C0D8
:1003D20010921338809114388F5F80931438809173
:1003E2001438882F90E081709927892B59F485E47D
:1003F20094E021E0FC01208385E494E022E0FC010A
:100402002083C6C085E494E021E0FC01208386E4D9
:1004120094E022E0FC012083BBC085E494E021E06B
:10042200FC01208385E494E022E0FC012083B0C03B
:10043200809114388A3078F5809113388F3130F4F6
:10044200809113388F5F8093133807C0109213384E
:10045200809114388F5F8093143880911438882FDC
:1004620090E081709927892B59F485E494E021E08A
:10047200FC01208385E494E022E0FC01208388C013
:1004820085E494E021E0FC01208386E494E022E00C
:10049200FC0120837DC085E494E021E0FC012083FF
:1004A20085E494E022E0FC01208372C086E494E0BB
:1004B20021E0FC01208386E494E022E0FC01208319
:1004C2001092143865C080911438823078F580918A
:1004D20013388F3130F4809113388F5F8093133843
:1004E20007C010921338809114388F5F80931438AC
:1004F20080911438882F90E081709927892B59F4C4
:1005020085E494E021E0FC01208385E494E022E08C
:10051200FC0120833DC086E494E021E0FC012083BD
:1005220086E494E022E0FC01208332C085E494E07A
:1005320021E0FC01208385E494E022E0FC01208399
:1005420027C086E494E021E0FC01208385E494E066
:1005520022E0FC012083109214381AC080911338D3
:100562008F3130F4809113388F5F809313380CC031
:100572001092133887E494E021E0FC01208385E4A3
:1005820094E022E0FC0120831092143801C00000A4
:10059200809111388093123888E090E0FC018281CA
:1005A200882F90E088709927892BF9F088E090E0F5
:1005B200FC018281882F90E084709927892BA9F011
:1005C20080910D3890910E388833914050F480918B
:1005D2000D3890910E38019680930D3890930E3815
:1005E20011C081E080930F380DC010920D38109227
:1005F2000E3880910F38882319F081E080931038EB
:1006020010920F3888E090E0FC018281882F90E000
:1006120088709927892B71F080910338833130F4E7
:10062200809103388F5F809303380FC081E08093FD
:1006320006380BC01092033880910638882319F0CF
:1006420081E0809305381092063888E090E0FC0142
:100652008281882F90E084709927892B31F18091D3
:100662000438833130F4809104388F5F80930438EA
:1006720003C081E08093083880911538823069F593
:100682008091093890910A388833914050F48091D2
:10069200093890910A3801968093093890930A3864
:1006A2001CC081E080930B3818C0109204388091EE
:1006B2000838882319F081E08093073810920838AF
:1006C2001092093810920A3880910B38882319F059
:1006D20081E080930C3810920B3880911E38882369
:1006E20009F408C18091403890914138CC01A0E0D2
:1006F200B0E040E050E027E030E0841B950B281783
:10070200390708F401C1865B9F4FFC010C949A0BD8
:1007120010923A3810923B3880913E3890913F388F
:1007220096958795969587959695879580933C386B
:1007320090933D3881E090E0809340389093413827
:10074200E4C020913A3830913B3880913E38909104
:100752003F388217930778F480913E3890913F3862
:1007620080933A3890933B3882E090E0809340380F
:10077200909341380EC020913A3830913B388091A5
:100782003C3890913D38820F931F80933A38909372
:100792003B3880E09AE020913A3830913B38FC01B6
:1007A20022A733A7B2C080E09AE020913A38309174
:1007B2003B38FC0122A733A783E090E080934038C6
:1007C2009093413810923838109239389EC08091F7
:1007D200383890913938863C91055CF084E090E09D
:1007E20080934038909341381092383810923938BB
:1007F2008CC080913838909139380196809338387E
:100802009093393882C080913E3890913F388093DE
:100812003A3890933B3880913E3890913F38969584
:100822008795969587959695879580933C38909372
:100832003D3885E090E0809340389093413865C020
:1008420020913A3830913B3880913C3890913D3834
:100852008217930788F420913A3830913B3880917F
:100862003C3890913D38A901481B590BCA0180932D
:100872003A3890933B380AC010923A3810923B387B
:1008820086E090E0809340389093413880E09AE08F
:1008920020913A3830913B38FC0122A733A735C06A
:1008A20080E09AE0FC0112A613A687E090E0809314
:1008B200403890934138109238381092393825C018
:1008C20080913838909139388D3691054CF01092DC
:1008D200403810924138109238381092393815C089
:1008E20080913838909139380196809338389093B6
:1008F20039380BC080E09AE0FC0112A613A61092D0
:1009020040381092413801C0000080911938882384
:10091200C9F080911A3890911B388B349A4068F450
:1009220081E080931C3880911A3890911B38833D66
:10093200994018F481E080931D3885E00E94730A83
:10094200109219388091443890914538892B31F0B2
:100952008091443890914538FC01099580E49AE0F1
:1009620021E0FC0126830000DF91CF91FF91EF91FE
:10097200BF91AF919F918F917F916F915F914F91B5
:100982003F912F910F9000923F000F901F9018956A
:10099200CF93DF93CDB7DEB70E94020A10921138CF
:1009A20010920538109215381092163884E0809310
:1009B200183810921C3810921D3810921E388091EF
:1009C2001538882F90E08230910509F44BC08330AE
:1009D20091052CF4009759F00197A9F099C1833041
:1009E200910509F445C1049709F48BC191C189E0CD
:1009F2008093113880911438823008F484C181E0E8
:100A02008093153880C11092113810921E3880E000
:100A120096E0FC01108280911038882371F01092C8
:100A2200103883E08093153880E096E021E0FC01E5
:100A3200208385E00E94730A68C18091053888236B
:100A420009F463C11092053882E080931538109240
:100A5200163880E096E021E0FC01208385E00E94C8
:100A6200730A53C181E080931E3880911638882F13
:100A720090E08230910509F457C0833091052CF43F
:100A8200009759F0019761F1BAC08330910509F4DA
:100A92006FC0049709F490C0B2C080911C388823BB
:100AA20021F08BE08093113803C087E080931138E6
:100AB20080914238909143388093463890934738DA
:100AC20080914638909147384496880F991F880F35
:100AD200991F880F991F80933E3890933F388FC09B
:100AE20080911C38882321F08BE08093113803C059
:100AF20083E0809311388091423890914338039774
:100B02008093463890934738809146389091473881
:100B12004496880F991F880F991F880F991F8093F9
:100B22003E3890933F386BC080911C38882321F067
:100B32008BE08093113803C084E080931138809158
:100B420042389091433802978093463890934738C1
:100B520080914638909147384496880F991F880FA4
:100B6200991F880F991F80933E3890933F3847C052
:100B720080911C38882321F08BE08093113803C0C8
:100B820085E08093113880914238909143380197E3
:100B920080934638909347388091463890914738F1
:100BA2004496880F991F880F991F880F991F809369
:100BB2003E3890933F3823C080911C38882321F01F
:100BC2008BE08093113803C086E0809311388091C6
:100BD20042389091433880934638909347388091B9
:100BE2004638909147384496880F991F880F991F6D
:100BF200880F991F80933E3890933F380000809170
:100C02000C38882359F010920C381092073884E07F
:100C12008093183884E08093163817C08091073883
:100C2200882399F01092073880911838843030F474
:100C3200809118388F5F8093183803C081E08093C9
:100C42001838809118388093163880910538882397
:100C520031F01092053881E08093153858C08091A8
:100C62001D38882309F453C081E0809315384FC0A2
:100C720081E080931E3888E0809311388091053896
:100C8200882391F010920538809142389091433830
:100C9200449738F580914238909143380196809379
:100CA2004238909343381DC080910738882391F0D1
:100CB200109207388091423890914338892B89F0FD
:100CC20080914238909143380197809342389093B3
:100CD200433807C080911038882319F081E080934F
:100CE200153880914238909143384496880F991F65
:100CF200880F991F880F991F80933E3890933F3831
:100D020007C000005CCE00005ACE000058CE0000A2
:020D120056CEBB
:100D1400CF93DF93CDB7DEB70E949A0780E094E0CB
:100D24002EEDFC01208380E294E02FE3FC0120837C
:100D340080E494E023E0FC01208380E094E0FC0163
:100D4400148280E294E0FC01148280E494E023E0C5
:100D5400FC01248380E094E0FC01108A80E094E0AC
:100D6400FC01118A80E094E0FC01128A80E094E0A6
:100D7400FC01138A80E094E0FC01148A80E094E092
:100D8400FC01158A80E094E0FC01168A80E094E07E
:100D9400FC01178A80E294E0FC01108A80E294E06E
:100DA400FC01118A80E294E0FC01128A80E294E062
:100DB400FC01138A80E294E0FC01148A80E294E04E
:100DC400FC01158A80E294E0FC01168A80E294E03A
:100DD400FC01178A80E494E0FC01108A80E494E02A
:100DE400FC01118A80E494E0FC01128A80E494E01E
:100DF400FC01138A80E494E0FC01148A80E494E00A
:100E0400FC01158A80E494E0FC01168A80E494E0F5
:100E1400FC01178A80E092E0FC01108280E092E0FD
:100E2400FC01118280E092E0FC01128280E092E0F9
:100E3400FC0113828AE39BE00E94880A82E49BE01F
:100E44000E949B0A8AE49BE00E94AE0A82E59BE032
:100E54000E94C10A8AE59BE00E94D40A82E69BE0D4
:100E64000E94E70A8AE69BE00E94FA0A82E79BE076
:0C0E74000E940D0B0000DF91CF9108954B
:100E8000CF93DF93CDB7DEB780E09AE0FC0110A6E8
:100E900011A680E09AE0FC0112A613A680E09AE079
:100EA000FC0114A615A680E09AE0FC0110A211A294
:100EB00080E09AE023E2FC01218380E09AE027E0D1
:100EC000FC01228380E09AE0FC01138280E09AE03A
:100ED000FC01148280E09AE0FC01158280E09AE037
:100EE000FC01168280E09AE0FC01178280E09AE023
:100EF000FC01168680E09AE0FC01118680E09AE011
:100F0000FC01128680E09AE0FC01138680E09AE002
:100F10002FE331E0FC0126A337A380E09AE0FC0137
:100F2000178680E09AE021E0FC01208380E0DF91D9
:040F3000CF910895C0
:100F3400CF93DF9300D01F92CDB7DEB7198212C0D2
:100F44008981882F90E0805F9B4F2981222F30E098
:100F5400205F3B4FF90120812860FC0120838981B7
:100F64008F5F89838981883058F31A8212C08A81FD
:100F7400882F90E0805D9B4F2A81222F30E0205DF6
:100F84003B4FF90120812860FC0120838A818F5F17
:100F94008A838A81883058F31B8212C08B81882F00
:100FA40090E0805B9B4F2B81222F30E0205B3B4FF6
:100FB400F90120812860FC0120838B818F5F8B8362
:100FC4008B81883058F300002396CDBFDEBFDF91BC
:040FD400CF9108951C
:100FD800CF93DF93CDB7DEB780E096E0FC01168AA9
:100FE80080E096E023E0FC01218380E096E020E1A8
:100FF800FC01228380E096E0FC01138280E096E009
:10100800FC01148280E096E0FC01148680E096E002
:10101800FC01118680E096E021E0FC01228780E057
:1010280096E0FC01168280E096E028E0FC0125832A
:1010380080E096E0FC01148A158A80E096E0FC01C5
:10104800128A138A80E096E0FC01108280E0DF912A
:04105800CF91089597
:10105C001F920F9200903F000F9211242F933F93F9
:10106C004F935F936F937F938F939F93AF93BF93A4
:10107C00EF93FF93CF93DF93CDB7DEB780913038EA
:10108C0090913138892B31F08091303890913138F2
:10109C00FC01099580E09AE020E1FC012387000027
:1010AC00DF91CF91FF91EF91BF91AF919F918F9174
:1010BC007F916F915F914F913F912F910F90009283
:0810CC003F000F901F901895E2
:1010D4001F920F9200903F000F9211242F933F9381
:1010E4004F935F936F937F938F939F93AF93BF932C
:1010F400EF93FF93CF93DF93CDB7DEB78091323870
:1011040090913338892B31F0809132389091333873
:10111400FC01099580E09AE020E2FC0123870000AD
:10112400DF91CF91FF91EF91BF91AF919F918F91FB
:101134007F916F915F914F913F912F910F9000920A
:081144003F000F901F90189569
:10114C001F920F9200903F000F9211242F933F9308
:10115C004F935F936F937F938F939F93AF93BF93B3
:10116C00EF93FF93CF93DF93CDB7DEB780913438F5
:10117C0090913538892B31F08091343890913538F5
:10118C00FC01099580E09AE020E4FC012387000033
:10119C00DF91CF91FF91EF91BF91AF919F918F9183
:1011AC007F916F915F914F913F912F910F90009292
:0811BC003F000F901F901895F1
:1011C4001F920F9200903F000F9211242F933F9390
:1011D4004F935F936F937F938F939F93AF93BF933B
:1011E400EF93FF93CF93DF93CDB7DEB7809136387B
:1011F40090913738892B31F0809136389091373877
:10120400FC01099580E09AE021E0FC0123870000BD
:10121400DF91CF91FF91EF91BF91AF919F918F910A
:101224007F916F915F914F913F912F910F90009219
:081234003F000F901F90189578
:10123C001F920F9200903F000F9211242F933F9317
:10124C004F935F936F937F938F939F93AF93BF93C2
:10125C00EF93FF93CF93DF93CDB7DEB780914838F0
:10126C0090914938892B31F08091483890914938C8
:10127C00FC01099580E096E022E0FC012387000048
:10128C00DF91CF91FF91EF91BF91AF919F918F9192
:10129C007F916F915F914F913F912F910F900092A1
:0812AC003F000F901F90189500
:1012B400CF93DF93CDB7DEB780E49AE02FEF31E030
:1012C400FC012487358780E49AE0FC0112861386AA
:1012D40080E49AE0FC01118280E49AE0FC0110862B
:1012E40080E49AE0FC01148280E49AE021E0FC01AD
:1012F400258380E49AE0FC01168280E49AE0FC01F4
:10130400118680E49AE021E0FC01208380E0DF91F3
:04131400CF910895D8
:101318001F920F9200903F000F9211242F938F93EA
:101328009F93EF93FF93CF93DF93CDB7DEB780E022
:1013380096E021E0FC01238780E096E0FC018089AB
:10134800918980931A3890931B3881E080931938DB
:101358000000DF91CF91FF91EF919F918F912F9195
:0C1368000F9000923F000F901F9018950E
:10137400CF93DF93CDB7DEB760E088E790E00E94BB
:10138400480A60E08CE790E00E94480A60E080E749
:1013940090E00E94480A60E181E690E00E94480AD9
:1013A40061E080E690E00E94480A60E082E690E016
:0C13B4000E94480A80E0DF91CF9108956C
:1013C0001F920F9200903F000F9211242F938F9342
:1013D0009F93EF93FF93CF93DF93CDB7DEB780E872
:1013E00090E021E0FC0122870000DF91CF91FF9186
:1013F000EF919F918F912F910F9000923F000F904E
:041400001F9018958C
:10140400CF93DF93CDB7DEB70E948A060E945E0AAF
:101414000E942D0B0E94BA090E94200B0E94EC0727
:101424000E9440070E94320A0E945A090000DF917C
:04143400CF910895B7
:10143800CF93DF9300D01F92CDB7DEB789839A830D
:101448006B8389819A814B8168ED0E94A00B000013
:0C1458002396CDBFDEBFDF91CF91089539
:10146400CF93DF93CDB7DEB760E080E191E00E94D7
:101474001C0A80E191E0FC01128280E191E0FC0110
:0C1484001382789480E0DF91CF910895EE
:10149000CF93DF9300D01F92CDB7DEB789839A83B5
:1014A0006B8389819A814B8168ED0E94A00B0000BB
:0C14B0002396CDBFDEBFDF91CF910895E1
:1014BC00CF93DF93CDB7DEB760E080E890E00E9479
:1014CC00480A80E890E0FC01118680E890E0FC017D
:0A14DC00108680E0DF91CF910895A3
:1014E600CF93DF931F92CDB7DEB7898380E096E076
:1014F6002981FC01268380E096E021E0FC0120871B
:0A15060000000F90DF91CF910895CF
:10151000CF93DF9300D0CDB7DEB789839A838981DB
:101520009A81809320389093213800000F900F907B
:06153000DF91CF91089548
:10153600CF93DF9300D0CDB7DEB789839A838981B5
:101546009A81809322389093233800000F900F9051
:06155600DF91CF91089522
:10155C00CF93DF9300D0CDB7DEB789839A8389818F
:10156C009A81809324389093253800000F900F9027
:06157C00DF91CF910895FC
:10158200CF93DF9300D0CDB7DEB789839A83898169
:101592009A81809326389093273800000F900F90FD
:0615A200DF91CF910895D6
:1015A800CF93DF9300D0CDB7DEB789839A83898143
:1015B8009A81809328389093293800000F900F90D3
:0615C800DF91CF910895B0
:1015CE00CF93DF9300D0CDB7DEB789839A8389811D
:1015DE009A8180932A3890932B3800000F900F90A9
:0615EE00DF91CF9108958A
:1015F400CF93DF9300D0CDB7DEB789839A838981F7
:101604009A8180932C3890932D3800000F900F907E
:06161400DF91CF91089563
:10161A00CF93DF9300D0CDB7DEB789839A838981D0
:10162A009A8180932E3890932F3800000F900F9054
:06163A00DF91CF9108953D
:10164000CF93DF93CDB7DEB760E080E590E00E94F6
:0A165000480A80E0DF91CF91089571
:10165A00CF93DF93CDB7DEB760E080E091E00E94E0
:0A166A00480A80E0DF91CF91089557
:10167400CF93DF93CDB7DEB70000DF91CF9108950C
:10168400CF93DF93CDB7DEB70000DF91CF910895FC
:10169400CF93DF93CDB7DEB70000DF91CF910895EC
:1016A400CF93DF93CDB7DEB70000DF91CF910895DC
:1016B400CF93DF93CDB7DEB70000DF91CF910895CC
:1016C400CF93DF93CDB7DEB70000DF91CF910895BC
:1016D400CF93DF93CDB7DEB70000DF91CF910895AC
:1016E400CF93DF93CDB7DEB70000DF91CF9108959C
:1016F400CF93DF93CDB7DEB70000DF91CF9108958C
:10170400CF93DF93CDB7DEB70000DF91CF9108957B
:10171400CF93DF93CDB7DEB70000DF91CF9108956B
:10172400CF93DF93CDB7DEB70000DF91CF9108955B
:0C173400EE0FFF1F0590F491E02D0994CA
:08174000FC0164BF4083089521
:041748000C940000FD
:02174C007A0B16
:02174E00820B0C
:021750008A0B02
:02175200920BF8
:02175400A000F3
:0217560006008B
:02000004008278
:090000000000020000C40700002A
:00000001FF
