:100000000C9467000C94E0080C946A080C94E008C7
:100010000C94E0080C946F060C94E0080C94E00833
:100020000C945F070C94E0080C94DB060C94070713
:100030000C9433070C9491000C94E0080C94E008A5
:100040000C94E0080C94E0080C94E0080C94E00890
:100050000C94CC070C94AF060C94E0080C94E008C8
:100060000C94E0080C94E0080C94E0080C94E00870
:100070000C94E0080C94E0080C945B08E800EC0099
:10008000F000030109010F0115011B0142014901A3
:1000900079017D01AF04F4044605620577059505F5
:1000A000D305E9053800383680383638920011D04B
:1000B000389238A48038A438A800122C38A838B256
:1000C0008038B238BA00123038BA38C080001124F3
:1000D0001FBECFEFCDBFDFE3DEBFE4EAF0E040E0DC
:1000E00017C0B591A59135912591059107FD0CC0DB
:1000F00095918591EF01F92FE82F05900D92A217A8
:10010000B307D9F7FE0104C01D92A217B307E1F7A8
:10011000ED3CF40731F70E9411030C948F00F89422
:02012000FFCF0F
:100122001F920F920FB60F9211242F933F934F936A
:100132005F936F937F938F939F93AF93BF93EF934D
:10014200FF938091BD38813089F480919E389091DF
:100152009F38803C964070F480919E3890919F38F1
:10016200019680939E3890939F3804C010929E38D7
:1001720010929F388091BC38813089F480919C38EC
:1001820090919D3880359C4070F480919C3890917C
:100192009D38019680939C3890939D3804C01092AC
:1001A2009C3810929D3890911E3880911D3898137A
:1001B20010922138E0911D388E2F90E08C309105FD
:1001C20008F0B7C0FC01E25CFF4F0C94C00881E06C
:1001D20080934504A9C081E08093450455C0809175
:1001E2001F3890912038843F914008F48CC01092BF
:1001F2001F381092203881E08093450482E080937A
:10020200470495C080912138823008F06AC017C037
:1002120080912138843008F064C011C08091213867
:10022200863008F05EC00BC080912138883008F01B
:1002320058C005C0809121388A3008F052C08091A0
:100242001F3890912038843F914050F480911F389C
:1002520090912038019680931F389093203809C0DE
:1002620010921F3810922038809121388F5F80932E
:1002720021388091213880FF34C081E08093450489
:100282002CC081E08093460482E0809346044FC0F4
:1002920080912138823028F580911F389091203842
:1002A200843F914050F480911F38909120380196FC
:1002B20080931F389093203809C010921F381092F3
:1002C2002038809121388F5F8093213880912138A6
:1002D20080FF07C081E08093460482E08093460459
:1002E20028C081E08093450482E08093450421C0C8
:1002F20081E08093460418C080911F389091203885
:10030200843F914050F480911F389091203801969B
:1003120080931F38909320380AC010921F38109291
:10032200203881E08093470482E080934504109254
:10033200213880911D3880931E3880912238539B3A
:100342003AC020910338309104382639310558F4E7
:1003520020910338309104382F5F3F4F20930338A8
:100362003093043803C091E0909308381092133808
:10037200109214381092173810921838833009F0FE
:100382004FC02091193830911A38283B3B4058F41D
:100392002091193830911A382F5F3F4F2093193826
:1003A20030931A383DC01092193810921A3891E0E1
:1003B20090931C3835C010920338109204389091F3
:1003C2000838992379F091E09093073820911638F4
:1003D200283030F4909116389F5F9093163802C0FF
:1003E20090931238109208381092193810921A38D5
:1003F2002091173830911838203D374058F4209119
:100402001738309118382F5F3F4F209317383093A9
:10041200183806C0109216381092173810921838F1
:10042200529B31C02091053830910638263931056A
:1004320058F420910538309106382F5F3F4F2093B2
:1004420005383093063803C091E090930A38823021
:10045200A9F420910B3830910C382838334158F4E4
:1004620020910B3830910C382F5F3F4F20930B387F
:1004720030930C3803C091E090930D3810921338EA
:10048200109214381AC010920538109206389091C2
:100492000A38992319F091E09093093810920A389A
:1004A20010920B3810920C3890910D38992319F054
:1004B20091E090930E3810920D388330A9F4809118
:1004C2001338909114388033954750F48091133843
:1004D200909114380196809313389093143831C058
:1004E20081E0809315382DC0109213381092143881
:1004F20010921538823029F580912D3890912E383E
:10050200A0912F38B091303880349747AB41B10574
:10051200A0F480912D3890912E38A0912F38B0916F
:1005220030380196A11DB11D80932D3890932E383D
:10053200A0932F38B09330380EC081E080933138C9
:100542000AC010922D3810922E3810922F38109225
:1005520030381092313880912638882351F18091B9
:1005620027389091283885329940E0F480912C38D0
:10057200883C30F480912C388F5F80932C3803C0F4
:1005820081E08093293880912938882369F080910D
:10059200273890912838893B984030F481E0809345
:1005A2002A3802C010922C3885E00E94AE081092C0
:1005B2002638809122388130A1F42091323830914E
:1005C2003338283E334050F480913238909133389A
:1005D2000196809332389093333807C08093343831
:1005E20004C01092323810923338E0919A38F09168
:1005F2009B38309709F0099581E08093460AFF9174
:10060200EF91BF91AF919F918F917F916F915F9188
:100612004F913F912F910F900FBE0F901F90189501
:100622000E94340810921D38109207381092223816
:100632001092233884E08093253810922938109242
:100642002A3810922B381092343810923238109285
:10065200333880E090E00E94D4088093BF388F3F07
:1006620019F486E190E001C090E08093A238909363
:10067200A338C1E003E014E0DBE085E0B82E96E0A9
:10068200A92E27E0922E33E0C32ED12C46E1E42E90
:10069200F12C58E0852E69E0762E72E0672E80916B
:1006A2002238823009F443C028F4882351F0813083
:1006B20091F033C1833009F4D3C0843009F427C1E7
:1006C2002CC170921D3880912138823008F425C1E6
:1006D200C093223822C10E94DC0819F0D0931D3841
:1006E20002C010921D3810922B3810920006809191
:1006F2001238882329F010921238009322380AC047
:1007020080910738882361F010920738609222386E
:1007120010922338C093000685E00E94AE0805C0FF
:100722008091343881111093223843E093C0C093F2
:100732002B38809123388230F1F028F4882341F05D
:10074200813069F042C0833011F1843061F13DC0E3
:100752008091293881112AC090921D382CC00E94A4
:10076200DC0819F0D0931D3802C000931D380E9496
:10077200C608039722C00E94DC0819F0D0931D38E6
:1007820002C010931D380E94C608029716C00E942C
:10079200DC0819F0D0931D3802C0B0921D380E94B7
:1007A200C60801970AC00E94DC0819F0D0931D38D0
:1007B20002C0A0921D380E94CB088093BA38909351
:1007C200BB388093A0389093A13880910E3888234B
:1007D20049F010920E381092093810932538109370
:1007E200233816C080910938882391F01092093875
:1007F20080912538843020F48F5F8093253802C0A1
:10080200C093253880912538809323380E9491081F
:1008120080910738882319F01092073804C080911C
:100822002A38882319F0C093223813C080913138B6
:10083200882339F0C0932238109231380E949108EF
:1008420008C080911238882321F010921238009348
:10085200223840E068ED80E590E00E94D0085DC05B
:10086200C0932B380E94DC0819F0D0931D3802C0C7
:1008720080921D3880910738882379F010920738CA
:100882000E94CB08469720F40E94CB08019612C022
:10089200E092A238F092A33833C0809109388823BD
:1008A20099F0109209380E94CB08049740F00E94F8
:1008B200CB0801978093A2389093A33821C0C092AD
:1008C200A238D092A3381CC080911C38882319F01A
:1008D20010921C380BC080911538882319F01092A1
:1008E200153804C080912A38882351F0C0932238E9
:1008F2006091A2387091A33880E090E00E941E08B7
:100902000E94CB088093A0389093A138A2CF8895FB
:1009120080913438882309F4DBCE8091A0389091FD
:10092200A138479728F0E092A038F092A138B7CECC
:0A0932008091A0389091A138B2CE58
:10093C0080912B38882309F454C1E091A438F091AC
:10094C00A538E830F10508F064C1E65BFF4F0C9464
:10095C00C0088BE28093010AE091A038F091A13895
:10096C00EE0FFF1FEE0FFF1FEA5CF74C80819181A9
:10097C008093A6389093A738E091A038F091A138D5
:10098C00EE0FFF1FEE0FFF1FEA5CF74C2081318149
:10099C00E091A038F091A138EE0FFF1FEE0FFF1F72
:1009AC00EA5CF74C82819381820F931F8093AC3861
:1009BC009093AD381092AA381092AB388091A6382B
:1009CC009091A73863E0969587956A95E1F78093A7
:1009DC00A8389093A93881E090E09AC08091BE38F5
:1009EC00883020F58091BE388F5F8093BE3820917F
:1009FC00AA383091AB388091A6389091A738281737
:100A0C00390758F42091AA383091AB388091A83826
:100A1C009091A938820F931F04C08091A6389091B1
:100A2C00A7388093AA389093AB380EC08091A63823
:100A3C009091A7388093AA389093AB3882E090E0DD
:100A4C008093A4389093A5384091AC385091AD3830
:100A5C008DE7849F9001859F300D11242093260AE9
:100A6C003093270A4091AA385091AB38849F90015B
:100A7C00859F300D112420932A0A30932B0A089558
:100A8C002091AA383091AB384DE7429FC001439F6B
:100A9C00900D112480932A0A90932B0A83E090E006
:100AAC008093A4389093A5381092AE381092AF383A
:100ABC0081E08093BD3810C080919E3890919F3812
:100ACC00803C964008F4A5C084E090E08093A43864
:100ADC009093A5381092BD3810929E3810929F3882
:100AEC0008958091A6389091A7388093AA38909356
:100AFC00AB388091A6389091A73823E096958795CE
:100B0C002A95E1F78093A8389093A93885E090E076
:100B1C008093A4389093A5381092BE380895809194
:100B2C00BE388830F8F48091BE388F5F8093BE3821
:100B3C002091AA383091AB388091A8389091A9387F
:100B4C0082179307D8F48091AA389091AB382091F2
:100B5C00A8383091A938821B930B8093AA389093B4
:100B6C00AB380CC081E090E08093AA389093AB38FE
:100B7C0086E090E08093A4389093A5382091AA3811
:100B8C003091AB384DE7429FC001439F900D11242B
:100B9C0080932A0A90932B0A08958DE790E0809316
:100BAC002A0A90932B0A1092010A87E090E0809316
:100BBC00A4389093A5381092AE381092AF3881E0DB
:100BCC008093BC3822C080919C3890919D388035A0
:100BDC009C40F8F01092A4381092A5381092BC38B2
:100BEC0014C08DE790E080932A0A90932B0A109200
:100BFC00010A1092A4381092A5381092BD381092A8
:100C0C00BC3810929E3810929F3810929C381092DB
:040C1C009D38089562
:100C2000CF93DF930E94EB07C0E0D4E08EED888382
:100C3000A0E2B4E08FE38C93E0E4F4E083E080830F
:100C40001C8214961C9214978483188A198A1A8A13
:100C50001B8A1C8A84E08D8B1E8A1F8A50961C92E8
:100C6000509751961C92519752961C9252975396B8
:100C70001C92539754961C92549755961C925597D4
:100C800056961C92569757961C92108A118A128A71
:100C900081E0838B148A158A168A178AE0E0F2E0D5
:100CA000108211821282138288EA98E08093983829
:100CB0009093993883EE98E0809396389093973884
:100CC00084EE98E0809394389093953882EE98E083
:0E0CD0008093923890939338DF91CF910895DE
:100CDE001F920F920FB60F9211242F933F934F93A3
:100CEE005F936F937F938F939F93AF93BF93EF9386
:100CFE00FF935B9B05C0E0919838F0919938099568
:100D0E00589B05C0E0919638F091973809955A9BFB
:100D1E0005C0E0919438F09195380995599B05C01E
:100D2E00E0919238F091933809958FEF8BB9FF913E
:100D3E00EF91BF91AF919F918F917F916F915F9145
:100D4E004F913F912F910F900FBE0F901F901895BE
:100D5E001F920F920FB60F9211242F933F934F9322
:100D6E005F936F937F938F939F93AF93BF93EF9305
:100D7E00FF93E091B038F091B138309709F00995B2
:100D8E0082E080930B06FF91EF91BF91AF919F91FF
:100D9E008F917F916F915F914F913F912F910F9016
:080DAE000FBE0F901F90189575
:100DB6001F920F920FB60F9211242F933F934F93CA
:100DC6005F936F937F938F939F93AF93BF93EF93AD
:100DD600FF93E091B838F091B938309709F009954A
:100DE60080E180930B0AFF91EF91BF91AF919F91A4
:100DF6008F917F916F915F914F913F912F910F90BE
:080E06000FBE0F901F9018951C
:100E0E001F920F920FB60F9211242F933F934F9371
:100E1E005F936F937F938F939F93AF93BF93EF9354
:100E2E00FF93E091B638F091B738309709F00995F5
:100E3E0080E280930B0AFF91EF91BF91AF919F914A
:100E4E008F917F916F915F914F913F912F910F9065
:080E5E000FBE0F901F901895C4
:100E66001F920F920FB60F9211242F933F934F9319
:100E76005F936F937F938F939F93AF93BF93EF93FC
:100E8600FF93E091B438F091B538309709F00995A1
:100E960080E480930B0AFF91EF91BF91AF919F91F0
:100EA6008F917F916F915F914F913F912F910F900D
:080EB6000FBE0F901F9018956C
:100EBE001F920F920FB60F9211242F933F934F93C1
:100ECE005F936F937F938F939F93AF93BF93EF93A4
:100EDE00FF93E091B238F091B338309709F009954D
:100EEE0081E080930B0AFF91EF91BF91AF919F919B
:100EFE008F917F916F915F914F913F912F910F90B5
:080F0E000FBE0F901F90189513
:100F1600E0E0FAE010A611A612A613A614A615A6DE
:100F260010A211A283E2818387E082831382148256
:100F36001582168217821686118680E482871386AA
:100F460082E19AE786A397A3178685E0808380E0EF
:020F56000895FC
:100F580060E088E790E00E94D80860E08CE790E0C5
:100F68000E94D80860E080E790E00E94D8086AE014
:100F780081E690E00E94D80860E080E690E00E9458
:100F8800D80860E082E690E00E94D80880E00895E2
:100F98001F920F920FB60F9211242F933F938F93A6
:100FA800EF93FF93E0E0F6E081E0838720893189C1
:100FB800E2E2F8E3258336838483FF91EF918F91F2
:0E0FC8003F912F910F900FBE0F901F90189524
:100FD600E0E1F4E0808188608193E83184E0F807FD
:100FE600C9F7E0E3F4E0808188608193E83384E028
:100FF600F807C9F7E0E5F4E0808188608193E83579
:0810060084E0F807C9F7089522
:10100E00E0E0F6E0168A83E0818380E1828313823A
:10101E0014821486118681E08287168288E0858389
:0E102E00148A158A128A138A108280E00895AF
:10103C001F93CF93DF93EC01162F8091021081FD4B
:10104C00FCCF84E00E94B408DC5E188383E00E942D
:0C105C00B40880E0DF91CF911F9108954F
:101068000E9410060E9486080E94A1080E94AC07F0
:101078000E949A080E9407080E94BA080E948B07DB
:081088000E9479080C9448084D
:10109000E0E4FAE08FE99FE0848795871286138663
:1010A00011821086148281E085831682118685E084
:0610B000808380E008953A
:1010B6001F920F920FB60F9211248F9381E08093A7
:0E10C60004108F910F900FBE0F901F90189581
:1010D4001F920F920FB60F9211248F9381E0809389
:0E10E4008A008F910F900FBE0F901F901895ED
:1010F20040E068ED80E191E00E94D008E0E1F1E09B
:0A11020012821382789480E00895B1
:10110C0060E080E890E00E94D808E0E8F0E011860A
:06111C00108680E008953A
:1011220010922D3810922E3810922F38109230389B
:0211320008951E
:0E11340060E080E590E00E94D80880E0089519
:0E11420060E080E091E00E94D80880E008950F
:0C115000E2E2F8E3128A108A118A089586
:0C115C00E0E0F6E0868381E080870895E3
:0C116800482F6DE980E090E10C94D00865
:0C117400E0E0F0E11182138280E00895B9
:0C118000EE0FFF1F0590F491E02D099484
:0A118C008091A2389091A3380895D5
:0A1196008091A2389091A3380895CB
:0811A000FC0164BF40830895C7
:0811A8009C5EFC0180810895AA
:0811B000462F68ED0C94D008F5
:0811B800809129388823089575
:0411C0000C9400008B
:0211C40008958C
:0211C60008958A
:0211C800089588
:0211CA00089586
:0211CC00089584
:0211CE00089582
:1011D0008700FA009900FA00AD00FA00D300FA0087
:1011E000DC00FA00F800FA00FA00E100FA00C8009A
:1011F000FA00B100FA009D00FA008A00FA007900B6
:1012000078000000FA005C00FA005000FA00430089
:10121000FA003700FA002D00FA002200FA00190047
:0C122000FA001000FA000800FA000000BC
:02122C000600BA
:02122E00127A32
:02123000E508CF
:021232009E0418
:02123400E608CA
:02123600E708C7
:02000004008278
:090000000000010000C40700002B
:00000001FF
