:100000000C948D000C94EE0A0C942A090C94EE0AC0
:100010000C94EE0A0C94EE0A0C94EE0A0C94EE0A80
:100020000C942C080C94EE0A0C9478070C94B407EA
:100030000C94F0070C94B7000C94EE0A0C94EE0AA2
:100040000C94EE0A0C94EE0A0C94EE0A0C94EE0A50
:100050000C94D6080C9468080C94EE0A0C94EE0AE2
:100060000C94EE0A0C94EE0A0C94EE0A0C94EE0A30
:100070000C94EE0A0C94EE0A0C94EE0AEC00F900D3
:1000800006011F015D019B01D901170255026202A1
:10009000A002AD025A037303A503B903D503F2030B
:1000A00022043204381B381D80381D381F80381F49
:1000B0003821803821382380382338258038253866
:1000C000278038273829803829382B80382B382D3D
:1000D0000015E0382D382F0015E2382F3831001583
:1000E000E4383138330015E6383338358038353860
:1000F000378038373839803839383B0015E8383B95
:10010000383D0015EA383D383F80383F3841803867
:1001100000381B8038413843800011241FBECFEFC8
:10012000CDBFDFE3DEBFE4EAF0E041E017C0B59108
:10013000A59135912591059107FD0CC0959185916B
:10014000EF01F92FE82F05900D92A217B307D9F709
:10015000FE0104C01D92A217B307E1F7E931F407CD
:0E01600031F70E949A040C94B500F894FFCF7A
:10016E001F920F9200903F000F9211242F933F93F6
:10017E004F935F936F937F938F939F93AF93BF93A1
:10018E00EF93FF93CF93DF93CDB7DEB790910E38F9
:10019E0080910D38981711F01092103880910D380B
:1001AE00882F90E0092E000CAA0BBB0B40E050E00C
:1001BE002BE030E0841B950B2817390708F4DFC1BC
:1001CE00825C9F4FFC010C94E40A85E494E021E0EC
:1001DE00FC01208385E494E022E0FC012083109250
:1001EE001038CEC185E494E021E0FC01208386E442
:1001FE0094E022E0FC01208310921038C1C180915E
:10020E000F388F3130F480910F388F5F80930F3815
:10021E000CC010920F3885E494E021E0FC0120839D
:10022E0087E494E022E0FC01208310921038A8C1EC
:10023E0080911038823078F580910F388F3130F4FC
:10024E0080910F388F5F80930F3807C010920F3850
:10025E00809110388F5F8093103880911038882FDE
:10026E0090E081709927892B59F485E494E021E080
:10027E00FC01208385E494E022E0FC01208380C110
:10028E0085E494E021E0FC01208386E494E022E002
:10029E00FC01208375C185E494E021E0FC012083FC
:1002AE0085E494E022E0FC0120836AC1809110383D
:1002BE00843078F580910F388F3130F480910F387B
:1002CE008F5F80930F3807C010920F3880911038CF
:1002DE008F5F8093103880911038882F90E0817056
:1002EE009927892B59F485E494E021E0FC012083C1
:1002FE0085E494E022E0FC01208342C185E494E091
:10030E0021E0FC01208386E494E022E0FC012083BE
:10031E0037C185E494E021E0FC01208385E494E07C
:10032E0022E0FC0120832CC180911038863078F5B4
:10033E0080910F388F3130F480910F388F5F80931A
:10034E000F3807C010920F38809110388F5F80934E
:10035E00103880911038882F90E081709927892B62
:10036E0059F485E494E021E0FC01208385E494E0D7
:10037E0022E0FC01208304C185E494E021E0FC012D
:10038E00208386E494E022E0FC012083F9C085E41A
:10039E0094E021E0FC01208385E494E022E0FC015E
:1003AE002083EEC080911038883078F580910F3818
:1003BE008F3130F480910F388F5F80930F3807C0E4
:1003CE0010920F38809110388F5F80931038809183
:1003DE001038882F90E081709927892B59F485E485
:1003EE0094E021E0FC01208385E494E022E0FC010E
:1003FE002083C6C085E494E021E0FC01208386E4DE
:10040E0094E022E0FC012083BBC085E494E021E06F
:10041E00FC01208385E494E022E0FC012083B0C03F
:10042E00809110388A3078F580910F388F3130F402
:10043E0080910F388F5F80930F3807C010920F385E
:10044E00809110388F5F8093103880911038882FEC
:10045E0090E081709927892B59F485E494E021E08E
:10046E00FC01208385E494E022E0FC01208388C017
:10047E0085E494E021E0FC01208386E494E022E010
:10048E00FC0120837DC085E494E021E0FC01208303
:10049E0085E494E022E0FC01208372C086E494E0BF
:1004AE0021E0FC01208386E494E022E0FC0120831D
:1004BE001092103865C080911038823078F5809196
:1004CE000F388F3130F480910F388F5F80930F3853
:1004DE0007C010920F38809110388F5F80931038BC
:1004EE0080911038882F90E081709927892B59F4CC
:1004FE0085E494E021E0FC01208385E494E022E091
:10050E00FC0120833DC086E494E021E0FC012083C1
:10051E0086E494E022E0FC01208332C085E494E07E
:10052E0021E0FC01208385E494E022E0FC0120839D
:10053E0027C086E494E021E0FC01208385E494E06A
:10054E0022E0FC012083109210381AC080910F38DF
:10055E008F3130F480910F388F5F80930F380CC03D
:10056E0010920F3887E494E021E0FC01208385E4AB
:10057E0094E022E0FC0120831092103801C00000AC
:10058E0080910D3880930E3888E090E0FC018281D6
:10059E00882F90E088709927892B71F0809103380D
:1005AE00833130F4809103388F5F8093033818C005
:1005BE0081E08093063814C010920338809106387B
:1005CE00882361F09091053881E08927882F90E08B
:1005DE0021E0892B09F420E020930538109206388B
:1005EE0088E090E0FC018281882F90E0847099274A
:1005FE00892B31F180910438833130F480910438A5
:10060E008F5F8093043803C081E080930838809117
:10061E001138823069F58091093890910A38883303
:10062E00914050F48091093890910A380196809348
:10063E00093890930A381CC081E080930B3818C09B
:10064E001092043880910838882319F081E0809345
:10065E000738109208381092093810920A38809193
:10066E000B38882319F081E080930C3810920B38E8
:10067E0080910538882309F408C180913B38909108
:10068E003C38CC01A0E0B0E040E050E027E030E0A4
:10069E00841B950B2817390708F401C1865B9F4F01
:1006AE00FC010C94E40A1092353810923638809181
:1006BE00393890913A38969587959695879596956F
:1006CE008795809337389093383881E090E0809307
:1006DE003B3890933C38E4C0209135383091363811
:1006EE008091393890913A388217930778F4809137
:1006FE00393890913A38809335389093363882E075
:10070E0090E080933B3890933C380EC02091353862
:10071E00309136388091373890913838820F931F48
:10072E00809335389093363880E09AE020913538B2
:10073E0030913638FC0122A733A7B2C080E09AE090
:10074E002091353830913638FC0122A733A783E04B
:10075E0090E080933B3890933C381092333810924F
:10076E0034389EC08091333890913438863C910550
:10077E005CF084E090E080933B3890933C3810928C
:10078E003338109234388CC080913338909134388D
:10079E000196809333389093343882C080913938E3
:1007AE0090913A3880933538909336388091393815
:1007BE0090913A38969587959695879596958795C3
:1007CE00809337389093383885E090E080933B38AB
:1007DE0090933C3865C020913538309136388091F1
:1007EE003738909138388217930788F4209135382E
:1007FE00309136388091373890913838A901481B9E
:10080E00590BCA0180933538909336380AC010922E
:10081E0035381092363886E090E080933B389093CE
:10082E003C3880E09AE02091353830913638FC0122
:10083E0022A733A735C080E09AE0FC0112A613A6CA
:10084E0087E090E080933B3890933C381092333899
:10085E001092343825C080913338909134388D36CB
:10086E0091054CF010923B3810923C381092333870
:10087E001092343815C080913338909134380196E7
:10088E0080933338909334380BC080E09AE0FC01AB
:10089E0012A613A610923B3810923C3801C00000ED
:1008AE00809115388823C9F08091163890911738A9
:1008BE00853D994068F481E0809318388091163810
:1008CE00909117388336994018F481E08093193847
:1008DE0085E00E94BD091092153880913F389091A5
:1008EE004038892B31F080913F3890914038FC018F
:1008FE00099580E49AE021E0FC0126830000DF9157
:10090E00CF91FF91EF91BF91AF919F918F917F9179
:10091E006F915F914F913F912F910F9000923F00F9
:06092E000F901F901895C8
:10093400CF93DF93CDB7DEB70E944C0910920D38E8
:1009440010920538109211381092123884E0809376
:100954001438109218381092193880911138882F51
:1009640090E082309105A9F1833091052CF4009731
:1009740059F00197A9F015C18330910509F408C114
:10098400049709F407C10DC189E080930D38809163
:100994001038823008F400C181E080931138FCC023
:1009A40010920D3880E096E0FC01108280910538A9
:1009B400882309F4F3C082E080931138109212382E
:1009C40080E096E021E0FC01208385E00E94BD09DF
:1009D400E5C080911238882F90E082309105E1F1D2
:1009E400833091052CF4009759F00197A9F09AC02F
:1009F4008330910509F452C0049709F471C092C080
:100A040080911838882321F08BE080930D388AC0B8
:100A140087E080930D3886C080911838882321F0B0
:100A24008BE080930D3803C083E080930D381092DF
:100A34003D3810923E3880913D3890913E38880F71
:100A4400991F880F991F880F991F80569F4F809375
:100A5400393890933A3866C080911838882321F049
:100A64008BE080930D3803C084E080930D3881E0DF
:100A740090E080933D3890933E3880913D3890913A
:100A84003E38880F991F880F991F880F991F805629
:100A94009F4F8093393890933A3844C080911838E6
:100AA400882321F08BE080930D3803C085E0809388
:100AB4000D3882E090E080933D3890933E388091E9
:100AC4003D3890913E38880F991F880F991F880FE1
:100AD400991F80569F4F8093393890933A3822C09B
:100AE40080911838882321F08BE080930D3803C05F
:100AF40086E080930D3883E090E080933D389093B6
:100B04003E3880913D3890913E38880F991F880F68
:100B1400991F880F991F80569F4F8093393890935F
:100B24003A38000080910C38882359F010920C3820
:100B34001092073884E08093143884E0809312384C
:100B440017C080910738882399F010920738809154
:100B54001438843030F4809114388F5F80931438C3
:100B640003C081E080931438809114388093123844
:100B74009091053881E08927882321F480911938E0
:100B8400882371F01092053881E08093113808C0F1
:100B94000000E3CE0000E1CE0000DFCE0000DDCE99
:040BA4000000DBCEA4
:100BA800CF93DF93CDB7DEB70E94E40680E094E0F0
:100BB8002EEDFC01208380E294E02FE3FC012083EA
:100BC80080E494E023E0FC01208380E094E0FC01D1
:100BD800148280E294E0FC01148280E494E023E033
:100BE800FC01248380E094E0FC01108A80E094E01A
:100BF800FC01118A80E094E0FC01128A80E094E014
:100C0800FC01138A80E094E0FC01148A80E094E0FF
:100C1800FC01158A80E094E0FC01168A80E094E0EB
:100C2800FC01178A80E294E0FC01108A80E294E0DB
:100C3800FC01118A80E294E0FC01128A80E294E0CF
:100C4800FC01138A80E294E0FC01148A80E294E0BB
:100C5800FC01158A80E294E0FC01168A80E294E0A7
:100C6800FC01178A80E494E0FC01108A80E494E097
:100C7800FC01118A80E494E0FC01128A80E494E08B
:100C8800FC01138A80E494E0FC01148A80E494E077
:100C9800FC01158A80E494E0FC01168A80E494E063
:100CA800FC01178A80E092E0FC01108280E092E06B
:100CB800FC01118280E092E0FC01128280E092E067
:100CC800FC01138284E89AE00E94D2098CE89AE039
:100CD8000E94E50984E99AE00E94F8098CE99AE003
:100CE8000E940B0A84EA9AE00E941E0A8CEA9AE0A3
:100CF8000E94310A84EB9AE00E94440A8CEB9AE045
:0C0D08000E94570A0000DF91CF9108956F
:100D1400CF93DF93CDB7DEB780E09AE0FC0110A655
:100D240011A680E09AE0FC0112A613A680E09AE0E6
:100D3400FC0114A615A680E09AE0FC0110A211A201
:100D440080E09AE023E2FC01218380E09AE027E03E
:100D5400FC01228380E09AE0FC01138280E09AE0A7
:100D6400FC01148280E09AE0FC01158280E09AE0A4
:100D7400FC01168280E09AE0FC01178280E09AE090
:100D8400FC01168680E09AE0FC01118680E09AE07E
:100D9400FC01128680E09AE0FC01138680E09AE070
:100DA4002FE331E0FC0126A337A380E09AE0FC01A5
:100DB400178680E09AE021E0FC01208380E0DF9147
:040DC400CF9108952E
:100DC800CF93DF9300D01F92CDB7DEB7198212C040
:100DD8008981882F90E0805F9B4F2981222F30E006
:100DE800205F3B4FF90120812860FC012083898125
:100DF8008F5F89838981883058F31A8212C08A816B
:100E0800882F90E0805D9B4F2A81222F30E0205D63
:100E18003B4FF90120812860FC0120838A818F5F84
:100E28008A838A81883058F31B8212C08B81882F6D
:100E380090E0805B9B4F2B81222F30E0205B3B4F63
:100E4800F90120812860FC0120838B818F5F8B83CF
:100E58008B81883058F300002396CDBFDEBFDF9129
:040E6800CF91089589
:100E6C00CF93DF93CDB7DEB780E096E0FC01168A16
:100E7C0080E096E023E0FC01218380E096E020E115
:100E8C00FC01228380E096E0FC01138280E096E076
:100E9C00FC01148280E096E0FC01148680E096E070
:100EAC00FC01118680E096E021E0FC01228780E0C5
:100EBC0096E0FC01168280E096E028E0FC01258398
:100ECC0080E096E0FC01148A158A80E096E0FC0133
:100EDC00128A138A80E096E0FC01108280E0DF9198
:040EEC00CF91089505
:100EF0001F920F9200903F000F9211242F933F9367
:100F00004F935F936F937F938F939F93AF93BF9311
:100F1000EF93FF93CF93DF93CDB7DEB780912B385C
:100F200090912C38892B31F080912B3890912C386E
:100F3000FC01099580E09AE020E1FC012387000094
:100F4000DF91CF91FF91EF91BF91AF919F918F91E1
:100F50007F916F915F914F913F912F910F900092F0
:080F60003F000F901F9018954F
:100F68001F920F9200903F000F9211242F933F93EE
:100F78004F935F936F937F938F939F93AF93BF9399
:100F8800EF93FF93CF93DF93CDB7DEB780912D38E2
:100F980090912E38892B31F080912D3890912E38F0
:100FA800FC01099580E09AE020E2FC01238700001B
:100FB800DF91CF91FF91EF91BF91AF919F918F9169
:100FC8007F916F915F914F913F912F910F90009278
:080FD8003F000F901F901895D7
:100FE0001F920F9200903F000F9211242F933F9376
:100FF0004F935F936F937F938F939F93AF93BF9321
:10100000EF93FF93CF93DF93CDB7DEB780912F3867
:1010100090913038892B31F080912F389091303871
:10102000FC01099580E09AE020E4FC0123870000A0
:10103000DF91CF91FF91EF91BF91AF919F918F91F0
:101040007F916F915F914F913F912F910F900092FF
:081050003F000F901F9018955E
:101058001F920F9200903F000F9211242F933F93FD
:101068004F935F936F937F938F939F93AF93BF93A8
:10107800EF93FF93CF93DF93CDB7DEB780913138ED
:1010880090913238892B31F08091313890913238F3
:10109800FC01099580E09AE021E0FC01238700002B
:1010A800DF91CF91FF91EF91BF91AF919F918F9178
:1010B8007F916F915F914F913F912F910F90009287
:0810C8003F000F901F901895E6
:1010D0001F920F9200903F000F9211242F933F9385
:1010E0004F935F936F937F938F939F93AF93BF9330
:1010F000EF93FF93CF93DF93CDB7DEB78091413865
:1011000090914238892B31F080914138909142384A
:10111000FC01099580E096E022E0FC0123870000B5
:10112000DF91CF91FF91EF91BF91AF919F918F91FF
:101130007F916F915F914F913F912F910F9000920E
:081140003F000F901F9018956D
:10114800CF93DF93CDB7DEB780E49AE02FEF31E09D
:10115800FC012487358780E49AE0FC011286138617
:1011680080E49AE0FC01118280E49AE0FC01108698
:1011780080E49AE0FC01148280E49AE021E0FC011A
:10118800258380E49AE0FC01168280E49AE0FC0161
:10119800118680E49AE021E0FC01208380E0DF9161
:0411A800CF91089546
:1011AC001F920F9200903F000F9211242F938F9358
:1011BC009F93EF93FF93CF93DF93CDB7DEB780E090
:1011CC0096E021E0FC01238780E096E0FC01808919
:1011DC009189809316389093173881E08093153855
:1011EC000000DF91CF91FF91EF919F918F912F9103
:0C11FC000F9000923F000F901F9018957C
:10120800CF93DF93CDB7DEB760E088E790E00E9428
:10121800920960E08CE790E00E94920960E080E724
:1012280090E00E94920960E181E690E00E949209B4
:1012380061E080E690E00E94920960E082E690E03A
:0C1248000E94920980E0DF91CF91089590
:101254001F920F9200903F000F9211242F938F93AF
:101264009F93EF93FF93CF93DF93CDB7DEB780E8DF
:1012740090E021E0FC0122870000DF91CF91FF91F3
:10128400EF919F918F912F910F9000923F000F90BB
:041294001F901895FA
:10129800CF93DF93CDB7DEB70E94D4050E94A8098B
:1012A8000E94770A0E9404090E946A0A0E9436076F
:1012B8000E948A060E947C090E94A4080000DF910F
:0412C800CF91089525
:1012CC00CF93DF9300D01F92CDB7DEB789839A837B
:1012DC006B8389819A814B8168ED0E94EA0A000038
:0C12EC002396CDBFDEBFDF91CF910895A7
:1012F800CF93DF93CDB7DEB760E080E191E00E9445
:10130800660980E191E0FC01128280E191E0FC0134
:0C1318001382789480E0DF91CF9108955B
:10132400CF93DF9300D01F92CDB7DEB789839A8322
:101334006B8389819A814B8168ED0E94EA0A0000DF
:0C1344002396CDBFDEBFDF91CF9108954E
:10135000CF93DF93CDB7DEB760E080E890E00E94E6
:10136000920980E890E0FC01118680E890E0FC01A1
:0A137000108680E0DF91CF91089510
:10137A00CF93DF931F92CDB7DEB7898380E096E0E3
:10138A002981FC01268380E096E021E0FC01208788
:0A139A0000000F90DF91CF9108953D
:1013A400CF93DF9300D0CDB7DEB789839A83898149
:1013B4009A8180931B3890931C3800000F900F90F3
:0613C400DF91CF910895B6
:1013CA00CF93DF9300D0CDB7DEB789839A83898123
:1013DA009A8180931D3890931E3800000F900F90C9
:0613EA00DF91CF91089590
:1013F000CF93DF9300D0CDB7DEB789839A838981FD
:101400009A8180931F389093203800000F900F909E
:06141000DF91CF91089569
:10141600CF93DF9300D0CDB7DEB789839A838981D6
:101426009A81809321389093223800000F900F9074
:06143600DF91CF91089543
:10143C00CF93DF9300D0CDB7DEB789839A838981B0
:10144C009A81809323389093243800000F900F904A
:06145C00DF91CF9108951D
:10146200CF93DF9300D0CDB7DEB789839A8389818A
:101472009A81809325389093263800000F900F9020
:06148200DF91CF910895F7
:10148800CF93DF9300D0CDB7DEB789839A83898164
:101498009A81809327389093283800000F900F90F6
:0614A800DF91CF910895D1
:1014AE00CF93DF9300D0CDB7DEB789839A8389813E
:1014BE009A818093293890932A3800000F900F90CC
:0614CE00DF91CF910895AB
:1014D400CF93DF93CDB7DEB760E080E590E00E9464
:0A14E400920980E0DF91CF91089596
:1014EE00CF93DF93CDB7DEB760E080E091E00E944E
:0A14FE00920980E0DF91CF9108957C
:10150800CF93DF93CDB7DEB70000DF91CF91089579
:10151800CF93DF93CDB7DEB70000DF91CF91089569
:10152800CF93DF93CDB7DEB70000DF91CF91089559
:10153800CF93DF93CDB7DEB70000DF91CF91089549
:10154800CF93DF93CDB7DEB70000DF91CF91089539
:10155800CF93DF93CDB7DEB70000DF91CF91089529
:10156800CF93DF93CDB7DEB70000DF91CF91089519
:10157800CF93DF93CDB7DEB70000DF91CF91089509
:10158800CF93DF93CDB7DEB70000DF91CF910895F9
:10159800CF93DF93CDB7DEB70000DF91CF910895E9
:1015A800CF93DF93CDB7DEB70000DF91CF910895D9
:1015B800CF93DF93CDB7DEB70000DF91CF910895C9
:0C15C800EE0FFF1F0590F491E02D099438
:0815D400FC0164BF408308958F
:0415DC000C9400006B
:0215E000C40A3B
:0215E200CC0A31
:0215E400D40A27
:0215E600DC0A1D
:0215E800A00061
:0215EA000600F9
:02000004008278
:090000000000020000C40700002A
:00000001FF
