:100000000C9494000C94360D0C94390B0C94360D12
:100010000C94360D0C94360D0C94360D0C94360D54
:100020000C94EE090C94360D0C943A090C94760954
:100030000C94B2090C94BE000C94360D0C94360D41
:100040000C94360D0C94360D0C94360D0C94360D24
:100050000C94980A0C942A0A0C94360D0C94360DC4
:100060000C94360D0C94360D0C94360D0C94360D04
:100070000C94360D0C94360D0C94170BF300000104
:100080000D0126016401A201E0011E025C02690269
:10009000A702B402E403FD034104550471048E0475
:1000A000CC04DC04382E3830803830383280383296
:1000B00038348038343836803836383880383838F4
:1000C0003A80383A383C80383C383E80383E3840B8
:1000D000001A7038403842001A7238423844001A08
:1000E0007438443846001A763846384880384838DC
:1000F0004A80384A384C80384C384E001A78384E8E
:100100003850001A7A385038528038583859803868
:10011000523854803800382E80385438568038563B
:100120003858803859385A8011241FBECFEFCDBFC0
:10013000DFE3DEBFE4EAF0E041E017C0B591A5914E
:1001400035912591059107FD0CC095918591EF01A1
:10015000F92FE82F05900D92A217B307D9F7FE01EA
:1001600004C01D92A217B307E1F7E832F40731F794
:0C0170000E9455050C94BC00F894FFCFD1
:10017C001F920F9200903F000F9211242F933F93E8
:10018C004F935F936F937F938F939F93AF93BF9393
:10019C00EF93FF93CF93DF93CDB7DEB790911A38DF
:1001AC0080911938981711F010921C3880911938D9
:1001BC00882F90E0092E000CAA0BBB0B40E050E0FE
:1001CC002BE030E0841B950B2817390708F4DFC1AE
:1001DC00825C9F4FFC010C942C0D85E494E021E093
:1001EC00FC01208385E494E022E0FC012083109242
:1001FC001C38CEC185E494E021E0FC01208386E428
:10020C0094E022E0FC01208310921C38C1C1809143
:10021C001B388F3130F480911B388F5F80931B38E3
:10022C000CC010921B3885E494E021E0FC01208383
:10023C0087E494E022E0FC01208310921C38A8C1D2
:10024C0080911C38823078F580911B388F3130F4D6
:10025C0080911B388F5F80931B3807C010921B381E
:10026C0080911C388F5F80931C3880911C38882FAC
:10027C0090E081709927892B59F485E494E021E072
:10028C00FC01208385E494E022E0FC01208380C102
:10029C0085E494E021E0FC01208386E494E022E0F4
:1002AC00FC01208375C185E494E021E0FC012083EE
:1002BC0085E494E022E0FC0120836AC180911C3823
:1002CC00843078F580911B388F3130F480911B3855
:1002DC008F5F80931B3807C010921B3880911C389D
:1002EC008F5F80931C3880911C38882F90E0817030
:1002FC009927892B59F485E494E021E0FC012083B3
:10030C0085E494E022E0FC01208342C185E494E082
:10031C0021E0FC01208386E494E022E0FC012083B0
:10032C0037C185E494E021E0FC01208385E494E06E
:10033C0022E0FC0120832CC180911C38863078F59A
:10034C0080911B388F3130F480911B388F5F8093F4
:10035C001B3807C010921B3880911C388F5F80931C
:10036C001C3880911C38882F90E081709927892B3C
:10037C0059F485E494E021E0FC01208385E494E0C9
:10038C0022E0FC01208304C185E494E021E0FC011F
:10039C00208386E494E022E0FC012083F9C085E40C
:1003AC0094E021E0FC01208385E494E022E0FC0150
:1003BC002083EEC080911C38883078F580911B38F2
:1003CC008F3130F480911B388F5F80931B3807C0BE
:1003DC0010921B3880911C388F5F80931C38809151
:1003EC001C38882F90E081709927892B59F485E46B
:1003FC0094E021E0FC01208385E494E022E0FC0100
:10040C002083C6C085E494E021E0FC01208386E4CF
:10041C0094E022E0FC012083BBC085E494E021E061
:10042C00FC01208385E494E022E0FC012083B0C031
:10043C0080911C388A3078F580911B388F3130F4DC
:10044C0080911B388F5F80931B3807C010921B382C
:10045C0080911C388F5F80931C3880911C38882FBA
:10046C0090E081709927892B59F485E494E021E080
:10047C00FC01208385E494E022E0FC01208388C009
:10048C0085E494E021E0FC01208386E494E022E002
:10049C00FC0120837DC085E494E021E0FC012083F5
:1004AC0085E494E022E0FC01208372C086E494E0B1
:1004BC0021E0FC01208386E494E022E0FC0120830F
:1004CC0010921C3865C080911C38823078F5809170
:1004DC001B388F3130F480911B388F5F80931B3821
:1004EC0007C010921B3880911C388F5F80931C388A
:1004FC0080911C38882F90E081709927892B59F4B2
:10050C0085E494E021E0FC01208385E494E022E082
:10051C00FC0120833DC086E494E021E0FC012083B3
:10052C0086E494E022E0FC01208332C085E494E070
:10053C0021E0FC01208385E494E022E0FC0120838F
:10054C0027C086E494E021E0FC01208385E494E05C
:10055C0022E0FC01208310921C381AC080911B38B9
:10056C008F3130F480911B388F5F80931B380CC017
:10057C0010921B3887E494E021E0FC01208385E491
:10058C0094E022E0FC01208310921C3801C0000092
:10059C008091193880931A3888E090E0FC018281B0
:1005AC00882F90E088709927892B39F18091033836
:1005BC00893030F4809103388F5F8093033803C007
:1005CC0081E08093063810921138109212381092F4
:1005DC00153880911D388330C1F5809116388C3BCD
:1005EC0030F4809116388F5F809316382EC010929D
:1005FC00163881E08093183828C010920338809107
:10060C000638882381F081E0809305388091143876
:10061C00883030F4809114388F5F8093143803C085
:10062C0081E0809310381092063810921638809121
:10063C0015388D3730F4809115388F5F80931538CD
:10064C0004C0109214381092153888E090E0FC0128
:10065C008281882F90E084709927892B51F18091A9
:10066C000438893030F4809104388F5F80930438DB
:10067C0003C081E08093083880911D388230A1F44A
:10068C008091093890910A388833914050F48091C8
:10069C00093890910A3801968093093890930A385A
:1006AC0003C081E080930B381092113810921238ED
:1006BC0018C01092043880910838882319F081E012
:1006CC0080930738109208381092093810920A3823
:1006DC0080910B38882319F081E080930C381092AC
:1006EC000B3880911D388330A9F48091113890918A
:1006FC0012388335974050F480911138909112380C
:10070C00019680931138909312380AC081E080933F
:10071C00133806C0109211381092123810921338F8
:10072C0080911D38823029F5809128389091293894
:10073C00A0912A38B0912B388437974BA140B10542
:10074C00A0F48091283890912938A0912A38B09142
:10075C002B380196A11DB11D809328389093293810
:10076C00A0932A38B0932B380EC081E080932C389C
:10077C000AC0109228381092293810922A381092F8
:10078C002B3810922C3880912638882309F428C1F4
:10079C0080914E3890914F38CC01A0E0B0E040E011
:1007AC0050E027E030E0841B950B2817390708F43C
:1007BC0021C1865B9F4FFC010C942C0D1092483884
:1007CC001092493880914C3890914D389695879578
:1007DC009695879580934A3890934B3881E090E0BA
:1007EC0080934E3890934F381092583804C18091B2
:1007FC005838843040F5809158388F5F8093583842
:10080C00209148383091493880914C3890914D382E
:10081C002817390778F4209148383091493880915D
:10082C004A3890914B38820F931F8093483890939D
:10083C00493817C080914C3890914D388093483886
:10084C00909349380EC080914C3890914D388093DC
:10085C0048389093493882E090E080934E389093DA
:10086C004F3880E09AE02091483830914938FC01AB
:10087C0022A733A7C0C080E09AE02091483830917D
:10088C004938FC0122A733A783E090E080934E38CF
:10089C0090934F381092463810924738ACC08091E4
:1008AC004638909147388D3691055CF084E090E0A5
:1008BC0080934E3890934F381092463810924738A8
:1008CC009AC080914638909147380196809346386B
:1008DC009093473890C080914C3890914D388093CC
:1008EC0048389093493880914C3890914D38969572
:1008FC0087959695879580934A3890934B3885E0E9
:10090C0090E080934E3890934F381092583873C0C3
:10091C0080915838843030F5809158388F5F8093AF
:10092C005838209148383091493880914A38909104
:10093C004B388217930788F4209148383091493806
:10094C0080914A3890914B38A901481B590BCA0128
:10095C0080934838909349380FC0109248381092C1
:10096C0049380AC0109248381092493886E090E015
:10097C0080934E3890934F3880E09AE0209148381D
:10098C0030914938FC0122A733A735C080E09AE0AA
:10099C00FC0112A613A687E090E080934E3890934A
:1009AC004F38109246381092473825C080914638FF
:1009BC0090914738863C91054CF010924E3810922D
:1009CC004F38109246381092473815C080914638EF
:1009DC0090914738019680934638909347380BC0D6
:1009EC0080E09AE0FC0112A613A610924E381092E9
:1009FC004F3801C0000080912138882351F180913B
:100A0C002238909123388B349A40E0F48091273827
:100A1C008D3030F4809127388F5F8093273803C056
:100A2C0081E08093243880912438882369F0809168
:100A3C00223890912338833D994030F481E08093A3
:100A4C00253802C01092273885E00E94CF0B1092F7
:100A5C0021388091523890915338892B31F0809104
:100A6C00523890915338FC01099580E49AE021E0CA
:100A7C00FC0126830000DF91CF91FF91EF91BF9194
:100A8C00AF919F918F917F916F915F914F913F911A
:0E0A9C002F910F9000923F000F901F90189521
:100AAA00CF93DF93CDB7DEB70E945B0B1092193854
:100ABA001092053810921D3810921E3884E08093E7
:100ACA00203810922438109225381092263880E067
:100ADA0090E00E94910C80935938809159388F3F49
:100AEA0039F484E190E0809350389093513808C0EB
:100AFA0080915938882F90E08093503890935138DC
:100B0A0080911D38882F90E08230910509F44BC0FE
:100B1A00833091052CF4009759F00197A9F000C28F
:100B2A008330910509F469C1049709F4F2C1F8C147
:100B3A0089E08093193880911C38823008F4EBC11F
:100B4A0081E080931D38E7C1109219381092263837
:100B5A0080E096E0FC01108280911038882371F0C1
:100B6A001092103883E080931D3880E096E021E0EF
:100B7A00FC01208385E00E94CF0BCFC1809105380C
:100B8A00882309F4CAC11092053882E080931D387F
:100B9A0010921E3880E096E021E0FC01208385E077
:100BAA000E94CF0BBAC181E08093263880911E380B
:100BBA00882F90E08230910509F457C0833091055F
:100BCA002CF4009759F0019761F1BAC0833091056E
:100BDA0009F46FC0049709F490C0B2C08091243818
:100BEA00882321F08BE08093193803C087E0809333
:100BFA001938809150389091513880935638909393
:100C0A00573880915638909157384496880F991FD3
:100C1A00880F991F880F991F80934C3890934D38ED
:100C2A008FC080912438882321F08BE08093193873
:100C3A0003C083E0809319388091503890915138DD
:100C4A0003978093563890935738809156389091ED
:100C5A0057384496880F991F880F991F880F991F34
:100C6A0080934C3890934D386BC0809124388823F8
:100C7A0021F08BE08093193803C084E080931938FF
:100C8A0080915038909151380297809356389093BA
:100C9A00573880915638909157384496880F991F43
:100CAA00880F991F880F991F80934C3890934D385D
:100CBA0047C080912438882321F08BE0809319382B
:100CCA0003C085E08093193880915038909151384B
:100CDA00019780935638909357388091563890915F
:100CEA0057384496880F991F880F991F880F991FA4
:100CFA0080934C3890934D3823C0809124388823B0
:100D0A0021F08BE08093193803C086E0809319386C
:100D1A008091503890915138809356389093573833
:100D2A0080915638909157384496880F991F880FAA
:100D3A00991F880F991F80934C3890934D38000063
:100D4A0080910C38882359F010920C381092073889
:100D5A0084E08093203884E080931E381FC08091FD
:100D6A0007388823D9F010920738809120388430C8
:100D7A0030F4809120388F5F8093203803C081E05F
:100D8A00809320388091203880931E38109228381A
:100D9A001092293810922A3810922B3880910538EF
:100DAA00882331F01092053881E080931D38B7C04E
:100DBA0080912538882321F081E080931D38AFC0C7
:100DCA0080912C38882371F081E080931D3810922D
:100DDA002C38109228381092293810922A381092FA
:100DEA002B389DC080911038882309F498C010923E
:100DFA00103883E080931D3892C081E080932638B2
:100E0A0080912438882321F08BE08093193803C01D
:100E1A0088E080931938809105388823C9F01092A8
:100E2A0005388091503890915138449750F4809108
:100E3A005038909151380196809350389093513898
:100E4A0058C084E190E0809350389093513851C053
:100E5A00809107388823B9F010920738809150386A
:100E6A0090915138892B51F0809150389091513896
:100E7A00019780935038909351383BC01092503864
:100E8A001092513836C080911838882379F0109220
:100E9A00183881E080931D388091503890915138EC
:100EAA00682F80E090E00E94C60A23C08091133820
:100EBA00882379F01092133881E080931D3880914D
:100ECA00503890915138682F80E090E00E94C60A0D
:100EDA0010C080912538882361F081E080931D3805
:100EEA008091503890915138682F80E090E00E94AC
:100EFA00C60A80915038909151384496880F991FAC
:100F0A00880F991F880F991F80934C3890934D38FA
:100F1A0007C00000F5CD0000F3CD0000F1CD0000C0
:020F2A00EFCD09
:100F2C00CF93DF93CDB7DEB70E94A60880E094E0A4
:100F3C002EEDFC01208380E294E02FE3FC01208362
:100F4C0080E494E023E0FC01208380E094E0FC0149
:100F5C00148280E294E0FC01148280E494E023E0AB
:100F6C00FC01248380E094E0FC01108A80E094E092
:100F7C00FC01118A80E094E0FC01128A80E094E08C
:100F8C00FC01138A80E094E0FC01148A80E094E078
:100F9C00FC01158A80E094E0FC01168A80E094E064
:100FAC00FC01178A80E294E0FC01108A80E294E054
:100FBC00FC01118A80E294E0FC01128A80E294E048
:100FCC00FC01138A80E294E0FC01148A80E294E034
:100FDC00FC01158A80E294E0FC01168A80E294E020
:100FEC00FC01178A80E494E0FC01108A80E494E010
:100FFC00FC01118A80E494E0FC01128A80E494E004
:10100C00FC01138A80E494E0FC01148A80E494E0EF
:10101C00FC01158A80E494E0FC01168A80E494E0DB
:10102C00FC01178A80E092E0FC01108280E092E0E3
:10103C00FC01118280E092E0FC01128280E092E0DF
:10104C00FC0113828CEC9CE00E94F90B84ED9CE07B
:10105C000E940C0C8CED9CE00E941F0C84EE9CE01A
:10106C000E94320C8CEE9CE00E94450C84EF9CE0BC
:10107C000E94580C8CEF9CE00E946B0C84E09DE06D
:0C108C000E947E0C0000DF91CF910895BF
:10109800CF93DF93CDB7DEB780E09AE0FC0110A6CE
:1010A80011A680E09AE0FC0112A613A680E09AE05F
:1010B800FC0114A615A680E09AE0FC0110A211A27A
:1010C80080E09AE023E2FC01218380E09AE027E0B7
:1010D800FC01228380E09AE0FC01138280E09AE020
:1010E800FC01148280E09AE0FC01158280E09AE01D
:1010F800FC01168280E09AE0FC01178280E09AE009
:10110800FC01168680E09AE0FC01118680E09AE0F6
:10111800FC01128680E09AE0FC01138680E09AE0E8
:101128002FE331E0FC0126A337A380E09AE0FC011D
:10113800178680E09AE021E0FC01208380E0DF91BF
:04114800CF910895A6
:10114C00CF93DF9300D01F92CDB7DEB7198212C0B8
:10115C008981882F90E0805F9B4F2981222F30E07E
:10116C00205F3B4FF90120812860FC01208389819D
:10117C008F5F89838981883058F31A8212C08A81E3
:10118C00882F90E0805D9B4F2A81222F30E0205DDC
:10119C003B4FF90120812860FC0120838A818F5FFD
:1011AC008A838A81883058F31B8212C08B81882FE6
:1011BC0090E0805B9B4F2B81222F30E0205B3B4FDC
:1011CC00F90120812860FC0120838B818F5F8B8348
:1011DC008B81883058F300002396CDBFDEBFDF91A2
:0411EC00CF91089502
:1011F000CF93DF93CDB7DEB780E096E0FC01168A8F
:1012000080E096E023E0FC01218380E096E020E18D
:10121000FC01228380E096E0FC01138280E096E0EE
:10122000FC01148280E096E0FC01148680E096E0E8
:10123000FC01118680E096E021E0FC01228780E03D
:1012400096E0FC01168280E096E028E0FC01258310
:1012500080E096E0FC01148A158A80E096E0FC01AB
:10126000128A138A80E096E0FC01108280E0DF9110
:04127000CF9108957D
:101274001F920F9200903F000F9211242F933F93DF
:101284004F935F936F937F938F939F93AF93BF938A
:10129400EF93FF93CF93DF93CDB7DEB780913E38C2
:1012A40090913F38892B31F080913E3890913F38AE
:1012B400FC01099580E09AE020E1FC01238700000D
:1012C400DF91CF91FF91EF91BF91AF919F918F915A
:1012D4007F916F915F914F913F912F910F90009269
:0812E4003F000F901F901895C8
:1012EC001F920F9200903F000F9211242F933F9367
:1012FC004F935F936F937F938F939F93AF93BF9312
:10130C00EF93FF93CF93DF93CDB7DEB78091403847
:10131C0090914138892B31F080914038909141382F
:10132C00FC01099580E09AE020E2FC012387000093
:10133C00DF91CF91FF91EF91BF91AF919F918F91E1
:10134C007F916F915F914F913F912F910F900092F0
:08135C003F000F901F9018954F
:101364001F920F9200903F000F9211242F933F93EE
:101374004F935F936F937F938F939F93AF93BF9399
:10138400EF93FF93CF93DF93CDB7DEB780914238CD
:1013940090914338892B31F08091423890914338B1
:1013A400FC01099580E09AE020E4FC012387000019
:1013B400DF91CF91FF91EF91BF91AF919F918F9169
:1013C4007F916F915F914F913F912F910F90009278
:0813D4003F000F901F901895D7
:1013DC001F920F9200903F000F9211242F933F9376
:1013EC004F935F936F937F938F939F93AF93BF9321
:1013FC00EF93FF93CF93DF93CDB7DEB78091443853
:10140C0090914538892B31F0809144389091453832
:10141C00FC01099580E09AE021E0FC0123870000A3
:10142C00DF91CF91FF91EF91BF91AF919F918F91F0
:10143C007F916F915F914F913F912F910F900092FF
:08144C003F000F901F9018955E
:101454001F920F9200903F000F9211242F933F93FD
:101464004F935F936F937F938F939F93AF93BF93A8
:10147400EF93FF93CF93DF93CDB7DEB780915438CA
:1014840090915538892B31F080915438909155388A
:10149400FC01099580E096E022E0FC01238700002E
:1014A400DF91CF91FF91EF91BF91AF919F918F9178
:1014B4007F916F915F914F913F912F910F90009287
:0814C4003F000F901F901895E6
:1014CC00CF93DF93CDB7DEB780E49AE02FEF31E016
:1014DC00FC012487358780E49AE0FC011286138690
:1014EC0080E49AE0FC01118280E49AE0FC01108611
:1014FC0080E49AE0FC01148280E49AE021E0FC0193
:10150C00258380E49AE0FC01168280E49AE0FC01D9
:10151C00118680E49AE021E0FC01208380E0DF91D9
:04152C00CF910895BE
:101530001F920F9200903F000F9211242F938F93D0
:101540009F93EF93FF93CF93DF93CDB7DEB780E008
:1015500096E021E0FC01238780E096E0FC01808991
:101560009189809322389093233881E080932138A9
:101570000000DF91CF91FF91EF919F918F912F917B
:0C1580000F9000923F000F901F901895F4
:10158C00CF93DF9300D01F92CDB7DEB789839A83B8
:10159C006B83000080E090E1FC018281882F90E059
:1015AC0082709927892BB1F764E080E090E10E946A
:1015BC00A30B89819A819C5E2B81FC01208363E0C3
:1015CC0080E090E10E94A30B80E02396CDBFDEBFAC
:0615DC00DF91CF9108959C
:1015E200CF93DF93CDB7DEB760E088E790E00E944B
:1015F200B90B60E08CE790E00E94B90B60E080E7F5
:1016020090E00E94B90B60E181E690E00E94B90B84
:1016120061E080E690E00E94B90B60E082E690E033
:0C1622000E94B90B80E0DF91CF91089589
:10162E001F920F9200903F000F9211242F938F93D1
:10163E009F93EF93FF93CF93DF93CDB7DEB780E009
:10164E0090E121E0FC0124830000DF91CF91FF9116
:10165E00EF919F918F912F910F9000923F000F90DD
:04166E001F9018951C
:101672001F920F9200903F000F9211242F938F938D
:101682009F93EF93FF93CF93DF93CDB7DEB780E8BD
:1016920090E021E0FC0122870000DF91CF91FF91D1
:1016A200EF919F918F912F910F9000923F000F9099
:0416B2001F901895D8
:1016B600CF93DF93CDB7DEB70E9496070E94E40B67
:1016C6000E94BF0C0E94F10A0E94B20C0E94F80808
:1016D6000E944C080E94A20C0E948D0B0E94660A72
:0816E6000000DF91CF9108958F
:1016EE00CF93DF9300D01F92CDB7DEB789839A8355
:1016FE006B8389819A814B8168ED0E94320D0000C7
:0C170E002396CDBFDEBFDF91CF91089580
:10171A00CF93DF93CDB7DEB760E080E191E00E941E
:10172A00770B80E191E0FC01128280E191E0FC01FB
:0C173A001382789480E0DF91CF91089535
:10174600CF93DF9300D01F92CDB7DEB789839A83FC
:101756006B8389819A814B816DE90E94320D00006D
:0C1766002396CDBFDEBFDF91CF91089528
:10177200CF93DF9300D01F92CDB7DEB789839A83D0
:101782006B8389819A814B8168ED0E94320D000042
:0C1792002396CDBFDEBFDF91CF910895FC
:10179E00CF93DF931F92CDB7DEB7898380E096E0BB
:1017AE002981FC01268380E096E021E0FC01208760
:0A17BE0000000F90DF91CF91089515
:1017C800CF93DF93CDB7DEB760E080E890E00E946A
:1017D800B90B80E890E0FC01118680E890E0FC01FC
:0A17E800108680E0DF91CF91089594
:1017F200CF93DF9300D0CDB7DEB789839A838981F7
:101802009A8180932E3890932F3800000F900F907A
:06181200DF91CF91089563
:10181800CF93DF9300D0CDB7DEB789839A838981D0
:101828009A81809330389093313800000F900F9050
:06183800DF91CF9108953D
:10183E00CF93DF9300D0CDB7DEB789839A838981AA
:10184E009A81809332389093333800000F900F9026
:06185E00DF91CF91089517
:10186400CF93DF9300D0CDB7DEB789839A83898184
:101874009A81809334389093353800000F900F90FC
:06188400DF91CF910895F1
:10188A00CF93DF9300D0CDB7DEB789839A8389815E
:10189A009A81809336389093373800000F900F90D2
:0618AA00DF91CF910895CB
:1018B000CF93DF9300D0CDB7DEB789839A83898138
:1018C0009A81809338389093393800000F900F90A8
:0618D000DF91CF910895A5
:1018D600CF93DF9300D0CDB7DEB789839A83898112
:1018E6009A8180933A3890933B3800000F900F907E
:0618F600DF91CF9108957F
:1018FC00CF93DF9300D0CDB7DEB789839A838981EC
:10190C009A8180933C3890933D3800000F900F9053
:06191C00DF91CF91089558
:10192200CF93DF9300D0CDB7DEB789839A838981C5
:101932009A819C5EFC0180810F900F90DF91CF9184
:02194200089506
:10194400CF93DF93CDB7DEB780E090E1FC01118245
:1019540080E090E1FC01138280E0DF91CF91089553
:10196400CF93DF93CDB7DEB760E080E590E00E94CF
:0A197400B90B80E0DF91CF910895D8
:10197E00CF93DF93CDB7DEB760E080E091E00E94B9
:0A198E00B90B80E0DF91CF910895BE
:10199800CF93DF93CDB7DEB70000DF91CF910895E5
:1019A800CF93DF93CDB7DEB70000DF91CF910895D5
:1019B800CF93DF93CDB7DEB70000DF91CF910895C5
:1019C800CF93DF93CDB7DEB70000DF91CF910895B5
:1019D800CF93DF93CDB7DEB70000DF91CF910895A5
:1019E800CF93DF93CDB7DEB70000DF91CF91089595
:1019F800CF93DF93CDB7DEB70000DF91CF91089585
:101A0800CF93DF93CDB7DEB70000DF91CF91089574
:101A1800CF93DF93CDB7DEB70000DF91CF91089564
:101A2800CF93DF93CDB7DEB70000DF91CF91089554
:101A3800CF93DF93CDB7DEB70000DF91CF91089544
:101A4800CF93DF93CDB7DEB70000DF91CF91089534
:0C1A5800EE0FFF1F0590F491E02D0994A3
:081A6400FC0164BF40830895FA
:041A6C000C940000D6
:021A70000C0D5B
:021A7200140D51
:021A74001C0D47
:021A7600240D3D
:021A7800A000CC
:021A7A00060064
:02000004008278
:090000000000020000C40700002A
:00000001FF
