:100000000C948A000C94F6070C9498070C94F6074D
:100010000C94F6070C948B050C94F6070C94F607D9
:100020000C944F060C94F6070C94CB050C94F70532
:100030000C9423060C94B4000C94F6070C94F60769
:100040000C94F6070C94F6070C94F6070C94F6073C
:100050000C94E7060C947B060C94F6070C94F607B8
:100060000C94F6070C94F6070C94F6070C94F6071C
:100070000C94F6070C94F6070C948907D900DD0060
:10008000E100EF00F500FB000101070125012C0153
:1000900053015701610274029502A002AB02C8022B
:1000A000F502000338303832803832383480383442
:1000B000383680383638388038003830803838382C
:1000C0003A000FFE383A383C001000383C383E0009
:1000D0001002383E38400010043840384280385210
:1000E0003853803842384480384438460010063847
:1000F0004638480010083848384A80384A384C801A
:10010000384C384E80384E38508038533854803808
:100110005038528011241FBECFEFCDBFDFE3DEBFCA
:10012000E4EAF0E041E017C0B591A5913591259141
:10013000059107FD0CC095918591EF01F92FE82FEE
:1001400005900D92A217B307D9F7FE0104C01D92C6
:10015000A217B307E1F7E431F40731F70E947E03F9
:080160000C94B200F894FFCFEB
:100168001F920F920FB60F9211242F933F934F9324
:100178005F936F937F938F939F93AF93BF93EF9307
:10018800FF9390911A3880911938981310921C385F
:10019800E09119388E2F90E08C30910508F097C0C7
:1001A800FC01E25CFF4F0C94DF0781E0809345047B
:1001B80089C081E08093450447C080911B388F3106
:1001C80008F475C010921B3881E08093450482E0E2
:1001D800809347047AC080911C38823008F058C058
:1001E80017C080911C38843008F052C011C080912B
:1001F8001C38863008F04CC00BC080911C38883001
:1002080008F046C005C080911C388A3008F040C00C
:1002180080911B388F3130F480911B388F5F809329
:100228001B3807C010921B3880911C388F5F809351
:100238001C3880911C3880FF2BC081E080934504D6
:1002480023C081E08093460482E0809346043DC049
:1002580080911C388230E0F480911B388F3130F463
:1002680080911B388F5F80931B3807C010921B3812
:1002780080911C388F5F80931C3880911C3880FFD8
:1002880007C081E08093460482E0809346041FC043
:1002980081E08093450482E08093450418C081E0A2
:1002A800809346040FC080911B388F3130F48091C1
:1002B8001B388F5F80931B3808C010921B3881E071
:1002C8008093470482E08093450410921C38809103
:1002D800193880931A3880911D38539B25C0909106
:1002E8000338993030F4909103389F5F9093033826
:1002F80003C091E09093063810921138109212388A
:10030800109215388330B9F5909116389C3B30F42B
:10031800909116389F5F909316382DC0109216381A
:1003280091E09093183827C01092033890910638BE
:10033800992379F091E0909305382091143828306A
:1003480030F4909114389F5F9093143802C09093C2
:1003580010381092063810921638909115389D373B
:1003680030F4909115389F5F9093153804C010921F
:10037800143810921538529B29C09091043899303E
:1003880030F4909104389F5F9093043803C091E053
:10039800909308388230A9F42091093830910A38AE
:1003A8002833314058F42091093830910A382F5FAA
:1003B8003F4F2093093830930A3803C091E0909357
:1003C8000B38109211381092123818C01092043855
:1003D80090910838992319F091E09093073810927A
:1003E80008381092093810920A3890910B389923DE
:1003F80019F091E090930C3810920B388330A9F4DF
:1004080080911138909112388335974050F480913B
:1004180011389091123801968093113890931238C0
:1004280031C081E0809313382DC01092113810929A
:10043800123810921338823029F58091283890911B
:100448002938A0912A38B0912B388437974BA1408E
:10045800B105A0F48091283890912938A0912A38C4
:10046800B0912B380196A11DB11D80932838909327
:100478002938A0932A38B0932B380EC081E0809396
:100488002C380AC0109228381092293810922A382D
:1004980010922B3810922C3880912638882309F432
:1004A800C5C0E0914438F0914538E830F10508F0CE
:1004B800C5C0E65BFF4F0C94DF0710924A381092D4
:1004C8004B38809146389091473863E070E00E943D
:1004D8006307609348387093493881E090E04DC0D5
:1004E80020914A3830914B3880914638909147385E
:1004F8008217930758F48091463890914738809333
:100508004A3890934B3882E090E05EC020914A3898
:1005180030914B388091483890914938820F931F19
:1005280048C080914A3890914B3880932A0A90931A
:100538002B0A83E090E05BC080914C3890914D3855
:100548008D3691050CF468C084E090E050C080912D
:1005580046389091473880934A3890934B38809129
:1005680046389091473863E070E00E9463076093D3
:1005780048387093493885E090E0809344389093E8
:100588004538109252385AC020914A3830914B3829
:1005980080914838909149388217930778F4809170
:1005A8004A3890914B382091483830914938821B0D
:1005B800930B80934A3890934B380AC010924A386C
:1005C80010924B3886E090E08093443890934538F9
:1005D80080914A3890914B3880932A0A90932B0A3D
:1005E8002DC010922A0A10922B0A87E090E080937F
:1005F8004438909345380BC080914C3890914D38D1
:10060800863C91054CF0109244381092453810926F
:100618004C3810924D3812C080914C3890914D381A
:10062800019680934C3890934D3808C010922A0A4E
:1006380010922B0A10924438109245388091213834
:10064800882351F180912238909123388B349A4035
:10065800E0F4809127388D3030F4809127388F5F0F
:100668008093273803C081E0809324388091243810
:10067800882369F08091223890912338833D9940EE
:1006880030F481E08093253802C01092273885E045
:100698000E94CD071092213880911D38813069F46D
:1006A80090912D389F3330F480912D388F5F80934F
:1006B8002D3805C080932E3802C010922D38E09155
:1006C8004038F0914138309709F0099581E08093DE
:1006D800460AFF91EF91BF91AF919F918F917F91C2
:1006E8006F915F914F913F912F910F900FBE0F9097
:0406F8001F901895A2
:1006FC000E944F07109219381092053810921D382D
:10070C0010921E3884E08093203810922438109276
:10071C0025381092263810922E3810922D3880E001
:10072C0090E00E94EE07809353388F3F19F484E1D8
:10073C0090E001C090E08093423890934338C1E040
:10074C0034E1E32EF12C48E0D42EDBE059E0C52E49
:10075C0004E062E0B62E1EE376E0A72EE7E09E2EC4
:10076C0080911D388230E9F128F4882351F08130D2
:10077C0089F0F8CF833009F4F5C0843009F461C1F5
:10078C00F1CFC092193880911C38823048F3C09355
:10079C001D38E6CF109219381092263810920006A8
:1007AC0090911038992331F01092103893E0909377
:1007BC001D380AC090910538992361F010920538C4
:1007CC00B0921D3810921E388093000685E00E946E
:1007DC00CD0705C080912E38811100931D3843E060
:1007EC002AC1C093263880911E38823019F128F422
:1007FC00882349F0813071F062C0833051F184302C
:10080C0009F441C05CC080912438811140C09092A1
:10081C00193842C080912438882319F0D0931938A4
:10082C0003C083E08093193880914238909143380B
:10083C0003971EC080912438882319F0D09319385F
:10084C0002C0009319388091423890914338029736
:10085C000FC080912438882319F0D093193803C025
:10086C0085E08093193880914238909143380197F4
:10087C008093503890935138189F9001199F300DE8
:10088C001124C90116C080912438882319F0D09303
:10089C00193802C0A092193820914238309143384F
:1008AC002093503830935138129FC001139F900DF4
:1008BC0011248F519B4F80934638909347388091E9
:1008CC000C38882349F010920C381092073800939A
:1008DC00203800931E381CC0809107388823C1F043
:1008EC001092073880912038843020F48F5F8093E9
:1008FC00203802C0C09320388091203880931E3855
:10090C00109228381092293810922A3810922B38CD
:10091C0080910538882319F01092053804C0809115
:10092C002538882319F0C0931D3884C080912C3849
:10093C00882369F0C0931D3810922C3810922838F7
:10094C001092293810922A3810922B3873C080914B
:10095C001038882309F46EC01092103883E080930D
:10096C001D3868C0C093263880912438882319F02C
:10097C00D093193802C0D092193880910538882349
:10098C0099F01092053880914238909143384497F1
:10099C0030F48091423890914338019616C0E09221
:1009AC004238F092433837C0809107388823B9F029
:1009BC00109207388091423890914338892B51F02E
:1009CC0080914238909143380197809342389093AC
:1009DC00433821C010924238109243381CC0809189
:1009EC001838882319F0109218380BC080911338DE
:1009FC00882319F01092133804C08091253888236D
:100A0C0051F0C0931D38609142387091433880E0AA
:100A1C0090E00E943907809142389091433823E04E
:100A2C00880F991F2A95E1F78F519B4F8093463879
:100A3C009093473840E068ED80E590E00E94EA072B
:0E0A4C008FCE889580912E3881118ACEA0CE53
:100A5A00CF93DF930E940607C0E0D4E08EED88832F
:100A6A00A0E2B4E08FE38C93E0E4F4E083E08083D7
:100A7A001C8214961C9214978483188A198A1A8ADB
:100A8A001B8A1C8A1D8A1E8A1F8A50961C9250979E
:100A9A0051961C92519752961C92529753961C92B9
:100AAA00539754961C92549755961C92559756965E
:100ABA001C92569757961C92108A118A128A81E0C4
:100ACA00838B148A158A168A178AE0E0F2E010826C
:100ADA0011821282138285EE97E0809336389093C2
:100AEA00373889EF97E080933438909335388AEF16
:100AFA0097E0809332389093333888EF97E0809369
:0C0B0A00303890933138DF91CF9108957E
:100B16001F920F920FB60F9211242F933F934F936C
:100B26005F936F937F938F939F93AF93BF93EF934F
:100B3600FF935B9B05C0E0913638F09137380995F5
:100B4600589B05C0E0913438F091353809955A9B89
:100B560005C0E0913238F09133380995599B05C0AC
:100B6600E0913038F091313809958FEF8BB9FF91CC
:100B7600EF91BF91AF919F918F917F916F915F910F
:100B86004F913F912F910F900FBE0F901F90189588
:100B96001F920F920FB60F9211242F933F934F93EC
:100BA6005F936F937F938F939F93AF93BF93EF93CF
:100BB600FF93E0913E38F0913F38309709F0099560
:100BC60080E180930B0AFF91EF91BF91AF919F91C6
:100BD6008F917F916F915F914F913F912F910F90E0
:080BE6000FBE0F901F9018953F
:100BEE001F920F920FB60F9211242F933F934F9394
:100BFE005F936F937F938F939F93AF93BF93EF9377
:100C0E00FF93E0913C38F0913D38309709F009950B
:100C1E0080E280930B0AFF91EF91BF91AF919F916C
:100C2E008F917F916F915F914F913F912F910F9087
:080C3E000FBE0F901F901895E6
:100C46001F920F920FB60F9211242F933F934F933B
:100C56005F936F937F938F939F93AF93BF93EF931E
:100C6600FF93E0913A38F0913B38309709F00995B7
:100C760080E480930B0AFF91EF91BF91AF919F9112
:100C86008F917F916F915F914F913F912F910F902F
:080C96000FBE0F901F9018958E
:100C9E001F920F920FB60F9211242F933F934F93E3
:100CAE005F936F937F938F939F93AF93BF93EF93C6
:100CBE00FF93E0913838F0913938309709F0099563
:100CCE0081E080930B0AFF91EF91BF91AF919F91BD
:100CDE008F917F916F915F914F913F912F910F90D7
:080CEE000FBE0F901F90189536
:100CF6001F920F920FB60F9211242F933F934F938B
:100D06005F936F937F938F939F93AF93BF93EF936D
:100D1600FF93E0914E38F0914F38309709F00995DE
:100D260082E080930B06FF91EF91BF91AF919F9167
:100D36008F917F916F915F914F913F912F910F907E
:080D46000FBE0F901F901895DD
:100D4E00E0E0FAE010A611A612A613A614A615A6A8
:100D5E0010A211A283E2818387E082831382148220
:100D6E00158216821782168611861286138683ECDA
:100D7E0099E086A397A3178681E0808380E008958B
:100D8E0060E088E790E00E94F20760E08CE790E078
:100D9E000E94F20760E080E790E00E94F2076BE0AD
:100DAE0081E690E00E94F20760E080E690E00E940B
:100DBE00F20760E082E690E00E94F20780E008957C
:100DCE001F920F920FB60F9211242F933F938F9372
:100DDE00EF93FF93E0E0F6E081E08387208931898D
:100DEE00EDE1F8E3258336838483FF91EF918F91B4
:0E0DFE003F912F910F900FBE0F901F901895F0
:100E0C00E0E1F4E0808188608193E83184E0F807C8
:100E1C00C9F7E0E3F4E0808188608193E83384E0F3
:100E2C00F807C9F7E0E5F4E0808188608193E83544
:080E3C0084E0F807C9F70895EE
:100E4400E0E0F6E0168A83E0818380E18283138206
:100E540014821486118681E08287168288E0858355
:0E0E6400148A158A128A138A108280E008957B
:100E72001F93CF93DF93EC01162F8091021081FD17
:100E8200FCCF84E00E94D307DC5E188383E00E94DB
:0C0E9200D30780E0DF91CF911F910895FD
:100E9E000E942D050E94B4070E94C6070E94BF073C
:100EAE000E94C7060E9422070E94D9070E94A70629
:080EBE000E94A7070C947707BE
:100EC600AA1BBB1B51E107C0AA1FBB1FA617B7076A
:100ED60010F0A61BB70B881F991F5A95A9F7809586
:080EE6009095BC01CD010895B7
:100EEE00E0E4FAE08FE99FE0848795871286138607
:100EFE0011821086148281E085831682118680838A
:040F0E0080E00895E2
:100F12001F920F920FB60F9211248F9381E080934C
:0E0F220004108F910F900FBE0F901F90189526
:100F30001F920F920FB60F9211248F9381E080932E
:0E0F40008A008F910F900FBE0F901F90189592
:100F4E0040E068ED80E191E00E94EA07E0E1F1E027
:0A0F5E0012821382789480E0089557
:100F680060E080E890E00E94F207E0E8F0E0118697
:060F7800108680E00895E0
:0E0F7E0060E080E590E00E94F20780E00895B8
:0E0F8C0060E080E091E00E94F20780E00895AE
:0C0F9A00E0E0F6E0868381E080870895A7
:0C0FA600482F6DE980E090E10C94EA0710
:0C0FB200E0E0F0E11182138280E008957D
:0C0FBE00EE0FFF1F0590F491E02D099448
:0A0FCA00EDE1F8E3118A108A0895A2
:080FD400FC0164BF4083089595
:080FDC009C5EFC018081089578
:080FE400462F68ED0C94EA07AA
:040FEC000C94000061
:020FF000089562
:020FF200089560
:020FF40008955E
:020FF60008955C
:020FF80008955A
:020FFA00089558
:020FFC00089556
:020FFE00FB07EF
:02100000FC07EB
:02100200FE07E7
:02100400FD07E6
:021006000600E2
:02100800E10401
:02000004008278
:090000000000010000C40700002B
:00000001FF
