:100000000C9468000C94FD030C94B8030C94FD034D
:100010000C94FD030C94FD030C94FD030C94FD0360
:100020000C9403030C94FD030C947F020C94AB021C
:100030000C94D7020C9492000C94FD030C94FD03D5
:100040000C94FD030C94FD030C94FD030C94FD0330
:100050000C94FD030C94FD030C94FD030C94FD0320
:100060000C94FD030C94FD030C94FD030C94FD0310
:100070000C94FD030C94FD030C94FD032B0144012F
:1000800075018801A401C101EE01FD01380C380E93
:10009000000806380E38100008083810381200081A
:1000A0000A3812381400080C3814381680381638FC
:1000B0001800080E3818381A000810381A381C8032
:1000C000381C381E80381E3820803800380C8000DC
:1000D00011241FBECFEFCDBFDFE3DEBFECE8F0E0C1
:1000E00040E017C0B591A59135912591059107FD87
:1000F0000CC095918591EF01F92FE82F05900D9295
:10010000A217B307D9F7FE0104C01D92A217B307C7
:10011000E1F7EF3CF40731F70E94FA030C949000EA
:04012000F894FFCF81
:100124001F920F920FB60F9211242F933F934F9368
:100134005F936F937F938F939F93AF93BF93EF934B
:10014400FF93E8E0F8E382E0808380818230C9F0A5
:1001540028F4882341F0813069F033C0883021F1DC
:100164008A3049F12EC0E5E4F4E081E0808382E046
:10017400808327C081E08093450482E08093460415
:1001840020C080910A388F3130F4E8E0F8E38281AE
:100194008F5F828316C010920A3881E080934504F1
:1001A40082E0809347040DC0E6E4F4E081E08083BC
:1001B40082E0808306C081E08093460482E08093DD
:1001C4004504529B0EC080910238833130F4E2E042
:1001D400F8E380818F5F808310C081E080930538CD
:1001E4000CC0E2E0F8E310828381882321F092813D
:1001F40081E08927828310920538539B0EC0809139
:100204000338833130F4E2E0F8E381818F5F818346
:100214000FC081E0809307380BC0E2E0F8E311825D
:100224008581882319F081E080930638109207387D
:1002340080910438882309F4F8C0E0911638F091CD
:100244001738E830F10508F0F8C0E25CFF4F0C9471
:10025400F00310921C3810921D3880911838909138
:100264001938969587959695879596958795809351
:100274001A3890931B3881E090E08093163890935D
:100284001738DBC020911C3830911D388091183804
:10029400909119388217930778F4809118389091C7
:1002A400193880931C3890931D3882E090E0809335
:1002B4001638909317380EC020911C3830911D3891
:1002C40080911A3890911B38820F931F80931C38A9
:1002D40090931D3880911C3890911D3880932A0A80
:1002E40090932B0AAAC080911C3890911D3880935A
:1002F4002A0A90932B0A83E090E080931638909317
:10030400173810921E3810921F3897C080911E38EB
:1003140090911F38863C91055CF084E090E08093D6
:1003240016389093173810921E3810921F3885C0D3
:1003340080911E3890911F38019680931E389093B7
:100344001F387BC0809118389091193880931C38DD
:1003540090931D3880911838909119389695879507
:10036400969587959695879580931A3890931B3820
:1003740085E090E080931638909317385EC0209102
:100384001C3830911D3880911A3890911B3882178F
:10039400930778F480911C3890911D3820911A3875
:1003A40030911B38821B930B80931C3890931D381B
:1003B4000AC010921C3810921D3886E090E0809399
:1003C40016389093173880911C3890911D3880937B
:1003D4002A0A90932B0A31C010922A0A10922B0AEF
:1003E40087E090E0809316389093173810921E3867
:1003F40010921F3822C080911E3890911F388D367C
:1004040091054CF0109216381092173810921E383D
:1004140010921F3812C080911E3890911F38019697
:1004240080931E3890931F3808C010922A0A1092A5
:100434002B0A1092163810921738E0911438F09164
:100444001538309709F0099581E08093460AFF91A9
:10045400EF91BF91AF919F918F917F916F915F9138
:100464004F913F912F910F900FBE0F901F901895B1
:10047400CF93DF930E947903C0E0D4E080E28883C5
:10048400A0E2B4E087E08C93E0E4F4E083E08083CE
:100494001C8214961C9214978483188A198A1A8AC7
:1004A4001B8A1C8A1D8A1E8A1F8A50961C9250978A
:1004B40051961C92519752961C92529753961C92A5
:1004C400539754961C92549755961C92559756964A
:1004D4001C92569757961C92108A118A128A138A74
:1004E400148A158A168A178AE0E0F2E010821182D3
:0A04F40012821382DF91CF91089568
:1004FE001F920F920FB60F9211242F933F934F938B
:10050E005F936F937F938F939F93AF93BF93EF936D
:10051E00FF93E0911238F0911338309709F0099556
:10052E0080E180930B0AFF91EF91BF91AF919F9164
:10053E008F917F916F915F914F913F912F910F907E
:08054E000FBE0F901F901895DD
:100556001F920F920FB60F9211242F933F934F9332
:100566005F936F937F938F939F93AF93BF93EF9315
:10057600FF93E0911038F0911138309709F0099502
:1005860080E280930B0AFF91EF91BF91AF919F910B
:100596008F917F916F915F914F913F912F910F9026
:0805A6000FBE0F901F90189585
:1005AE001F920F920FB60F9211242F933F934F93DA
:1005BE005F936F937F938F939F93AF93BF93EF93BD
:1005CE00FF93E0910E38F0910F38309709F00995AE
:1005DE0080E480930B0AFF91EF91BF91AF919F91B1
:1005EE008F917F916F915F914F913F912F910F90CE
:0805FE000FBE0F901F9018952D
:100606001F920F920FB60F9211242F933F934F9381
:100616005F936F937F938F939F93AF93BF93EF9364
:10062600FF93E0910C38F0910D38309709F0099559
:1006360081E080930B0AFF91EF91BF91AF919F915B
:100646008F917F916F915F914F913F912F910F9075
:080656000FBE0F901F901895D4
:10065E0040E068ED88E790E00E94F60340E068ED28
:10066E008CE790E00E94F60340E068ED80E790E0B2
:10067E000E94F60340E168ED81E690E00E94F603E9
:10068E0041E068ED80E690E00E94F60340E068ED00
:0C069E0082E690E00E94F60380E00895E0
:1006AA00E0E0FAE08FE190E080A791A72FE330E045
:1006BA0022A733A784A795A710A211A283E2818358
:1006CA0087E0828313821482158216821782168625
:1006DA001186128613868FE391E086A397A3178665
:0806EA0081E0808380E00895A7
:1006F200E0E1F4E0808188608193E83184E0F807EA
:10070200C9F7E0E3F4E0808188608193E83384E014
:10071200F807C9F7E0E5F4E0808188608193E83565
:0807220084E0F807C9F708950F
:10072A00E0E4FAE08FEF91E08487958712861386DA
:10073A0011821086148281E0858316821186808355
:04074A0080E00895AE
:10074E000E943A020E94D4030E94E8030E94E00332
:10075E000E942F030E9455030E94C7030E94950317
:02076E000895EC
:100770001F920F920FB60F9211248F9381E08093F6
:0E0780008A008F910F900FBE0F901F9018955A
:10078E0040E068ED80E191E00E94F603E0E1F1E0E7
:0A079E0012821382789480E008951F
:1007A80040E068ED80E890E00E94F603E0E8F0E0C1
:0807B8001186108680E008950F
:1007C00040E068ED80E590E00E94F60380E0089547
:1007D00040E068ED80E091E00E94F60380E008953B
:0C07E000EE0FFF1F0590F491E02D09942E
:0807EC00FC0164BF4083089585
:0607F4000E94A703FFCFE5
:0407FA000C9400005B
:0207FE0008955C
:02080000089559
:02080200089557
:02080400089555
:020806000204EA
:020808000104E9
:02080A000004E8
:02080C00FF03E8
:02080E000600E2
:02081000A00046
:02000004008278
:090000000000020000C40700002A
:00000001FF
