:100000000C944C000C941C020C94CE010C941C0219
:100010000C941C020C941C020C941C020C941C02E8
:100020000C943E010C941C020C94BA000C94E60053
:100030000C9412010C941C020C941C020C941C02D3
:100040000C941C020C941C020C941C020C941C02B8
:100050000C941C020C941C020C941C020C941C02A8
:100060000C941C020C941C020C941C020C941C0298
:100070000C941C020C941C020C941C0238003802D4
:1000800000044438023804000446380438060004EA
:10009000483806380800044A11241FBECFEFCDBFF0
:1000A000DFE3DEBFECE7F0E040E017C0B591A591DB
:1000B00035912591059107FD0CC095918591EF0132
:1000C000F92FE82F05900D92A217B307D9F7FE017B
:1000D00004C01D92A217B307E1F7E839F40731F71E
:0C00E0000E9419020C947400F894FFCFE9
:1000EC00CF93DF930E94B201C0E0D4E01882A0E26B
:1000FC00B4E087E08C93E0E4F4E083E080831C823E
:10010C0014961C9214971482188A198A1A8A1B8ABC
:10011C001C8A1D8A1E8A1F8A50961C9250975196D3
:10012C001C92519752961C92529753961C9253972D
:10013C0054961C92549755961C92559756961C9211
:10014C00569757961C92108A118A128A138A148A0F
:10015C00158A168A178AE0E0F2E010821182128268
:08016C001382DF91CF91089589
:100174001F920F920FB60F9211242F933F934F9318
:100184005F936F937F938F939F93AF93BF93EF93FB
:10019400FF93E0910638F0910738309709F00995FC
:1001A40080E180930B0AFF91EF91BF91AF919F91F2
:1001B4008F917F916F915F914F913F912F910F900C
:0801C4000FBE0F901F9018956B
:1001CC001F920F920FB60F9211242F933F934F93C0
:1001DC005F936F937F938F939F93AF93BF93EF93A3
:1001EC00FF93E0910438F0910538309709F00995A8
:1001FC0080E280930B0AFF91EF91BF91AF919F9199
:10020C008F917F916F915F914F913F912F910F90B3
:08021C000FBE0F901F90189512
:100224001F920F920FB60F9211242F933F934F9367
:100234005F936F937F938F939F93AF93BF93EF934A
:10024400FF93E0910238F0910338309709F0099553
:1002540080E480930B0AFF91EF91BF91AF919F913E
:100264008F917F916F915F914F913F912F910F905B
:080274000FBE0F901F901895BA
:10027C001F920F920FB60F9211242F933F934F930F
:10028C005F936F937F938F939F93AF93BF93EF93F2
:10029C00FF93E0910038F0910138309709F00995FF
:1002AC0081E080930B0AFF91EF91BF91AF919F91E9
:1002BC008F917F916F915F914F913F912F910F9003
:0802CC000FBE0F901F90189562
:1002D40040E068ED88E790E00E94150240E068ED98
:1002E4008CE790E00E94150240E068ED80E790E022
:1002F4000E94150240E168ED81E690E00E9415023B
:1003040041E068ED80E690E00E94150240E068ED6F
:0C03140082E690E00E94150280E008954F
:10032000E0E0FAE08FE190E080A791A782A793A791
:1003300084A795A710A211A283E0818387E082831E
:10034000138214821582168217821686118681E026
:10035000828713862FE336E026A337A31786808390
:0403600080E008959C
:10036400E0E1F4E0808188608193E83184E0F8077B
:10037400C9F7E0E3F4E0808188608193E83384E0A6
:10038400F807C9F7E0E5F4E0808188608193E835F7
:0803940084E0F807C9F70895A1
:10039C001F920F920FB60F9211248F9381E08093CE
:0E03AC008A008F910F900FBE0F901F90189532
:1003BA000E9476000E94F9010E940D020E946A01C1
:0E03CA000E9405020E9490010E94EC0108951D
:1003D80040E068ED80E191E00E941502E0E1F1E083
:0A03E80012821382789480E00895D9
:1003F20040E068ED80E890E00E941502E0E8F0E05D
:080402001186108680E00895C8
:10040A0040E068ED80E590E00E94150280E00895E2
:10041A0040E068ED80E091E00E94150280E00895D6
:08042A00FC0164BF408308954A
:060432000E94DD01FFCF76
:040438000C94000020
:02043C00089521
:02043E0008951F
:0204400008951D
:0204420008951B
:02044400210293
:02044600200292
:020448001F0291
:02044A001E0290
:02000004008278
:090000000000020000C40700002A
:00000001FF
