:100000000C946A000C94BD030C9478030C94BD030B
:100010000C94BD030C94BD030C94BD030C94BD0360
:100020000C94C3020C94BD030C943F020C946B021D
:100030000C9497020C9494000C94BD030C94BD0393
:100040000C94BD030C94BD030C94BD030C94BD0330
:100050000C94BD030C94BD030C94BD030C94BD0320
:100060000C94BD030C94BD030C94BD030C94BD0310
:100070000C94BD030C94BD030C94BD03F4000D015E
:100080003E014D0169018601B301BE013805380703
:10009000000786380738090007883809380B000739
:1000A0008A380B380D00078C380D380F80380F3820
:1000B00011803811381300078E3813381500079057
:1000C000381538178038173819803819381B803898
:1000D0000038058011241FBECFEFCDBFDFE3DEBFA8
:1000E000ECE8F0E040E017C0B591A591359125917D
:1000F000059107FD0CC095918591EF01F92FE82F2F
:1001000005900D92A217B307D9F7FE0104C01D9206
:10011000A217B307E1F7E43DF40731F70E94BA03F1
:080120000C949200F894FFCF4B
:100128001F920F920FB60F9211242F933F934F9364
:100138005F936F937F938F939F93AF93BF93EF9347
:10014800FF9380910D3890910E388F3391055CF0B4
:1001580010920D3810920E3881E08093470482E0A7
:100168008093450405C0019680930D3890930E380E
:10017800529B11C080910138833130F4E1E0F8E3FB
:1001880080818F5F808309C0E1E0F8E3928181E09C
:100198008927828302C010920138539B0EC0809138
:1001A8000238833130F4E1E0F8E381818F5F8183A5
:1001B80006C081E08093043802C010920238809112
:1001C8000338882309F4F0C0E0911138F09112380F
:1001D800E830F10508F0F0C0E25CFF4F0C94B00382
:1001E800109217381092183880911338909114385B
:1001F80096958795969587959695879580931538C2
:100208009093163881E090E08093113890931238DB
:10021800D3C02091173830911838809113389091B5
:1002280014388217930778F4809113389091143812
:10023800809317389093183882E090E080931138B3
:10024800909312380EC02091173830911838809149
:10025800153890911638820F931F80931738909312
:100268001838809117389091183880932A0A9093FB
:100278002B0AA2C0809117389091183880932A0AC7
:1002880090932B0A83E090E0809311389093123872
:1002980093C08091193890911A38863C91055CF08A
:1002A80084E090E0809311389093123810921938B6
:1002B80010921A3881C08091193890911A38019695
:1002C8008093193890931A3877C080911338909199
:1002D8001438809317389093183880911338909178
:1002E80014389695879596958795969587958093D2
:1002F80015389093163885E090E0809311389093E4
:1003080012385AC020911738309118388091153812
:10031800909116388217930778F480911738909146
:1003280018382091153830911638821B930B80931A
:100338001738909318380AC0109217381092183846
:1003480086E090E0809311389093123880911738A6
:100358009091183880932A0A90932B0A2DC01092F6
:100368002A0A10922B0A87E090E080931138909324
:10037800123822C08091193890911A388D3691051B
:100388004CF01092113810921238109219381092BD
:100398001A3812C08091193890911A3801968093B2
:1003A800193890931A3808C010922A0A10922B0A0A
:1003B8001092113810921238E0910F38F0911038DD
:1003C800309709F0099581E08093460AFF91EF91F3
:1003D800BF91AF919F918F917F916F915F914F9155
:0E03E8003F912F910F900FBE0F901F90189510
:1003F600CF93DF930E943903C0E0D4E01882A0E2D5
:10040600B4E082E08C93E0E4F4E083E080831C8235
:1004160014961C9214971482188A198A1A8A1B8AAF
:100426001C8A1D8A1E8A1F8A50961C9250975196C6
:100436001C92519752961C92529753961C92539720
:1004460054961C92549755961C92559756961C9204
:10045600569757961C92108A118A128A138A148A02
:10046600158A168A178AE0E0F2E01082118212825B
:080476001382DF91CF9108957C
:10047E001F920F920FB60F9211242F933F934F930B
:10048E005F936F937F938F939F93AF93BF93EF93EE
:10049E00FF93E0910B38F0910C38309709F00995E5
:1004AE0080E180930B0AFF91EF91BF91AF919F91E5
:1004BE008F917F916F915F914F913F912F910F90FF
:0804CE000FBE0F901F9018955E
:1004D6001F920F920FB60F9211242F933F934F93B3
:1004E6005F936F937F938F939F93AF93BF93EF9396
:1004F600FF93E0910938F0910A38309709F0099591
:1005060080E280930B0AFF91EF91BF91AF919F918B
:100516008F917F916F915F914F913F912F910F90A6
:080526000FBE0F901F90189505
:10052E001F920F920FB60F9211242F933F934F935A
:10053E005F936F937F938F939F93AF93BF93EF933D
:10054E00FF93E0910738F0910838309709F009953C
:10055E0080E480930B0AFF91EF91BF91AF919F9131
:10056E008F917F916F915F914F913F912F910F904E
:08057E000FBE0F901F901895AD
:100586001F920F920FB60F9211242F933F934F9302
:100596005F936F937F938F939F93AF93BF93EF93E5
:1005A600FF93E0910538F0910638309709F00995E8
:1005B60081E080930B0AFF91EF91BF91AF919F91DC
:1005C6008F917F916F915F914F913F912F910F90F6
:0805D6000FBE0F901F90189555
:1005DE0040E068ED88E790E00E94B60340E068EDE9
:1005EE008CE790E00E94B60340E068ED80E790E073
:1005FE000E94B60340E168ED81E690E00E94B603EA
:10060E0041E068ED80E690E00E94B60340E068EDC0
:0C061E0082E690E00E94B60380E00895A0
:10062A00E0E0FAE08FE190E080A791A72FE330E0C5
:10063A0022A733A784A795A710A211A283E28183D8
:10064A0087E08283138214821582168217821686A5
:10065A001186128613868FE391E086A397A31786E5
:08066A0081E0808380E0089527
:10067200E0E1F4E0808188608193E83184E0F8076A
:10068200C9F7E0E3F4E0808188608193E83384E095
:10069200F807C9F7E0E5F4E0808188608193E835E6
:0806A20084E0F807C9F7089590
:1006AA00E0E4FAE08FEF91E084879587128613865B
:1006BA0011821086148281E08583168211868083D6
:0406CA0080E008952F
:1006CE000E94FB010E9494030E94A8030E94EF0265
:1006DE000E94A0030E9415030E9487030E945503E7
:0206EE0008956D
:1006F0001F920F920FB60F9211248F9381E0809377
:0E0700008A008F910F900FBE0F901F901895DA
:10070E0040E068ED80E191E00E94B603E0E1F1E0A7
:0A071E0012821382789480E008959F
:1007280040E068ED80E890E00E94B603E0E8F0E081
:080738001186108680E008958F
:1007400040E068ED80E590E00E94B60380E0089507
:1007500040E068ED80E091E00E94B60380E00895FB
:0C076000EE0FFF1F0590F491E02D0994AE
:08076C00FC0164BF4083089505
:060774000E946703FFCFA5
:04077A000C940000DB
:02077E000895DC
:020780000895DA
:020782000895D8
:020784000895D6
:02078600C203AC
:02078800C103AB
:02078A00C003AA
:02078C00BF03A9
:02078E00060063
:02079000A000C7
:02000004008278
:090000000000020000C40700002A
:00000001FF
