:100000000C948A000C943E080C94E0070C943E0873
:100010000C943E080C94E6050C943E080C943E08A3
:100020000C94AA060C943E080C9426060C945206D6
:100030000C947E060C94B4000C943E080C943E087C
:100040000C943E080C943E080C943E080C943E0818
:100050000C9442070C94D6060C943E080C943E086F
:100060000C943E080C943E080C943E080C943E08F8
:100070000C943E080C943E080C94D107D600F20074
:10008000250130013B0158018C019901D101D501B5
:10009000D901E701ED01F301F901FF011D0224027D
:1000A0004B024F023834383680383638388038388A
:1000B000383A80383A383C803800383480383C3818
:1000C0003E00108E383E38400010903840384200D4
:1000D00010923842384400109438443846803856DC
:1000E00038578038463848803848384A00109638A3
:1000F0004A384C001098384C384E80384E38508072
:1001000038503852803852385480385738588038F0
:100110005438568011241FBECFEFCDBFDFE3DEBFC2
:10012000E4EAF0E041E017C0B591A5913591259141
:10013000059107FD0CC095918591EF01F92FE82FEE
:1001400005900D92A217B307D9F7FE0104C01D92C6
:10015000A217B307E1F7E431F40731F70E94D103A6
:080160000C94B200F894FFCFEB
:100168001F920F920FB60F9211242F933F934F9324
:100178005F936F937F938F939F93AF93BF93EF9307
:10018800FF9380912A38882309F4E9C0E091483820
:10019800F0914938E830F10508F0EBC0E25CFF4F18
:1001A8000C94270887E791E080932A0A90932B0AFA
:1001B8008BE28093010A10924E3810924F3880914A
:1001C8004A3890914B389695879596958795809360
:1001D8004C3890934D3881E090E05FC0809156385C
:1001E800843020F5809156388F5F8093563820915F
:1001F8004E3830914F3880914A3890914B382817B3
:10020800390758F420914E3830914F3880914C3846
:1002180090914D38820F931F04C080914A38909175
:100228004B3880934E3890934F3869C080914A3844
:1002380090914B3880934E3890934F3882E090E0FD
:100248005AC080914E3890914F3880932A0A9093E3
:100258002B0A83E090E064C0809150389091513827
:100268008E3A91050CF471C084E090E059C08091F9
:100278004A3890914B3880934E3890934F388091FC
:100288004A3890914B38969587959695879580939F
:100298004C3890934D3885E090E08093483890939F
:1002A80049381092563865C0809156388330D8F452
:1002B800809156388F5F8093563820914E38309110
:1002C8004F3880914C3890914D3882179307B8F485
:1002D80080914E3890914F3820914C3830914D385C
:1002E800821B930B9ECF87E791E080934E389093C3
:1002F8004F3886E090E08093483890934938809151
:100308004E3890914F3880932A0A90932B0A31C027
:1003180010922A0A10922B0A1092010A87E090E0A4
:1003280080934838909349380BC080915038909109
:1003380051388C3391404CF010924838109249381B
:10034800109250381092513814C0809150389091C2
:100358005138019680935038909351380AC01092C2
:100368002A0A10922B0A1092010A10924838109209
:10037800493890911E3880911D3898131092203872
:10038800E0911D388E2F90E08C30910508F097C0D1
:10039800FC01EA5BFF4F0C94270881E08093450439
:1003A80089C081E08093450447C080911F3882331B
:1003B80008F475C010921F3881E08093450482E0EC
:1003C800809347047AC080912038823008F058C062
:1003D80017C080912038843008F052C011C0809135
:1003E8002038863008F04CC00BC080912038883007
:1003F80008F046C005C0809120388A3008F040C017
:1004080080911F38823330F480911F388F5F80933A
:100418001F3807C010921F38809120388F5F809353
:1004280020388091203880FF2BC081E080934504DC
:1004380023C081E08093460482E0809346043DC057
:10044800809120388230E0F480911F38823330F474
:1004580080911F388F5F80931F3807C010921F3814
:10046800809120388F5F809320388091203880FFDA
:1004780007C081E08093460482E0809346041FC051
:1004880081E08093450482E08093450418C081E0B0
:10049800809346040FC080911F38823330F48091D6
:1004A8001F388F5F80931F3808C010921F3881E073
:1004B8008093470482E0809345041092203880910D
:1004C8001D3880931E3880912138539B3AC0209163
:1004D8000338309104382F30310558F4209103380F
:1004E800309104382F5F3F4F2093033830930438FE
:1004F80003C091E090930838109213381092143882
:100508001092173810921838833009F04FC0209194
:10051800193830911A382C32314058F42091193852
:1005280030911A382F5F3F4F2093193830931A387B
:100538003DC01092193810921A3891E090931C38E7
:1005480035C01092033810920438909108389923D6
:1005580079F091E09093073820911638283030F4DC
:10056800909116389F5F9093163802C09093123876
:10057800109208381092193810921A3820911738AA
:1005880030911838283C310558F4209117383091AB
:1005980018382F5F3F4F209317383093183806C00C
:1005A800109216381092173810921838529B31C092
:1005B80020910538309106382F30310558F42091B4
:1005C8000538309106382F5F3F4F20930538309318
:1005D800063803C091E090930A388230A9F420913C
:1005E8000B3830910C38243F314058F420910B38A7
:1005F80030910C382F5F3F4F20930B3830930C38D5
:1006080003C091E090930D3810921338109214386B
:100618001AC0109205381092063890910A3899231A
:1006280019F091E09093093810920A3810920B381B
:1006380010920C3890910D38992319F091E090930D
:100648000E3810920D388330A9F4809113389091A8
:100658001438883B9B4050F480911338909114389B
:100668000196809313389093143831C081E08093B9
:1006780015382DC01092133810921438109215386E
:10068800823029F580912C3890912D38A0912E3800
:10069800B0912F3880329F4BA240B105A0F48091D1
:1006A8002C3890912D38A0912E38B0912F38019682
:1006B800A11DB11D80932C3890932D38A0932E380E
:1006C800B0932F380EC081E0809330380AC0109262
:1006D8002C3810922D3810922E3810922F381092F4
:1006E800303880912538882351F1809126389091AF
:1006F800273885329940E0F480912B38843130F4E2
:1007080080912B388F5F80932B3803C081E08093D2
:10071800283880912838882369F08091263890916C
:100728002738893B984030F481E08093293802C00B
:1007380010922B3885E00E94150810922538809178
:100748002138813069F490913138943630F48091B1
:1007580031388F5F8093313805C08093323802C0BA
:1007680010923138E0914438F0914538309709F0CB
:10077800099581E08093460AFF91EF91BF91AF916F
:100788009F918F917F916F915F914F913F912F91A1
:0A0798000F900FBE0F901F901895F0
:1007A2000E94AA0710921D38109207381092213821
:1007B2001092223884E080932438109228381092C4
:1007C200293810922A38109232381092313880E04B
:1007D20090E00E943608809357388F3F19F484E1E5
:1007E20090E001C090E08093463890934738C1E092
:1007F2001EE384E1E82EF12C98E0D92EDBE029E01B
:10080200C22E04E032E0B32E46E0A42E57E0952E2D
:1008120080912138823009F444C028F4882351F0B1
:10082200813089F0F7CF833009F4FCC0843009F4B9
:1008320068C1F0CFC0921D3880912038823040F3D9
:10084200C0932138E5CF80912838882319F0D093BE
:100852001D3802C010921D3810922A3810920006DC
:1008620080911238882331F01092123883E08093FD
:1008720021380AC080910738882361F01092073826
:10088200B092213810922238C093000685E00E946F
:10089200150805C08091323881110093213843E058
:1008A2002AC1C0932A3880912238823019F128F463
:1008B200882349F0813071F062C0833051F1843075
:1008C20009F441C05CC080912838811140C09092E7
:1008D2001D3842C080912838882319F0D0931D38E2
:1008E20003C083E080931D38809146389091473849
:1008F20003971EC080912838882319F0D0931D38A1
:1009020002C000931D388091463890914738029773
:100912000FC080912838882319F0D0931D3803C066
:1009220085E080931D388091463890914738019731
:100932008093543890935538189F9001199F300D29
:100942001124C90116C080912838882319F0D09348
:100952001D3802C0A0921D38209146383091473888
:100962002093543830935538129FC001139F900D35
:1009720011248F519B4F80934A3890934B3880912A
:100982000E38882349F010920E38109209380093DD
:100992002438009322381CC0809109388823C1F082
:1009A2001092093880912438843020F48F5F80932C
:1009B200243802C0C093243880912438809322388E
:1009C20010922C3810922D3810922E3810922F3807
:1009D20080910738882319F01092073804C080915B
:1009E2002938882319F0C093213884C08091303887
:1009F200882369F0C09321381092303810922C3835
:100A020010922D3810922E3810922F3873C0809188
:100A12001238882309F46EC01092123883E0809352
:100A2200213868C0C0932A3880912838882319F069
:100A3200D0931D3802C0D0921D3880910738882388
:100A420099F0109207388091463890914738449730
:100A520030F48091463890914738019616C0E09262
:100A62004638F092473837C0809109388823B9F068
:100A7200109209388091463890914738892B51F06D
:100A820080914638909147380197809346389093E9
:100A9200473821C010924638109247381CC08091C6
:100AA2001C38882319F010921C380BC0809115381D
:100AB200882319F01092153804C0809129388823B0
:100AC20051F0C0932138609146387091473880E0E8
:100AD20090E00E9494072091463830914738129F47
:100AE200C001139F900D11248F519B4F80934A3860
:100AF20090934B3840E068ED80E590E00E94320828
:0E0B020087CE889580913238811182CE99CEAF
:100B1000CF93DF930E946107C0E0D4E08EED88831D
:100B2000A0E2B4E08FE38C93E0E4F4E083E0808320
:100B30001C8214961C9214978483188A198A1A8A24
:100B40001B8A1C8A1D8A1E8A1F8A50961C925097E7
:100B500051961C92519752961C92529753961C9202
:100B6000539754961C92549755961C9255975696A7
:100B70001C92569757961C92108A118A128A81E00D
:100B8000838B148A158A168A178AE0E0F2E01082B5
:100B90001182128213828DE298E080933A3890930A
:100BA0003B3881E498E0809338389093393882E478
:100BB00098E0809336389093373880E498E08093BB
:0C0BC000343890933538DF91CF910895C0
:100BCC001F920F920FB60F9211242F933F934F93B6
:100BDC005F936F937F938F939F93AF93BF93EF9399
:100BEC00FF935B9B05C0E0913A38F0913B38099537
:100BFC00589B05C0E0913838F091393809955A9BCB
:100C0C0005C0E0913638F09137380995599B05C0ED
:100C1C00E0913438F091353809958FEF8BB9FF910D
:100C2C00EF91BF91AF919F918F917F916F915F9158
:100C3C004F913F912F910F900FBE0F901F901895D1
:100C4C001F920F920FB60F9211242F933F934F9335
:100C5C005F936F937F938F939F93AF93BF93EF9318
:100C6C00FF93E0914238F0914338309709F00995A1
:100C7C0080E180930B0AFF91EF91BF91AF919F910F
:100C8C008F917F916F915F914F913F912F910F9029
:080C9C000FBE0F901F90189588
:100CA4001F920F920FB60F9211242F933F934F93DD
:100CB4005F936F937F938F939F93AF93BF93EF93C0
:100CC400FF93E0914038F0914138309709F009954D
:100CD40080E280930B0AFF91EF91BF91AF919F91B6
:100CE4008F917F916F915F914F913F912F910F90D1
:080CF4000FBE0F901F90189530
:100CFC001F920F920FB60F9211242F933F934F9385
:100D0C005F936F937F938F939F93AF93BF93EF9367
:100D1C00FF93E0913E38F0913F38309709F00995F8
:100D2C0080E480930B0AFF91EF91BF91AF919F915B
:100D3C008F917F916F915F914F913F912F910F9078
:080D4C000FBE0F901F901895D7
:100D54001F920F920FB60F9211242F933F934F932C
:100D64005F936F937F938F939F93AF93BF93EF930F
:100D7400FF93E0913C38F0913D38309709F00995A4
:100D840081E080930B0AFF91EF91BF91AF919F9106
:100D94008F917F916F915F914F913F912F910F9020
:080DA4000FBE0F901F9018957F
:100DAC001F920F920FB60F9211242F933F934F93D4
:100DBC005F936F937F938F939F93AF93BF93EF93B7
:100DCC00FF93E0915238F0915338309709F0099520
:100DDC0082E080930B06FF91EF91BF91AF919F91B1
:100DEC008F917F916F915F914F913F912F910F90C8
:080DFC000FBE0F901F90189527
:100E0400E0E0FAE010A611A612A613A614A615A6F1
:100E140010A211A28BE2818387E082831382148261
:100E2400158216821782168611861286138683EC23
:100E340099E086A397A3178681E0808380E00895D4
:100E440060E088E790E00E943A0860E08CE790E078
:100E54000E943A0860E080E790E00E943A086BE064
:100E640081E690E00E943A0860E080E690E00E940B
:100E74003A0860E082E690E00E943A0880E0089533
:100E84001F920F920FB60F9211242F933F938F93BB
:100E9400EF93FF93E0E0F6E081E0838720893189D6
:100EA400E1E2F8E3258336838483FF91EF918F9108
:0E0EB4003F912F910F900FBE0F901F90189539
:100EC200E0E1F4E0808188608193E83184E0F80712
:100ED200C9F7E0E3F4E0808188608193E83384E03D
:100EE200F807C9F7E0E5F4E0808188608193E8358E
:080EF20084E0F807C9F7089538
:100EFA00E0E0F6E0168A83E0818380E18283138250
:100F0A0014821486118681E08287168288E085839E
:0E0F1A00148A158A128A138A108280E00895C4
:100F28001F93CF93DF93EC01162F8091021081FD60
:100F3800FCCF84E00E941B08DC5E188383E00E94DB
:0C0F48001B0880E0DF91CF911F910895FD
:100F54000E9488050E94FC070E940E080E94220736
:100F64000E9407080E947D070E9402070E94210830
:080F74000E94EF070C94BE0778
:100F7C00E0E4FAE083EC99E0848795871286138687
:100F8C0011821086148281E085831682118685E198
:060F9C00808380E008954F
:100FA2001F920F920FB60F9211248F9381E08093BC
:0E0FB20004108F910F900FBE0F901F90189596
:100FC0001F920F920FB60F9211248F9381E080939E
:0E0FD0008A008F910F900FBE0F901F90189502
:100FDE0040E068ED80E191E00E943208E0E1F1E04E
:0A0FEE0012821382789480E00895C7
:100FF80060E080E890E00E943A08E0E8F0E01186BE
:06100800108680E008954F
:0E100E0060E080E590E00E943A0880E00895DE
:0E101C0060E080E091E00E943A0880E00895D4
:0C102A00E0E0F6E0868381E08087089516
:0C103600482F6DE980E090E10C94320836
:0C104200E0E0F0E11182138280E00895EC
:0C104E00EE0FFF1F0590F491E02D0994B7
:0A105A00E1E2F8E3118A108A08951C
:08106400FC0164BF4083089504
:08106C009C5EFC0180810895E7
:08107400462F68ED0C943208D0
:04107C000C940000D0
:021080000895D1
:021082000895CF
:021084000895CD
:021086000895CB
:021088000895C9
:02108A000895C7
:02108C000895C5
:02108E00430815
:02109000440812
:0210920046080E
:0210940045080D
:02109600060052
:02109800E10471
:02000004008278
:090000000000010000C40700002B
:00000001FF
