:100000000C9480000C946B070C9412070C946B07F3
:100010000C946B070C946B070C946B070C946B0798
:100020000C94DD050C946B070C9459050C94850514
:100030000C94B1050C94AA000C946B070C946B07FC
:100040000C946B070C946B070C946B070C946B0768
:100050000C9475060C9409060C946B070C946B07B2
:100060000C946B070C946B070C946B070C946B0748
:100070000C946B070C946B070C940307CF00D30010
:10008000D700E500EB00F100F700FD001B012201A5
:1000900049014D0157026A029D02A802B302D00233
:1000A00007031203382E3830000EE23830383200A1
:1000B0000EE438323834000EE638343836000EE8B4
:1000C000383638388038483849803838383A8038B7
:1000D0003A383C000EEA383C383E000EEC383E38E8
:1000E0004080384038428038423844803800382ECA
:1000F0008038443846803849384A80384638488005
:1001000011241FBECFEFCDBFDFE3DEBFE4EAF0E096
:1001100041E017C0B591A59135912591059107FD55
:100120000CC095918591EF01F92FE82F05900D9264
:10013000A217B307D9F7FE0104C01D92A217B30797
:10014000E1F7E030F40731F70E947D030C94A8003A
:04015000F894FFCF51
:100154001F920F920FB60F9211242F933F934F9338
:100164005F936F937F938F939F93AF93BF93EF931B
:10017400FF9390911A3880911938981310921C3873
:10018400E09119388E2F90E08C30910508F097C0DB
:10019400FC01E25CFF4F0C94590781E08093450415
:1001A40089C081E08093450447C080911B388F311A
:1001B40008F475C010921B3881E08093450482E0F6
:1001C400809347047AC080911C38823008F058C06C
:1001D40017C080911C38843008F052C011C080913F
:1001E4001C38863008F04CC00BC080911C38883015
:1001F40008F046C005C080911C388A3008F040C021
:1002040080911B388F3130F480911B388F5F80933D
:100214001B3807C010921B3880911C388F5F809365
:100224001C3880911C3880FF2BC081E080934504EA
:1002340023C081E08093460482E0809346043DC05D
:1002440080911C388230E0F480911B388F3130F477
:1002540080911B388F5F80931B3807C010921B3826
:1002640080911C388F5F80931C3880911C3880FFEC
:1002740007C081E08093460482E0809346041FC057
:1002840081E08093450482E08093450418C081E0B6
:10029400809346040FC080911B388F3130F48091D5
:1002A4001B388F5F80931B3808C010921B3881E085
:1002B4008093470482E08093450410921C38809117
:1002C400193880931A3880911D38539B25C090911A
:1002D4000338993030F4909103389F5F909303383A
:1002E40003C091E09093063810921138109212389E
:1002F400109215388330B9F5909116389C3B30F440
:10030400909116389F5F909316382DC0109216382E
:1003140091E09093183827C01092033890910638D2
:10032400992379F091E0909305382091143828307E
:1003340030F4909114389F5F9093143802C09093D6
:1003440010381092063810921638909115389D374F
:1003540030F4909115389F5F9093153804C0109233
:10036400143810921538529B29C090910438993052
:1003740030F4909104389F5F9093043803C091E067
:10038400909308388230A9F42091093830910A38C2
:100394002833314058F42091093830910A382F5FBE
:1003A4003F4F2093093830930A3803C091E090936B
:1003B4000B38109211381092123818C01092043869
:1003C40090910838992319F091E09093073810928E
:1003D40008381092093810920A3890910B389923F2
:1003E40019F091E090930C3810920B388330A9F4F3
:1003F40080911138909112388335974050F4809150
:1004040011389091123801968093113890931238D4
:1004140031C081E0809313382DC0109211381092AE
:10042400123810921338823029F58091283890912F
:100434002938A0912A38B0912B388437974BA140A2
:10044400B105A0F48091283890912938A0912A38D8
:10045400B0912B380196A11DB11D8093283890933B
:100464002938A0932A38B0932B380EC081E08093AA
:100474002C380AC0109228381092293810922A3841
:1004840010922B3810922C3880912638882309F446
:10049400E1C0E0913A38F0913B38E830F10508F0DA
:1004A400E1C0E65BFF4F0C9459071092403810925C
:1004B400413880913C3890913D3896958795969532
:1004C400879580933E3890933F3881E090E05FC0F9
:1004D40080914838843020F5809148388F5F80932C
:1004E4004838209140383091413880913C3890917F
:1004F4003D382817390758F4209140383091413855
:1005040080913E3890913F38820F931F04C08091B0
:100514003C3890913D3880934038909341386CC07A
:1005240080913C3890913D38809340389093413885
:1005340082E090E05DC08091403890914138809392
:100544002A0A90932B0A83E090E065C08091423898
:10055400909143388D3691050CF472C084E090E09C
:100564005AC080913C3890913D38809340389093A4
:10057400413880913C3890913D3896958795969571
:10058400879580933E3890933F3885E090E0809340
:100594003A3890933B381092483864C08091483878
:1005A400843000F5809148388F5F809348382091DB
:1005B40040383091413880913E3890913F388217CD
:1005C400930758F4809140389091413820913E38F7
:1005D40030913F38821B930B9ECF1092403810927B
:1005E40041380AC0109240381092413886E090E0B9
:1005F40080933A3890933B388091403890914138B9
:1006040080932A0A90932B0A2DC010922A0A1092E2
:100614002B0A87E090E080933A3890933B380BC0E4
:100624008091423890914338863C91054CF0109269
:100634003A3810923B38109242381092433812C024
:100644008091423890914338019680934238909338
:10065400433808C010922A0A10922B0A10923A3892
:1006640010923B3880912138882351F180912238AF
:10067400909123388B349A40E0F4809127388D3060
:1006840030F4809127388F5F8093273803C081E04E
:100694008093243880912438882369F0809122380B
:1006A40090912338833D994030F481E0809325383C
:1006B40002C01092273885E00E9447071092213823
:1006C400E0913638F0913738309709F0099581E098
:1006D4008093460AFF91EF91BF91AF919F918F91C3
:1006E4007F916F915F914F913F912F910F900FBE2A
:0606F4000F901F90189505
:1006FA000E94DD06109219381092053810921D38A2
:10070A0010921E3884E08093203810922438109278
:10071A0025381092263880E090E00E946307809383
:10072A0049388F3F19F484E190E001C090E080934A
:10073A0038389093393842E0D42E53E0F52EC1E090
:10074A0069E0C62E74E0E72EDBE0E6E0BE2EF7E0B5
:10075A00AF2E04E110E0A8E09A2E80911D38813076
:10076A0079F030F0823059F1833009F4F0C0F7CFD4
:10077A00C092193880911C38823008F0C6C0EDCF7B
:10078A00109219381092263810920006909110385B
:10079A00992329F010921038F0921D380AC09091CE
:1007AA0005389923D1F210920538D0921D3810924B
:1007BA001E388093000685E00E944707CECFC0937B
:1007CA00263880911E38823049F128F4882349F06E
:1007DA00813071F06BC08330B9F1843009F44BC0B9
:1007EA0065C08091243881114AC0A09219384CC042
:1007FA0080912438882319F0D093193802C0F092D6
:10080A00193880913838909139389C012350310930
:10081A00209346383093473841963FC08091243818
:10082A00882319F0D093193802C0E09219388091C0
:10083A003838909139389C01225031092093463832
:10084A0030934738429629C080912438882319F07A
:10085A00D093193803C085E08093193880913838CD
:10086A00909139389C0121503109209346383093B0
:10087A004738439612C080912438882319F0D093C0
:10088A00193802C0B09219388091383890913938A5
:10089A008093463890934738449633E0880F991FDF
:1008AA003A95E1F780933C3890933D3880910C3823
:1008BA00882349F010920C3810920738E0922038B9
:1008CA00E0921E381CC0809107388823C1F010922C
:1008DA00073880912038843020F48F5F8093203845
:1008EA0002C0C09320388091203880931E3810921D
:1008FA0028381092293810922A3810922B38809171
:10090A000538882329F010920538C0931D3825CF61
:10091A00809125388111F9CF80912C38882369F08C
:10092A00C0931D3810922C3810922838109229380A
:10093A0010922A3810922B3810CF809110388823C1
:10094A0009F40BCF10921038F0921D3806CFC093DD
:10095A00263880912438882319F0D093193802C098
:10096A009092193880910538882399F010920538A9
:10097A008091383890913938449730F480913838DA
:10098A0090913938019616C0009338381093393847
:10099A0037C0809107388823B9F0109207388091C0
:1009AA00383890913938892B51F0809138389091A4
:1009BA0039380197809338389093393821C010928A
:1009CA003838109239381CC080911838882319F0A9
:1009DA00109218380BC080911338882319F010929E
:1009EA00133804C080912538882351F0C0931D38EC
:1009FA00609138387091393880E090E00E94C706DB
:100A0A008091383890913938449623E0880F991F9D
:0E0A1A002A95E1F780933C3890933D389ECEAC
:100A2800CF93DF930E949406C0E0D4E08EED8883D4
:100A3800A0E2B4E08FE38C93E0E4F4E083E0808309
:100A48001C8214961C9214978483188A198A1A8A0D
:100A58001B8A1C8A1D8A1E8A1F8A50961C925097D0
:100A680051961C92519752961C92529753961C92EB
:100A7800539754961C92549755961C925597569690
:100A88001C92569757961C92108A118A128A138ABA
:100A9800148A158A168A178AE0E0F2E01082118219
:0A0AA80012821382DF91CF910895AE
:100AB2001F920F920FB60F9211242F933F934F93D1
:100AC2005F936F937F938F939F93AF93BF93EF93B4
:100AD200FF93E0913438F0913538309709F0099559
:100AE20080E180930B0AFF91EF91BF91AF919F91AB
:100AF2008F917F916F915F914F913F912F910F90C5
:080B02000FBE0F901F90189523
:100B0A001F920F920FB60F9211242F933F934F9378
:100B1A005F936F937F938F939F93AF93BF93EF935B
:100B2A00FF93E0913238F0913338309709F0099504
:100B3A0080E280930B0AFF91EF91BF91AF919F9151
:100B4A008F917F916F915F914F913F912F910F906C
:080B5A000FBE0F901F901895CB
:100B62001F920F920FB60F9211242F933F934F9320
:100B72005F936F937F938F939F93AF93BF93EF9303
:100B8200FF93E0913038F0913138309709F00995B0
:100B920080E480930B0AFF91EF91BF91AF919F91F7
:100BA2008F917F916F915F914F913F912F910F9014
:080BB2000FBE0F901F90189573
:100BBA001F920F920FB60F9211242F933F934F93C8
:100BCA005F936F937F938F939F93AF93BF93EF93AB
:100BDA00FF93E0912E38F0912F38309709F009955C
:100BEA0081E080930B0AFF91EF91BF91AF919F91A2
:100BFA008F917F916F915F914F913F912F910F90BC
:080C0A000FBE0F901F9018951A
:100C12001F920F920FB60F9211242F933F934F936F
:100C22005F936F937F938F939F93AF93BF93EF9352
:100C3200FF93E0914438F0914538309709F00995D7
:100C420082E080930B06FF91EF91BF91AF919F914C
:100C52008F917F916F915F914F913F912F910F9063
:080C62000FBE0F901F901895C2
:100C6A00E0E0FAE010A611A612A613A614A615A68D
:100C7A0010A211A283E2818387E082831382148205
:100C8A0015821682178216861186128613868FE3BC
:100C9A0091E086A397A3178681E0808380E0089578
:100CAA0060E088E790E00E94670760E08CE790E0E8
:100CBA000E94670760E080E790E00E94670760E1B2
:100CCA0081E690E00E94670761E080E690E00E947A
:100CDA00670760E082E690E00E94670780E0089577
:100CEA001F920F920FB60F9211242F933F938F9357
:100CFA00EF93FF93E0E0F6E081E083872089318972
:100D0A00EDE1F8E3258336838483FF91EF918F9198
:0E0D1A003F912F910F900FBE0F901F901895D4
:100D2800E0E1F4E0808188608193E83184E0F807AD
:100D3800C9F7E0E3F4E0808188608193E83384E0D8
:100D4800F807C9F7E0E5F4E0808188608193E83529
:080D580084E0F807C9F70895D3
:100D6000E0E0F6E0168A83E0818380E182831382EB
:100D700014821486118681E08287168288E085833A
:0E0D8000148A158A128A138A108280E0089560
:100D8E001F93CF93DF93EC01162F8091021081FDFC
:100D9E00FCCF84E00E944D07DC5E188383E00E9446
:0C0DAE004D0780E0DF91CF911F91089568
:100DBA000E9414050E942E070E9440070E945506B1
:100DCA000E9439070E94B0060E9435060E94530706
:080DDA000E9421070C94F106B0
:100DE200E0E4FAE08FEF91E084879587128613861C
:100DF20011821086148281E0858316821186808397
:040E020080E00895EF
:100E06001F920F920FB60F9211248F9381E0809359
:0E0E160004108F910F900FBE0F901F90189533
:100E24001F920F920FB60F9211248F9381E080933B
:0E0E34008A008F910F900FBE0F901F9018959F
:100E420040E068ED80E191E00E945F07E0E1F1E0BF
:0A0E520012821382789480E0089564
:100E5C0060E080E890E00E946707E0E8F0E011862F
:060E6C00108680E00895ED
:0E0E720060E080E590E00E94670780E0089550
:0E0E800060E080E091E00E94670780E0089546
:0C0E8E00E0E0F6E0868381E080870895B4
:0C0E9A00482F6DE980E090E10C945F07A8
:0C0EA600E0E0F0E11182138280E008958A
:0C0EB200EE0FFF1F0590F491E02D099455
:080EBE00FC0164BF40830895AC
:080EC6009C5EFC01808108958F
:080ECE00462F68ED0C945F074C
:040ED6000C94000078
:020EDA00089579
:020EDC00089577
:020EDE00089575
:020EE000089573
:020EE2006D079A
:020EE4006E0797
:020EE600700793
:020EE8006F0792
:020EEA00060000
:020EEC00A00064
:02000004008278
:090000000000020000C40700002A
:00000001FF
