:100000000C948F000C94350C0C94710A0C94350CE4
:100010000C94350C0C94350C0C94350C0C94350C5C
:100020000C9473090C94350C0C94BF080C94FB08C9
:100030000C9437090C94B9000C94350C0C94350CC5
:100040000C94350C0C94350C0C94350C0C94350C2C
:100050000C941D0A0C94AF090C94350C0C94350CBF
:100060000C94350C0C94350C0C94350C0C94350C0C
:100070000C94350C0C94350C0C94350CEE00FB00F4
:10008000080121015F019D01DB0119025702640291
:10009000A202AF02E303FC032E0442045E047B04CD
:1000A000AB04BB043829382B80382B382D80382DF1
:1000B000382F80382F383180383138338038333812
:1000C0003580383538378038373839803839383BDB
:1000D00000186E383B383D001870383D383F001826
:1000E00072383F38410018743841384380384338FB
:1000F00045803845384780384738490018763849B0
:10010000384B001878384B384D80384D384F803890
:1001100000382980384F38518038513853801124A5
:100120001FBECFEFCDBFDFE3DEBFE4EAF0E041E08A
:1001300017C0B591A59135912591059107FD0CC08A
:1001400095918591EF01F92FE82F05900D92A21757
:10015000B307D9F7FE0104C01D92A217B307E1F758
:10016000EE31F40731F70E9434050C94B700F8948F
:02017000FFCFBF
:100172001F920F9200903F000F9211242F933F93F2
:100182004F935F936F937F938F939F93AF93BF939D
:10019200EF93FF93CF93DF93CDB7DEB790911538EE
:1001A20080911438981711F01092173880911438F2
:1001B200882F90E0092E000CAA0BBB0B40E050E008
:1001C2002BE030E0841B950B2817390708F4DFC1B8
:1001D200825C9F4FFC010C942B0C85E494E021E09F
:1001E200FC01208385E494E022E0FC01208310924C
:1001F2001738CEC185E494E021E0FC01208386E437
:1002020094E022E0FC01208310921738C1C1809152
:1002120016388F3130F4809116388F5F80931638FC
:100222000CC01092163885E494E021E0FC01208392
:1002320087E494E022E0FC01208310921738A8C1E1
:1002420080911738823078F5809116388F3130F4EA
:10025200809116388F5F8093163807C01092163837
:10026200809117388F5F8093173880911738882FC5
:1002720090E081709927892B59F485E494E021E07C
:10028200FC01208385E494E022E0FC01208380C10C
:1002920085E494E021E0FC01208386E494E022E0FE
:1002A200FC01208375C185E494E021E0FC012083F8
:1002B20085E494E022E0FC0120836AC18091173832
:1002C200843078F5809116388F3130F48091163869
:1002D2008F5F8093163807C01092163880911738B6
:1002E2008F5F8093173880911738882F90E0817044
:1002F2009927892B59F485E494E021E0FC012083BD
:1003020085E494E022E0FC01208342C185E494E08C
:1003120021E0FC01208386E494E022E0FC012083BA
:1003220037C185E494E021E0FC01208385E494E078
:1003320022E0FC0120832CC180911738863078F5A9
:10034200809116388F3130F4809116388F5F809308
:10035200163807C010921638809117388F5F809335
:10036200173880911738882F90E081709927892B50
:1003720059F485E494E021E0FC01208385E494E0D3
:1003820022E0FC01208304C185E494E021E0FC0129
:10039200208386E494E022E0FC012083F9C085E416
:1003A20094E021E0FC01208385E494E022E0FC015A
:1003B2002083EEC080911738883078F58091163806
:1003C2008F3130F4809116388F5F8093163807C0D2
:1003D20010921638809117388F5F8093173880916A
:1003E2001738882F90E081709927892B59F485E47A
:1003F20094E021E0FC01208385E494E022E0FC010A
:100402002083C6C085E494E021E0FC01208386E4D9
:1004120094E022E0FC012083BBC085E494E021E06B
:10042200FC01208385E494E022E0FC012083B0C03B
:10043200809117388A3078F5809116388F3130F4F0
:10044200809116388F5F8093163807C01092163845
:10045200809117388F5F8093173880911738882FD3
:1004620090E081709927892B59F485E494E021E08A
:10047200FC01208385E494E022E0FC01208388C013
:1004820085E494E021E0FC01208386E494E022E00C
:10049200FC0120837DC085E494E021E0FC012083FF
:1004A20085E494E022E0FC01208372C086E494E0BB
:1004B20021E0FC01208386E494E022E0FC01208319
:1004C2001092173865C080911738823078F5809184
:1004D20016388F3130F4809116388F5F809316383A
:1004E20007C010921638809117388F5F80931738A3
:1004F20080911738882F90E081709927892B59F4C1
:1005020085E494E021E0FC01208385E494E022E08C
:10051200FC0120833DC086E494E021E0FC012083BD
:1005220086E494E022E0FC01208332C085E494E07A
:1005320021E0FC01208385E494E022E0FC01208399
:1005420027C086E494E021E0FC01208385E494E066
:1005520022E0FC012083109217381AC080911638CD
:100562008F3130F4809116388F5F809316380CC02B
:100572001092163887E494E021E0FC01208385E4A0
:1005820094E022E0FC0120831092173801C00000A1
:10059200809114388093153888E090E0FC018281C4
:1005A200882F90E088709927892BF9F088E090E0F5
:1005B200FC018281882F90E084709927892BA9F011
:1005C20080910D3890910E388833914050F480918B
:1005D2000D3890910E38019680930D3890930E3815
:1005E20011C081E080930F380DC010920D38109227
:1005F2000E3880910F38882319F081E080931038EB
:1006020010920F3888E090E0FC018281882F90E000
:1006120088709927892B91F080910338893030F4C2
:10062200809103388F5F8093033803C081E0809309
:10063200063810921138109212380BC010920338FB
:1006420080910638882319F081E080930538109252
:10065200063888E090E0FC018281882F90E0847067
:100662009927892B51F180910438893030F4809197
:1006720004388F5F8093043803C081E08093083888
:10068200809118388230A1F48091093890910A380B
:100692008833914050F48091093890910A3801963C
:1006A2008093093890930A3803C081E080930B3815
:1006B200109211381092123818C01092043880919A
:1006C2000838882319F081E080930738109208389F
:1006D2001092093810920A3880910B38882319F049
:1006E20081E080930C3810920B3880911838833057
:1006F200A9F480911138909112388335974050F4C3
:10070200809111389091123801968093113890930C
:1007120012380AC081E08093133806C01092113853
:10072200109212381092133880911838823029F5BD
:100732008091233890912438A0912538B0912638A1
:100742008437974BA140B105A0F480912338909152
:100752002438A0912538B09126380196A11DB11DEB
:100762008093233890932438A0932538B093263869
:100772000EC081E0809327380AC01092233810926D
:1007820024381092253810922638109227388091FA
:100792002138882309F408C18091493890914A3858
:1007A200CC01A0E0B0E040E050E027E030E0841B64
:1007B200950B2817390708F401C1865B9F4FFC018E
:1007C2000C942B0C10924338109244388091473885
:1007D20090914838969587959695879596958795A1
:1007E200809345389093463881E090E08093493871
:1007F20090934A38E4C02091433830914438809134
:100802004738909148388217930778F48091473897
:1008120090914838809343389093443882E090E036
:100822008093493890934A380EC0209143383091D2
:1008320044388091453890914638820F931F8093B7
:1008420043389093443880E09AE0209143383091C5
:100852004438FC0122A733A7B2C080E09AE020917D
:10086200433830914438FC0122A733A783E090E05B
:100872008093493890934A38109241381092423806
:100882009EC080914138909142388D3691055CF03E
:1008920084E090E08093493890934A38109241382E
:1008A200109242388CC08091413890914238019622
:1008B200809341389093423882C08091473890911A
:1008C20048388093433890934438809147389091C8
:1008D20048389695879596958795969587958093AE
:1008E20045389093463885E090E08093493890935C
:1008F2004A3865C020914338309144388091453858
:10090200909146388217930788F4209143383091AA
:1009120044388091453890914638A901481B590BBB
:10092200CA0180934338909344380AC010924338E6
:100932001092443886E090E08093493890934A3888
:1009420080E09AE02091433830914438FC0122A79C
:1009520033A735C080E09AE0FC0112A613A687E017
:1009620090E08093493890934A381092413810921F
:10097200423825C08091413890914238863C910599
:100982004CF01092493810924A3810924138109225
:10099200423815C080914138909142380196809337
:1009A2004138909342380BC080E09AE0FC0112A6D5
:1009B20013A61092493810924A3801C00000809163
:1009C2001C38882351F180911D3890911E388B3448
:1009D2009A40E0F4809122388D3030F480912238B0
:1009E2008F5F8093223803C081E080931F3880910B
:1009F2001F38882369F080911D3890911E38833DFD
:100A0200994030F481E08093203802C0109222385D
:100A120085E00E94EF0A10921C3880914D38909127
:100A22004E38892B31F080914D3890914E38FC012F
:100A3200099580E49AE021E0FC0126830000DF9121
:100A4200CF91FF91EF91BF91AF919F918F917F9144
:100A52006F915F914F913F912F910F9000923F00C4
:060A62000F901F90189593
:100A6800CF93DF93CDB7DEB70E94930A1092143864
:100A780010920538109218381092193884E0809333
:100A88001B3810921F38109220381092213880910C
:100A98001838882F90E08230910509F44BC08330D4
:100AA80091052CF4009759F00197A9F0BFC1833044
:100AB800910509F45FC1049709F4B1C1B7C189E090
:100AC8008093143880911738823008F4AAC181E0E5
:100AD80080931838A6C1109214381092213880E0FB
:100AE80096E0FC01108280911038882371F01092F2
:100AF800103883E08093183880E096E021E0FC010C
:100B0800208385E00E94EF0A8EC1809105388823F2
:100B180009F489C11092053882E080931838109240
:100B2800193880E096E021E0FC01208385E00E94EE
:100B3800EF0A79C181E08093213880911938882F94
:100B480090E08230910509F457C0833091052CF468
:100B5800009759F0019761F1BAC08330910509F403
:100B68006FC0049709F490C0B2C080911F388823E1
:100B780021F08BE08093143803C087E08093143809
:100B880080914B3890914C388093513890935238DB
:100B980080915138909152384496880F991F880F48
:100BA800991F880F991F80934738909348388FC0B2
:100BB80080911F38882321F08BE08093143803C07C
:100BC80083E08093143880914B3890914C38039788
:100BD800809351389093523880915138909152387F
:100BE8004496880F991F880F991F880F991F809323
:100BF8004738909348386BC080911F38882321F07C
:100C08008BE08093143803C084E08093143880917B
:100C18004B3890914C3802978093513890935238C2
:100C280080915138909152384496880F991F880FB7
:100C3800991F880F991F809347389093483847C069
:100C480080911F38882321F08BE08093143803C0EB
:100C580085E08093143880914B3890914C380197F7
:100C680080935138909352388091513890915238EE
:100C78004496880F991F880F991F880F991F809392
:100C880047389093483823C080911F38882321F033
:100C98008BE08093143803C086E0809314388091E9
:100CA8004B3890914C3880935138909352388091BA
:100CB8005138909152384496880F991F880F991F80
:100CC800880F991F80934738909348380000809187
:100CD8000C38882359F010920C381092073884E0A9
:100CE80080931B3884E0809319381FC0809107389F
:100CF8008823D9F01092073880911B38843030F45B
:100D080080911B388F5F80931B3803C081E08093EC
:100D18001B3880911B388093193810922338109211
:100D28002438109225381092263880910538882367
:100D380031F01092053881E08093183876C08091A0
:100D48002038882321F081E0809318386EC0809184
:100D58002738882309F469C081E0809318381092F5
:100D68002738109223381092243810922538109280
:100D780026385BC081E08093213888E0809314385E
:100D880080910538882391F01092053880914B386E
:100D980090914C38449798F580914B3890914C3805
:100DA800019680934B3890934C3829C0809107382E
:100DB800882391F01092073880914B3890914C38E5
:100DC800892BE9F080914B3890914C3801978093AA
:100DD8004B3890934C3813C080911038882331F0E9
:100DE8001092103881E08093183809C08091133828
:100DF800882329F01092133881E080931838809165
:100E08004B3890914C384496880F991F880F991F3A
:100E1800880F991F809347389093483807C000007F
:0E0E280036CE000034CE000032CE000030CEB8
:100E3600CF93DF93CDB7DEB70E942B0880E094E016
:100E46002EEDFC01208380E294E02FE3FC01208359
:100E560080E494E023E0FC01208380E094E0FC0140
:100E6600148280E294E0FC01148280E494E023E0A2
:100E7600FC01248380E094E0FC01108A80E094E089
:100E8600FC01118A80E094E0FC01128A80E094E083
:100E9600FC01138A80E094E0FC01148A80E094E06F
:100EA600FC01158A80E094E0FC01168A80E094E05B
:100EB600FC01178A80E294E0FC01108A80E294E04B
:100EC600FC01118A80E294E0FC01128A80E294E03F
:100ED600FC01138A80E294E0FC01148A80E294E02B
:100EE600FC01158A80E294E0FC01168A80E294E017
:100EF600FC01178A80E494E0FC01108A80E494E007
:100F0600FC01118A80E494E0FC01128A80E494E0FA
:100F1600FC01138A80E494E0FC01148A80E494E0E6
:100F2600FC01158A80E494E0FC01168A80E494E0D2
:100F3600FC01178A80E092E0FC01108280E092E0DA
:100F4600FC01118280E092E0FC01128280E092E0D6
:100F5600FC0113828BEC9BE00E94190B83ED9BE056
:100F66000E942C0B8BED9BE00E943F0B83EE9BE0D7
:100F76000E94520B8BEE9BE00E94650B83EF9BE079
:100F86000E94780B8BEF9BE00E948B0B83E09CE02A
:0C0F96000E949E0B0000DF91CF91089597
:100FA200CF93DF93CDB7DEB780E09AE0FC0110A6C5
:100FB20011A680E09AE0FC0112A613A680E09AE056
:100FC200FC0114A615A680E09AE0FC0110A211A271
:100FD20080E09AE023E2FC01218380E09AE027E0AE
:100FE200FC01228380E09AE0FC01138280E09AE017
:100FF200FC01148280E09AE0FC01158280E09AE014
:10100200FC01168280E09AE0FC01178280E09AE0FF
:10101200FC01168680E09AE0FC01118680E09AE0ED
:10102200FC01128680E09AE0FC01138680E09AE0DF
:101032002FE331E0FC0126A337A380E09AE0FC0114
:10104200178680E09AE021E0FC01208380E0DF91B6
:04105200CF9108959D
:10105600CF93DF9300D01F92CDB7DEB7198212C0AF
:101066008981882F90E0805F9B4F2981222F30E075
:10107600205F3B4FF90120812860FC012083898194
:101086008F5F89838981883058F31A8212C08A81DA
:10109600882F90E0805D9B4F2A81222F30E0205DD3
:1010A6003B4FF90120812860FC0120838A818F5FF4
:1010B6008A838A81883058F31B8212C08B81882FDD
:1010C60090E0805B9B4F2B81222F30E0205B3B4FD3
:1010D600F90120812860FC0120838B818F5F8B833F
:1010E6008B81883058F300002396CDBFDEBFDF9199
:0410F600CF910895F9
:1010FA00CF93DF93CDB7DEB780E096E0FC01168A86
:10110A0080E096E023E0FC01218380E096E020E184
:10111A00FC01228380E096E0FC01138280E096E0E5
:10112A00FC01148280E096E0FC01148680E096E0DF
:10113A00FC01118680E096E021E0FC01228780E034
:10114A0096E0FC01168280E096E028E0FC01258307
:10115A0080E096E0FC01148A158A80E096E0FC01A2
:10116A00128A138A80E096E0FC01108280E0DF9107
:04117A00CF91089574
:10117E001F920F9200903F000F9211242F933F93D6
:10118E004F935F936F937F938F939F93AF93BF9381
:10119E00EF93FF93CF93DF93CDB7DEB780913938BE
:1011AE0090913A38892B31F08091393890913A38B4
:1011BE00FC01099580E09AE020E1FC012387000004
:1011CE00DF91CF91FF91EF91BF91AF919F918F9151
:1011DE007F916F915F914F913F912F910F90009260
:0811EE003F000F901F901895BF
:1011F6001F920F9200903F000F9211242F933F935E
:101206004F935F936F937F938F939F93AF93BF9308
:10121600EF93FF93CF93DF93CDB7DEB780913B3843
:1012260090913C38892B31F080913B3890913C3835
:10123600FC01099580E09AE020E2FC01238700008A
:10124600DF91CF91FF91EF91BF91AF919F918F91D8
:101256007F916F915F914F913F912F910F900092E7
:081266003F000F901F90189546
:10126E001F920F9200903F000F9211242F933F93E5
:10127E004F935F936F937F938F939F93AF93BF9390
:10128E00EF93FF93CF93DF93CDB7DEB780913D38C9
:10129E0090913E38892B31F080913D3890913E38B7
:1012AE00FC01099580E09AE020E4FC012387000010
:1012BE00DF91CF91FF91EF91BF91AF919F918F9160
:1012CE007F916F915F914F913F912F910F9000926F
:0812DE003F000F901F901895CE
:1012E6001F920F9200903F000F9211242F933F936D
:1012F6004F935F936F937F938F939F93AF93BF9318
:10130600EF93FF93CF93DF93CDB7DEB780913F384E
:1013160090914038892B31F080913F389091403838
:10132600FC01099580E09AE021E0FC01238700009A
:10133600DF91CF91FF91EF91BF91AF919F918F91E7
:101346007F916F915F914F913F912F910F900092F6
:081356003F000F901F90189555
:10135E001F920F9200903F000F9211242F933F93F4
:10136E004F935F936F937F938F939F93AF93BF939F
:10137E00EF93FF93CF93DF93CDB7DEB780914F38C6
:10138E0090915038892B31F080914F389091503890
:10139E00FC01099580E096E022E0FC012387000025
:1013AE00DF91CF91FF91EF91BF91AF919F918F916F
:1013BE007F916F915F914F913F912F910F9000927E
:0813CE003F000F901F901895DD
:1013D600CF93DF93CDB7DEB780E49AE02FEF31E00D
:1013E600FC012487358780E49AE0FC011286138687
:1013F60080E49AE0FC01118280E49AE0FC01108608
:1014060080E49AE0FC01148280E49AE021E0FC0189
:10141600258380E49AE0FC01168280E49AE0FC01D0
:10142600118680E49AE021E0FC01208380E0DF91D0
:04143600CF910895B5
:10143A001F920F9200903F000F9211242F938F93C7
:10144A009F93EF93FF93CF93DF93CDB7DEB780E0FF
:10145A0096E021E0FC01238780E096E0FC01808988
:10146A00918980931D3890931E3881E080931C38AF
:10147A000000DF91CF91FF91EF919F918F912F9172
:0C148A000F9000923F000F901F901895EB
:10149600CF93DF93CDB7DEB760E088E790E00E9498
:1014A600D90A60E08CE790E00E94D90A60E080E704
:1014B60090E00E94D90A60E181E690E00E94D90A94
:1014C60061E080E690E00E94D90A60E082E690E062
:0C14D6000E94D90A80E0DF91CF910895B8
:1014E2001F920F9200903F000F9211242F938F931F
:1014F2009F93EF93FF93CF93DF93CDB7DEB780E84F
:1015020090E021E0FC0122870000DF91CF91FF9162
:10151200EF919F918F912F910F9000923F000F902A
:041522001F90189569
:10152600CF93DF93CDB7DEB70E941B070E94040B53
:101536000E94BE0B0E944B0A0E94B10B0E947D08BE
:101546000E94D1070E94C30A0E94EB090000DF91A6
:04155600CF91089594
:10155A00CF93DF9300D01F92CDB7DEB789839A83EA
:10156A006B8389819A814B8168ED0E94310C00005E
:0C157A002396CDBFDEBFDF91CF91089516
:10158600CF93DF93CDB7DEB760E080E191E00E94B4
:10159600AD0A80E191E0FC01128280E191E0FC015C
:0C15A6001382789480E0DF91CF910895CB
:1015B200CF93DF9300D01F92CDB7DEB789839A8392
:1015C2006B8389819A814B8168ED0E94310C000006
:0C15D2002396CDBFDEBFDF91CF910895BE
:1015DE00CF93DF931F92CDB7DEB7898380E096E07D
:1015EE002981FC01268380E096E021E0FC01208722
:0A15FE0000000F90DF91CF910895D7
:10160800CF93DF93CDB7DEB760E080E890E00E942B
:10161800D90A80E890E0FC01118680E890E0FC019E
:0A162800108680E0DF91CF91089555
:10163200CF93DF9300D0CDB7DEB789839A838981B8
:101642009A818093293890932A3800000F900F9046
:06165200DF91CF91089525
:10165800CF93DF9300D0CDB7DEB789839A83898192
:101668009A8180932B3890932C3800000F900F901C
:06167800DF91CF910895FF
:10167E00CF93DF9300D0CDB7DEB789839A8389816C
:10168E009A8180932D3890932E3800000F900F90F2
:06169E00DF91CF910895D9
:1016A400CF93DF9300D0CDB7DEB789839A83898146
:1016B4009A8180932F389093303800000F900F90C8
:0616C400DF91CF910895B3
:1016CA00CF93DF9300D0CDB7DEB789839A83898120
:1016DA009A81809331389093323800000F900F909E
:0616EA00DF91CF9108958D
:1016F000CF93DF9300D0CDB7DEB789839A838981FA
:101700009A81809333389093343800000F900F9073
:06171000DF91CF91089566
:10171600CF93DF9300D0CDB7DEB789839A838981D3
:101726009A81809335389093363800000F900F9049
:06173600DF91CF91089540
:10173C00CF93DF9300D0CDB7DEB789839A838981AD
:10174C009A81809337389093383800000F900F901F
:06175C00DF91CF9108951A
:10176200CF93DF93CDB7DEB760E080E590E00E94D3
:0A177200D90A80E0DF91CF910895BD
:10177C00CF93DF93CDB7DEB760E080E091E00E94BD
:0A178C00D90A80E0DF91CF910895A3
:10179600CF93DF93CDB7DEB70000DF91CF910895E9
:1017A600CF93DF93CDB7DEB70000DF91CF910895D9
:1017B600CF93DF93CDB7DEB70000DF91CF910895C9
:1017C600CF93DF93CDB7DEB70000DF91CF910895B9
:1017D600CF93DF93CDB7DEB70000DF91CF910895A9
:1017E600CF93DF93CDB7DEB70000DF91CF91089599
:1017F600CF93DF93CDB7DEB70000DF91CF91089589
:10180600CF93DF93CDB7DEB70000DF91CF91089578
:10181600CF93DF93CDB7DEB70000DF91CF91089568
:10182600CF93DF93CDB7DEB70000DF91CF91089558
:10183600CF93DF93CDB7DEB70000DF91CF91089548
:10184600CF93DF93CDB7DEB70000DF91CF91089538
:0C185600EE0FFF1F0590F491E02D0994A7
:08186200FC0164BF40830895FE
:04186A000C940000DA
:02186E000B0C61
:02187000130C57
:021872001B0C4D
:02187400230C43
:02187600A000D0
:02187800060068
:02000004008278
:090000000000020000C40700002A
:00000001FF
